:100000000C94FD030C9441040C945C040C94410486
:100010000C9441040C9441040C9441040C9441044C
:100020000C9441040C9441040C945C2F0C944104F6
:100030000C9441040C9441040C9441040C9441042C
:100040000C9441040C9441040C9441040C9441041C
:100050000C944104290035001E001F0020002100DF
:100060002200230024002500260027002D002E005A
:100070002A004B0049002B0014001A00080015004C
:1000800017001C0018000C00120013002F00300095
:1000900031004E00A80039000400160007000900D6
:1000A0000A000B000D000E000F0033003400280082
:1000B00052004C000000E1001D001B00060019006A
:1000C0000500050011001000360037003800E5007B
:1000D0004F0000000000E000E20000002C000000E3
:1000E000015100002C000000E600E4005000510027
:1000F00000000000010001003A003B003C003D0010
:100100003E003F00400041004200430044004500E3
:100110000100010001000100010001000100005C7C
:10012000010001004900010001004600010001003A
:1001300001000100AE00010001000100010001000A
:10014000010001000100010001000100490001005F
:100150004B0001000000E10001000100010001006E
:10016000010001000100A800010001000100E500FC
:100170004D0000000000E000E2000000010000006F
:100180000100000001000000E600E4004A004E000B
:10019000000000000000000000000000000000005F
:1001A000000000000000000000000000000000004F
:1001B000000000000000000000000000000000003F
:1001C000000000000000000000000000000000002F
:1001D000000000000000000000000000000000001F
:1001E000000000000000000000000000000000000F
:1001F00000000000000000000000000000000000FF
:1002000000000000000000000000000000000000EE
:1002100000000000000000000000000000000000DE
:1002200000000000000000000000000000000000CE
:1002300000000000000000000000000000000000BE
:1002400000000000000000000000000000000000AE
:10025000000000000000000000000000000000009E
:10026000000000000000000000000000000000008E
:10027000000000000000000000000000000000007E
:10028000000000000000000000000000000000006E
:10029000000000000000000000000000000000005E
:1002A000000000000000000000000000000000004E
:1002B000000000000000000000000000000000003E
:1002C000000000000000000000000000000000002E
:1002D0000000000000000000000000002A2B2800A1
:1002E00000000000000000000000000000000029E5
:1002F000000000002C1E3420212224342627252E25
:10030000362D3738271E1F2021222324252633335C
:10031000362E37381F0405060708090A0B0C0D0E88
:100320000F101112131415161718191A1B1C1D2F54
:100330003130232D350405060708090A0B0C0D0E74
:100340000F101112131415161718191A1B1C1D2F34
:100350003130354C000000000000000000000000BB
:10036000000000000000000000000000000000008D
:1003700000000000000000007E0F00D4FFFFFFC758
:1003800000000078FD377A585A000004E6D6B446DB
:100390000200210116000000742FE5A3E00573019F
:1003A000EA5D003D8889C65436C3174FE4DC305FF0
:1003B000BE599BF073C3E8A7F311158A6922FA4569
:1003C00089BE0841EDC261FB784FC0C2709B38F610
:1003D0001B9F6422F4BAF517896A9C93556D3559B1
:1003E000E7596BECC2369AA0939DAFC67AC1776F7E
:1003F00038BB67F405B0D7A7FC9484A47C578B94D2
:10040000AE8934BC56EB936D8F941CE3B72970D042
:100410009C88254630E40E43C12FE8625EE72F0F2B
:10042000FBA4E94F861F83C8EC2FBA7C3B66659618
:100430003F3BB4883831A322D432F16545A4BC2DAA
:1004400012D7A7F2C7C776EC4586BDE7355D2A5AB5
:100450000B3EC2D256966045A35FF11DB2DD0BCCB8
:1004600099D683B7A7ABEDB2BB5294628B0ED2D9AB
:10047000004451C0683EA15E5B26BE4E94E937A0A1
:10048000A61C99716BE77E4487B0A2AEAA9FF8556F
:10049000BA10DB466C1180F8829B2FD9456D0B7525
:1004A000245E9759F3368456F5931F2B1F1CD509EC
:1004B0004F36C0469066D7BE5D54B4E91A3A8507F8
:1004C000AB534198241A9846B6B659E041DCF07215
:1004D0001202FE3A7731E7C4C7FF8D52BE0271B4F3
:1004E000826F03D7136E319DBA83C85D5632761082
:1004F0001CBDD5B2B5AE52D32F6C9254469AB3B848
:100500009E2EBFB847A5E34B3B808C132D8216511E
:10051000B5F8FD787F3AA8412B205EE81DBABD8A68
:10052000A05965B99E3A38CF098C8C9F88D30FBEED
:100530003D4C3851500467EDB64CA45AEB9FD33D67
:100540008894034585E12A43280887C964A463D3B6
:10055000860677CB01FC4F2230707FC6FA12B1813C
:10056000EA7FFB0FA744477A04914CE44AD75AAE7E
:10057000002C62F9AC34C3DE08E8F48ED787A24AB7
:10058000DD5478F8EBECD97F01836D4B5B00000004
:10059000BC90988D3BDD227200018604F40A0000B5
:1005A000FE81AFFAB1C467FB020000000004595A93
:1005B000AA00A900010001000100010001000100E2
:1005C00001000100BA03000002000200B6030000AF
:1005D00003000100BB03000004000200A0035C183C
:1005E00005000100BC03000006000200A203000099
:1005F00007000200B803000008000100BD0300006E
:1006000009000200A40337180A000200A6033718E5
:100610000B000200A80337180C000200AA033718C9
:100620000D000200AC0337180E000200AE033718AD
:100630000F000200B003371810000200B203371891
:1006400011000200B403371812000200BE030000BC
:1006500013000200C003000009025B00030100A0B8
:100660003209040000010301010009210101000118
:10067000224000070581030800010904010002036C
:100680000000000921010100012222000705840366
:100690000800010705040308000109040200010322
:1006A00000000009210101000122810007058303E8
:1006B0000800011201100100000008626B69680166
:1006C00000010203011C037600690061006C003A1E
:1006D00000660036003400630032006200330063BD
:1006E0000000001C034200610073006B0065007491
:1006F00000770065006100760065002D0053000062
:10070000001003340032006B006500650062007366
:10071000000000040309040660FF0961A1010962E9
:10072000150026FF00952075088102096315002633
:10073000FF00952075089102C005010902A10185FD
:10074000020901A1000509190129051500250195D6
:1007500005750181029501750381030501093009C1
:10076000311581257F950275088106093815812587
:100770007F950175088106050C0A38021581257FD1
:10078000950175088106C0C005010980A101850396
:1007900019012AB700150126B700950175108100CF
:1007A000C0050C0901A101850419012AA002150147
:1007B00026A002950175108100C005010906A1015E
:1007C000050719E029E71500250195087501810243
:1007D0009501750881030507190029FF150026FFFB
:1007E000009506750881000508190129059505750C
:1007F000019102950175039103C011241FBECFE53D
:10080000D8E0DEBFCDBF04B603FE24C0809116043D
:1008100090911704A0911804B09119048730904B5F
:10082000A740B04BB9F4109216041092170410921E
:1008300018041092190414BE84B7877F84BF0FB6C2
:10084000F894A89581B5886181BD11BC0FBEE0E028
:10085000F8E3099511E0A0E6B0E0E0EDF7E602C0AC
:1008600005900D92AA30B107D9F724E0AAE0B1E0D3
:1008700001C01D92A631B207E1F70E94982F0C9497
:10088000BA330C940000A82FB92F80E090E041E02B
:1008900050EA609530E009C02D91822797958795A1
:1008A00010F084279527305EC8F36F5FA8F3089592
:1008B000EADF8D939D930895CF93CFB7CF93DF93C6
:1008C000C395839BE9F7839B10C0839B0EC0839BDA
:1008D0000CC0839B0AC0839B08C0839B06C0C09149
:1008E000ED03C395C093ED038EC06F93C091EC03ED
:1008F000DD27CC50DC4F2F9365E5839B03C02F9100
:100900006F91E1CF0F931F934F9320E040E15F93EE
:1009100000B30C7003FB27F93F9350E03BE039C074
:100920001C7040642F77012F5F5F1EC0406810B3BA
:100930001C702F7752501FC0406400B32F770C708B
:10094000D1F15F5F00C023C0406210B32F771C70ED
:1009500091F15F5F00C025C00C701027515012F458
:100960005D5F0000115027952C3F10B3C8F61C7036
:100970000127015027952C3FC8F64227499300B321
:100980000C7010274F73115027952C3FA8F64695F1
:10099000469510B31C7079F00127015027952C3F24
:1009A00098F66B5A60F3315000B3B0F600C010E80F
:1009B0001ABF00271CC03B503195C31BD04010E824
:1009C0001ABF0881033C21F10B3411F12091E90396
:1009D0001981110F1213EDCF4A81441F093679F1A5
:1009E0000D3211F0013E29F74F7009F0042F0093EA
:1009F000F2033F915F914F911F910F912F916F9152
:100A0000CAB7C7FD5DCFDF91CF91CFBFCF9118950A
:100A10002091F203222369F31091F003112309F0CE
:100A200049C034300AF448C03093F0032093EB03FC
:100A30001091EC033BE0311B3093EC033DC000917F
:100A4000F0030130BCF50AE54F7049F430917A00AB
:100A500034FD33C000937A00C6ECD3E032C043309B
:100A600059F0443091F03091D10334FD26C0009309
:100A7000D103C2EDD3E025C030910A0434FD1DC07E
:100A800000930A04CBE0D4E01CC03091DD0334FDB8
:100A900014C00093DD03CEEDD3E013C0052710E0B2
:100AA00000C0000002BB1AC0052710E0221F1DC0B5
:100AB00010E021C04AE502C032ED432FC4E1D0E08E
:100AC00032E011B31C60939A02B311BB5CE020E8E2
:100AD00065E320FF052702BB279517951C3FF0F61D
:100AE0006695B8F7B1F720FF052702BB2795179544
:100AF0001C3FD0F62795179517FF052700001C3FD0
:100B000002BBB0F629913A9519F7037F1091F103D2
:100B1000110FC651D04002BB11F01093E90310E849
:100B20001ABF086011B3137F402F437F54E05A95DA
:100B3000F1F702BB11BB42BB5CCFCF93DF939C01AB
:100B40003A9521153F4168F5EC01CC27D170DC01C5
:100B5000AA27B270AC01442754709C012227387038
:100B600094FF11C080E1CD2B09F480E0AB2B09F09C
:100B70008062452B09F08064232B09F08068FB011B
:100B8000DF91CF91099481E0CD2B09F480E0AB2B6C
:100B900009F08260452B09F08460232B81F3886083
:100BA000EECFDF91CF910895CF93DF93EC01805E7C
:100BB0009109089720F06BE173E2209711F46DE042
:100BC00073E2CE010E949D058C2FDF91CF910C9492
:100BD0000222CF93DF93EC010E949422CE01805E2B
:100BE0009109089720F062E273E2209711F464E122
:100BF00073E2CE01DF91CF910C949D0581E00895C1
:100C000081E008950C94000608950C9404061F9347
:100C1000CF93DF9300D000D00F92CDB7DEB74983DA
:100C20005A836B833091740189819A8131111DC07F
:100C30006623B9F02223A9F00E940F2C182F682FE9
:100C400089819A810E94B42B69817A81812F0F90CA
:100C50000F900F900F900F90DF91CF911F910C94F8
:100C600020170E94E32B182FEFCF0E940F2C6981D1
:100C70007A81EDCFFC01262F408151816281738101
:100C800084810C940706CF93DF93EC0160E00E940F
:100C90003A06BE01DF91CF910C9405068F929F9288
:100CA000AF92BF92CF92DF92EF92FF920F931F937A
:100CB0006B017C0181E090E0A0E0B0E04C015D01BF
:100CC00004C0880C991CAA1CBB1C4A95D2F7B5011C
:100CD000A4014C015D0104C0880C991CAA1CBB1C1A
:100CE0002A95D2F7482959296A297B2904C0880FF7
:100CF000991FAA1FBB1F0A95D2F78A019B010C21DD
:100D00001D212E213F21041715072607370789F4D7
:100D10008C299D29AE29BF29BC01CD011F910F91BE
:100D2000FF90EF90DF90CF90BF90AF909F908F900B
:100D3000089580959095A095B0958C219D21AE2128
:100D4000BF21EACF0F93382F262F6091E1017091D8
:100D5000E2018091E3019091E401042F432F0E946E
:100D60004E060F910C94F22A0E943B0A0C94600AE2
:100D70000E94761E0E94FF1B0E94341F0C94630A7F
:100D800008950E943F230E94C0062FEF84E39CE059
:100D9000215080409040E1F700C000000C94802F6B
:100DA0000F931F93CF93DF93EC018B010E94D41D0F
:100DB000B801CE010E94140F882309F44FC0B80176
:100DC000CE010E940206882309F448C0B801CE0172
:100DD0000E941C1E882309F441C0B801CE010E9464
:100DE0002A1C8823D9F1B801CE010E94971F8823BD
:100DF000A9F1B801CE010E94151A882379F1B80132
:100E0000CE010E94671A882349F1B801CE010E94E1
:100E10008A1B882319F1F8018281882361F0CA3581
:100E2000FDE5DF0721F170F4C115ECE5DE07A1F067
:100E3000CE3DDC45C9F0C801DF91CF911F910F91E4
:100E40000C94FE05CB358DE5D807A1F0CC35DD45FA
:100E500091F70E94ED2CEFCF0E94C10680E0DF9158
:100E6000CF911F910F9108950E94A52EF7CF0E9458
:100E7000F62CE1CF0E94F92CDECFCF93DF93EC016B
:100E800061E00E943A06BE01DF91CF910C94D0063A
:100E9000DF92EF92FF920F931F93CF93DF93E82F90
:100EA000F0E0EC52FD4FD490282F269526952695FC
:100EB00030E0F901EC58FC4F0491877010E0082EE7
:100EC00002C0159507950A94E2F701701127F90100
:100ED000EC59FC4FE490F12C082E02C0F594E794F5
:100EE0000A94E2F791E0E922FF24F901EC5AFC4F61
:100EF000C491D0E002C0D595C7958A95E2F7C1703C
:100F0000DD270115110519F081EE0E940222E1147E
:100F1000F10419F086EE0E9402228D2D0E94012319
:100F2000EF2819F086EE0E949422012B19F081EE31
:100F30000E949422CD2B51F08CE2DF91CF911F9132
:100F40000F91FF90EF90DF900C940123DF91CF91F0
:100F50001F910F91FF90EF90DF900895EF92FF9215
:100F60000F931F93CF93DF93EC01162F0AE0888134
:100F7000882309F454C0813009F04EC08981813042
:100F800099F47E0122E0E20EF11C8A810E94012385
:100F9000E7012196812F815050F3EFE9FFE031976F
:100FA000F1F700C00000F7CF823041F47E0182E00B
:100FB000E80EF11C8A810E940222EACF833041F4BC
:100FC0007E01E2E0EE0EF11C8A810E949422E0CFC5
:100FD000843011F02196DDCF2A81229690E080E0C6
:100FE000AE014F5F5F4F2053330B2A30310548F07D
:100FF000019778F2EFE9FFE03197F1F700C00000C8
:10100000F7CF089FB001099F700D1124C901860F09
:10101000971F2981EA01E4CF0E944807BACFDF91E8
:10102000CF911F910F91FF90EF90089560E00C9485
:10103000AE0708950C94190881E008950C941C08DB
:10104000CF93C82F0E941A088C2FCF910C941E08A2
:1010500090E080E008950895FC01EE0FFF1FEC572B
:10106000FC4F859194910895CF93DF930E942017B0
:101070000E944909EC01811520E5920708F042C061
:10108000811530E4930708F0BDC0883E910528F52E
:10109000803E910508F09DC0883A910588F4853A14
:1010A000910508F08FC08130910509F492C0009736
:1010B00009F48FC0049708F08CC0D0E0C0E089C06C
:1010C0008F3B910508F489C0805C9109C03CD10533
:1010D000A0F30E942C08EC017CC08115904250F4D2
:1010E000C11581E0D80708F074C0C03FD10528F3CE
:1010F000D0656FC0C11590E3D90708F079C0CE0163
:101100009F70E7CF811525E5920758F5811534E5E5
:10111000930708F0A6C0811542E5940750F4C11565
:1011200081E5D80708F471C0DC2FCC27C16FD06AE5
:1011300050C0982F969596959E0123703327C11520
:10114000D34508F07FC0C1E0D0E002C0CC0FDD1F66
:101150002A95E2F720E2929FC0011124C82BD92BD7
:101160006FC0C11589E5D807A8F4C11598E5D9075E
:1011700008F07CC0C11526E5D20708F09ECF8C2F61
:101180000E94E009C82FD0E0DC2FCC27CC27DF71EC
:10119000D0621FC0C1153AE5D30708F46CC0CE0178
:1011A00090568115904208F088CF8D2F8F710E9444
:1011B000E00990E0982F882788279F719C012C2BAD
:1011C000E901E6CFC55AD0E0CF54DF4FC881D0E067
:1011D000D064CE01DF91CF910895C85AD0E0CC0FF2
:1011E000DD1FCD57DF4F0990D881C02DD464F1CFDA
:1011F000CE019927D3FF03C0EC01D86CEACFEC01F4
:10120000D06CE7CFDF70D06AE4CFCE01E4E09695F2
:101210008795EA95E1F783702C2F26952695237004
:1012200090E2299F90011124382B8C2F8370C1E00C
:10123000D0E002C0CC0FDD1F8A95E2F7C22BD32B82
:10124000DC68C7CFC1E0D0E002C0CC0FDD1F2A951B
:10125000E2F730E2939FC0011124C82BD92BDA6842
:10126000B8CFD82FCC27C46FD06AB3CFDC2FCC2710
:10127000C06FD06AAECF8C2F8F700E94E00934E02F
:10128000D695C7953A95E1F7CF709C2FEC01D069C0
:10129000A0CF82389105B1F1B0F48133910509F402
:1012A00075C048F48932910509F469C08A32910504
:1012B00009F473C008958533910509F459C0893341
:1012C000910501F10895833E9105A9F138F4803E1E
:1012D0009105F9F0823E910549F10895863E910508
:1012E000A9F1873E9105C9F1843E910519F5209138
:1012F000B10221FF1FC08091B00284FD14C087EEAF
:1013000090E008952091B0022370A1F080EE90E06B
:1013100008952091B00220FD47C03091B10230FF06
:1013200009C024FF44C090E080E004C02091B002D6
:1013300022FDF7CF08952091B00222FD3BC03091ED
:10134000B10230FDE3CF24FFF5CFEDCF2091B00205
:1013500023FFF0CF24FDE7CFD2CF2091B00223FDB1
:101360002CC03091B10231FFEECF84EE90E00895B1
:101370002091B00225FFDECF89E290E00895209110
:10138000B00225FFD7CF85E390E008952091B00209
:1013900026FFD0CF8AE290E008952091B00226FF88
:1013A000C9CF81E390E0089589E390E0089583EE4A
:1013B00090E0089582EE90E0089586EE90E0089522
:1013C0009091B00292FF06C0282F28712830F9F4BE
:1013D000877F846093FF06C0282F28712831F1F49D
:1013E000877E84612091B10220FF06C0382F3871BA
:1013F0003830D9F4877F816021FF06C0282F2871FB
:101400002831D1F4877E816194FD877E0895282F4D
:1014100024712430F9F68B7F8860DCCF282F24716B
:10142000243101F78B7E8861DDCF382F3171313067
:1014300019F78E7F8860E0CF282F2171213121F7A5
:101440008E7E8861E1CF0C94EE0E0E94F20A8FE34B
:101450009CE90197F1F700C000000E94F20A80E0C9
:101460000E947B0A80FF04C00E94230A0C94802FF4
:1014700008950C94250A0E94002E811102C00E943A
:10148000A52E0E940B2E8093FB010E94132E909399
:10149000B1028093B0020E94390A0E940F2E682F79
:1014A00070E090E080E00E94B62A6091E1017091C6
:1014B000E2018091E3019091E4010C94F02A0895F7
:1014C0000C945F0A08950C94620AE82FF0E0EE0F86
:1014D000FF1FE454FD4F21E030E002C0220F331F14
:1014E0006A95E2F7808191812823392381E0232BBB
:1014F00009F480E00895E82FF0E0EE0FFF1FE454B8
:10150000FD4F808191810895089580EA8A95F1F7D1
:10151000089500C008950C94850AF894E82FE29588
:10152000EF70F0E031A9282F2F7081E090E001C02A
:10153000880F2A95EAF7982F9095932391AB92A95B
:10154000892B82AB789408950F931F93CF93DF93E9
:1015500086E90E948D0A86E30E948D0A87E30E9435
:101560008D0A87E90E948D0A85E90E948D0AC4EBE5
:10157000D0E004EC10E089910E948D0A0C171D0741
:10158000D1F71092B3021092B2021092BD021092E3
:10159000BC021092B5021092B4021092BF021092D7
:1015A000BE021092B7021092B6021092C1021092BF
:1015B000C0021092B9021092B8021092C3021092A7
:1015C000C2021092BB021092BA021092C50210928F
:1015D000C40285E00E94720BDF91CF911F910F91A1
:1015E0000C94B406AF92BF92DF92EF92FF920F93EA
:1015F0001F93CF93DF93C4ECD0E002EB12E0D12C29
:10160000EE24E394F12C8991F894E82FE295EF70A1
:10161000F0E021A98F70A70102C0440F551F8A95E1
:10162000E2F7CA01922F982B91AB92A9809589235A
:1016300082AB78940E94890AE4EBF0E030E020E08D
:10164000B12CA12C4191A42FA295AF70B0E0D096FF
:101650008C9190E04F7002C0959587954A95E2F77E
:1016600080FD3BC0C701022E02C0880F991F0A945B
:10167000E2F7A82AB92A2F5F3F4F2031310511F731
:10168000FE01319780810E948D0A0E948B0AF80129
:1016900080819181A816B90619F1B182A08281E0FA
:1016A000D82A0E5F1F4FF0E0C93CDF0709F0ABCF2F
:1016B0002D2D45E06CEB72E082EB92E00E94730B03
:1016C0000E94B8068D2DDF91CF911F910F91FF9051
:1016D000EF90DF90BF90AF90089590E080E0C9CF89
:1016E00080E0DECF0895FF920F931F93CF93DF9397
:1016F000F82E092F162FD72FC42F222349F081E06F
:1017000080930E010E94352F90930D0180930C0160
:1017100080910E018823A1F080910C0190910D0120
:101720000E944D2F069760F0EF2DF02FA12FBD2FB7
:1017300090E080E0D0E08C179D0744F010920E01FD
:10174000DF91CF911F910F91FF90089521913191D9
:101750002D933D930196EFCF809115016091A803E1
:101760007091A90380FF16C020916500269FC001DB
:10177000279F900D1124BC01769567957695679506
:101780006038710508F043C06115710509F441C066
:10179000862F089581FF0BC020916500269FC00110
:1017A000279F900D1124BC0176956795E9CF82FFA4
:1017B00009C0809165009B01829FB001839F700DDD
:1017C0001124DECF209114012223D1F290916400E4
:1017D00080916500482F50E0291748F0CB01849F85
:1017E000B001859F700D949F700D1124C9CF289F63
:1017F00090011124269FA001279F500D369F500D68
:101800001124692F70E0CA010E941433B9CF8FE709
:10181000089581E008958091150180FF0CC06091CA
:10182000610070E07595679575956795611571050F
:1018300049F1862F089581FF06C06091610070E034
:1018400075956795F3CF6091610082FD0BC0909113
:1018500013019923A1F060916000809161009617B7
:1018600038F0682F70E06038710500F38FE7089555
:10187000899FC001112470E00E942833F4CF61E0F9
:1018800070E0D7CF81E00895803F31F40E94AC0B27
:101890008195809319010895813F19F40E94AC0B42
:1018A000F8CF823F31F40E94AC0B819580931801F0
:1018B0000895833F19F40E94AC0BF8CF893F29F4B7
:1018C0000E940B0C80931A0108958A3F21F40E9414
:1018D0000B0C8195F7CF8B3F31F40E940B0C819557
:1018E00080931B0108958C3F19F40E940B0CF8CFD4
:1018F000843F31F48091170181608093170108952E
:10190000853F21F4809117018260F7CF863F21F453
:10191000809117018460F1CF873F21F480911701F6
:101920008860EBCF883F21F4809117018061E5CF7B
:101930008D3F31F4809115018160809315010895E8
:101940008E3F21F4809115018260F7CF8F3FB9F768
:10195000809115018460F1CF90911801803F59F476
:101960008091190187FF0DC01092190191110BC0D0
:101970001092140108C0813F81F48091190118165A
:101980009CF3992381F080911A0190911B01892B7E
:1019900009F064C0109213010895823F49F497FF43
:1019A000F0CF10921801809119018111ECCFE0CF96
:1019B000833F19F41916ACF3E4CF20911A01893F43
:1019C00029F41216F4F610921A01DBCF8A3F19F4AB
:1019D00027FFD7CFF8CF20911B018B3F29F427FF9A
:1019E000D0CF10921B01CDCF8C3F19F41216CCF33F
:1019F000C8CF843F31F4809117018E7F8093170107
:101A0000C0CF853F21F4809117018D7FF7CF863FAE
:101A100021F4809117018B7FF1CF873F21F48091D2
:101A20001701877FEBCF883F21F4809117018F7ECC
:101A3000E5CF8D3F31F4809115018E7F80931501A4
:101A4000A0CF8E3F21F4809115018D7FF7CF8F3F7E
:101A500009F097CF809115018B7FF0CF08950E94F8
:101A6000352F9C019091180180911901982B21F03C
:101A7000309312012093110190911A0180911B0162
:101A8000982B21F03093100120930F0186E191E013
:101A90000C945520EF92FF920F931F93CF93DF93F7
:101AA00000D000D000D0CDB7DEB786E0E6E1F1E0AF
:101AB000DE01119601900D928A95E1F7E0901801F0
:101AC000F090190100911A0110911B011092180158
:101AD0001092190110921A0110921B018E2D8F295C
:101AE00091F080911101909112010E944D2FAC0153
:101AF00090911401992309F43FC0809166008417E6
:101B0000150608F447C0802F812B91F080910F01BA
:101B1000909110010E944D2FAC01909113019923D7
:101B200009F477C0809162008417150608F47FC01D
:101B30008091180190911901892B90911A01892B9C
:101B400090911B01892B11F00E942F0D86E0FE0160
:101B50003196A6E1B1E001900D928A95E1F72696C3
:101B60000FB6F894DEBF0FBECDBFDF91CF911F91AE
:101B70000F91FF90EF900895209167008AE0289FD1
:101B8000900111242417350708F0BDCF9F5F909373
:101B9000140102C09F3FD1F7EE2059F00E94AC0B18
:101BA0009FEF1E140CF491E0899F802D11248093E7
:101BB0001801FF2059F00E94AC0B9FEF1F140CF48A
:101BC00091E0899F802D1124809319013091180193
:101BD000332309F498CF20911901222309F493CFDC
:101BE00045EB3403C0011124992359F09093180157
:101BF00045EB240390011124332339F0309319016C
:101C000082CF81E080931801F3CF81E080931901A6
:101C10007ACF209163008AE0289F90011124241735
:101C2000350708F085CF9F5F9093130102C09F3F57
:101C3000D1F7002359F00E940B0C9FEF10160CF403
:101C400091E0899F802D112480931A01112359F06E
:101C50000E940B0C9FEF11160CF491E0899F802DD0
:101C6000112480931B0130911A01332309F460CFB2
:101C700020911B01222309F45BCF45EB3403C00103
:101C80001124992359F090931A0145EB24039001F4
:101C90001124332339F030931B014ACF81E0809324
:101CA0001A01F3CF81E080931B0142CF86E0E6E189
:101CB000F1E0DF011D928A95E9F71092140110926C
:101CC0001301109215010895BB98C39ABC98C49A49
:101CD00086B383FB882780F9B49905C090E0892BEF
:101CE00080931E01089592E0FACFE0911E01EE0F5D
:101CF000EE0FE0931E0146B343FB882780F946B3FD
:101D000044FB222720F944FF02C022E030E0822B6E
:101D1000E82BE0931E01EF70F0E0E753FF4F808166
:101D200090911D01890F80931D0120E0843054F0B3
:101D300080911C018F5F80931C0161E080E00E9414
:101D4000271421E080911D018D3F54F480911C01E6
:101D5000815080931C0160E080E00E94271421E004
:101D600080911D01082E000C990B64E070E00E9428
:101D7000283380931D01822F089583E290E00E9412
:101D80007233863C89F484E290E00E94723382359B
:101D900059F485E290E00E94723391E0833B09F0B0
:101DA00090E0892F8170089580E0FCCFCF93C82FF9
:101DB0006FEF811166EC83E290E00E9480336FEF59
:101DC000C11162E584E290E00E9480336FEFC1119F
:101DD00063EB85E290E0CF910C94803380E00E9429
:101DE000D60E0C94FA2D089586E290E00E9472338C
:101DF000682F70E090E080E0089586E290E00C9417
:101E000080330E94F30E0E94BD0E81110CC060E071
:101E100070E0CB010E94FD0E0E94C7150E94911731
:101E200081E00C94D60E0895CF93FB01C281CC23A0
:101E300009F19C0122513F452031310520F58251A5
:101E40000E94A117C0E08C2FCF91089581E00E94DD
:101E5000182B43E062E081E00E94A206F3CF81E00C
:101E60000E94392B43E062E081E00E94A206EBCFA2
:101E700082E0F6CF8031FFE59F0789F381319F45EE
:101E8000B9F3C1E0E0CF8031EFE59E07F9F281318F
:101E90009F45C9F682E0DBCF2FEFFC012083089538
:101EA000EF92FF920F931F93CF93DF93EC01162FC6
:101EB00088812091350130913601232B79F08E3FB6
:101EC00009F05CC08981833020F08550833008F0B0
:101ED00055C0612FCE010E94651250C08B3009F4AD
:101EE000EBC0D0F4843009F489C060F4823009F486
:101EF0004FC008F076C08130F1F1612FCE010E9411
:101F00004C0F3CC0863009F48FC008F482C08A3080
:101F1000A0F78FEF888332C0803109F4A5C000F5A7
:101F20008D3009F488C008F482C08E3009F48BC06B
:101F30008F3019F78091370190913801892BF1F09A
:101F40006B8170E06D317105C8F489819A81AE01B1
:101F50004C5F5F4F9827892798270E9467170EC00C
:101F6000823109F487C008F482C0833109F493C038
:101F70008E3F19F6AECF198289E08A83612FCE0198
:101F8000DF91CF911F910F91FF90EF900C94B130A2
:101F90008981823071F0833079F0813009F0ADCFE2
:101FA0000E94412F0E9442336A837B838C839D83EE
:101FB000E5CF0E94F40EF6CF809137019091380161
:101FC000892BE1F27E0100E0802F0E947B0AF7015D
:101FD000928383830F5FF2E0EF0EF11C0530A1F7CF
:101FE000CDCF8981823009F088CF6A817B818C8155
:101FF0009D810E9442330E94FD0EC0CF4B816A81B9
:1020000089810E94C0149827892798279D838C83F3
:10201000B5CF2C813D813227232732274B816A811E
:1020200089810E94E214AACF0E94C715A7CF0E94FF
:102030003C178983A3CF0E943E17982789279827AA
:102040009A8389839BCF6B8170E06D31710508F0B5
:1020500095CF89819A81AE014C5F5F4F9827892780
:1020600098270E9441178ACF0E94911787CF0E941C
:10207000AD14DFCF6B8170E06D31710508F07ECF5C
:1020800089819A81AE014C5F5F4F982789279827F5
:102090000E94681673CF6B8170E06D31710508F096
:1020A0006DCF89819A81AE014C5F5F4F9827892758
:1020B00098270E948E1662CF809137019091380147
:1020C000892B09F45BCFCE010E94B1302FEF81EE56
:1020D00094E0215080409040E1F700C000000E9451
:1020E000802F4CCF8F929F92AF92BF92CF92DF9270
:1020F000EF92FF920F931F93CF93DF93CDB7DEB78D
:102100002A970FB6F894DEBF0FBECDBF06EC12E0E3
:10211000F12CE12C8CE9C82E81E1D82E96ECA92E69
:1021200091E1B92E27EF822E20E1922EF801D18283
:10213000C082B382A28295828482F58AE48ABE013B
:102140006F5F7F4F8E2D0E947715892B29F489852B
:102150009A85F801938B828BFFEFEF1AFF0A0A5ED4
:102160001F4F88E0E816F10409F72A960FB6F89495
:10217000DEBF0FBECDBFDF91CF911F910F91FF90BA
:10218000EF90DF90CF90BF90AF909F908F90089589
:10219000CF93DF9300D000D00F92CDB7DEB79093EE
:1021A0009F0380939E03811520E2920748F40F90CD
:1021B0000F900F900F900F90DF91CF910C94E90545
:1021C0008EEF89838A831B820E94352F8160782F4E
:1021D0009D838C8349815A816B818D810F900F90F3
:1021E0000F900F900F90DF91CF910C94A6210F9339
:1021F0001F93CF93DF938C01EB016FE171E08C2F84
:102200000E947715892BA1F48091BE039091BF03A2
:10221000019798F4DD27C75DDE4F8881F8011082B1
:102220001882833041F180F4813091F08230B9F02E
:10223000DF91CF911F910F910895EFE9FFE0319762
:10224000F1F700C00000E4CF8430D1F0853081F791
:1022500080911F0190912001009751F306C0809159
:10226000210190912201009799F3DF91CF911F9165
:102270000F910C94C8108091230190912401F3CF09
:102280008091250190912601009779F720911F01F7
:102290003091200180912101909122012115310579
:1022A000D9F2009711F7C901E0CFCF93DF9300D0A7
:1022B00000D00F92CDB7DEB790939F0380939E031B
:1022C000811520E2920748F40F900F900F900F9025
:1022D0000F90DF91CF910C94D4058EEF89838A8380
:1022E00081E08B830E94352F8160782F9D838C83C2
:1022F00049815A816B818D810F900F900F900F90C3
:102300000F90DF91CF910C94A621CF93DF93EC0136
:102310000E9455118091BE039091BF03019728F44C
:10232000CE01DF91CF910C94C810EFE9FFE0319717
:10233000F1F700C00000F2CF0F931F93CF93DF930C
:102340008C01862F6FE171E00E947715892BC9F40B
:10235000C0911F01D0912001209799F0F801808150
:10236000833069F4CE010E948511CE010E9485114F
:10237000CE01DF91CF911F910F910C948511843084
:10238000B8F7DF91CF911F910F9108950F931F938D
:10239000CF93DF938C01EB016FE171E08C2F0E94F2
:1023A0007715892B09F064C0FE01FF27D8018C91B5
:1023B000E75DFE4F8130D9F419969C9119979923C6
:1023C00011F080830CC01A969C919923D1F382E07E
:1023D000808380912101909122010097D9F480910E
:1023E0001F0190912001009709F442C013C0823070
:1023F000E9F519968C91199781112DC01A968C9137
:1024000081110EC083E0808380912301909124018B
:10241000009719F1DF91CF911F910F910C945511F5
:1024200084E080838091250190912601009791F7A7
:1024300080911F01909120010097F9F00E94851171
:102440008091210190912201009721F780911F0135
:1024500090912001DFCF85E0808380911F019091D2
:102460002001009729F00E948511F0CF86E080833B
:10247000DF91CF911F910F9108958091210190914B
:102480002201B1CF0E947210E6E7F3E011821082C0
:1024900081E090E09683858382E090E09387828755
:1024A00083E090E0908B878784E090E0958B848B2D
:1024B00085E090E0928F818F86E090E0978F868F05
:1024C00087E090E094A383A30895CF92DF92FF92D8
:1024D0000F931F93CF93DF93CDB7DEB72A970FB635
:1024E000F894DEBF0FBECDBF8C01603269F5DC0110
:1024F0001196EC911197EE3038F5F0E0E454FC4C75
:102500000C943C3388E0EBE7F0E0DE01119601909B
:102510000D928A95E1F780E2F80111928A95E9F728
:1025200084E0D8018C9311961C92119712961C92FC
:10253000129713961C92139788E0FE013196149619
:1025400001900D928A95E1F72A960FB6F894DEBFB6
:102550000FBECDBFDF91CF911F910F91FF90DF9004
:10256000CF9008958CE2F801808382E0818312820B
:102570001382EACF13968C911397682F70E0762F11
:10258000662712968C91860F972F911D092E000CAD
:10259000AA0BBB0B45E0880F991FAA1FBB1F4A95CA
:1025A000D1F7AC01BD01405E5F4F6F4F7F4F4817C1
:1025B00059076A077B0740F28C32E2E09E07A105CB
:1025C000B10510F64D32F2E05F076105710520F0AC
:1025D0004CE252E060E070E0481B590BBC016C57C4
:1025E0007C4FC8010E944933AFCF1296FC901297DE
:1025F0001396DC9040E06D2D8F2D0E940A159827D0
:1026000089279827F8019183808341E06D2D8F2DD4
:102610000E940A15982789279827D80113969C931A
:102620008E93129791CFFC01258136813227232783
:1026300032274481638182810E94351585CF40E233
:1026400050E06FEF70E00E945B3380913701D8015A
:102650008C938091350111968C93119782E012969C
:102660008C93129791E013969C93139714968C93E6
:1026700014978DE015968C9367CF81E090E090934E
:1026800036018093350182E390E09093340180938A
:1026900033010E94352F909332018093310154CF42
:1026A0008091350190913601892B91F161E082E0B2
:1026B0000E94650AD82E6DE082E00E94650AF82E1D
:1026C00080913101909132010E944D2F8536910504
:1026D00050F1DD2041F1FF2031F10E94352F909320
:1026E000320180933101809133019091340101973F
:1026F0009093340180933301892B51F41092360169
:102700001092350181E090E0909338018093370179
:1027100080913701F8018083809135018183809118
:102720003301828311CF82E390E090933401809350
:102730003301EECF109238011092370105CF40E2FD
:1027400050E0BC0112968D919C910E94E418FCCE41
:10275000BC016F5F7F4F4FE150E0FC0182819381AC
:102760000E941619D8018C93EFCEBC016C5F7F4F8D
:102770004CE150E0FC01828193810E943E19F2CF2E
:102780000E94A318E1CEFC0182818230E1F1E0F4E5
:10279000882389F1813009F0D7CE13968C912AE0F5
:1027A000F22EFE0131966F01DF01EF2D1D92EA95A9
:1027B000E9F7B6010E947715D8018D93F6010190D3
:1027C0000D92FA94E1F7C0CE833089F1843009F09C
:1027D000BBCE13968C919AE03496DE01119601904F
:1027E0000D929A95E1F7BE016F5F7F4F0E94B3157E
:1027F000F8018083A9CE80E21D928A95E9F788E0EE
:1028000080838183A1CE13968C919AE03496DE0169
:10281000119601900D929A95E1F7BE016F5F7F4F7F
:102820000E948B15F80180830E9472108DCE139642
:102830008C919AE0F92EFE0131966F01DF01EF2DA8
:102840001D92EA95E9F7B6010E949F15B5CFAF92A8
:10285000BF92CF92DF92EF92FF920F931F93CF938D
:10286000DF93B82EA62EC090E101D090E201E09057
:10287000E301F090E4018091E5019091E601A091DF
:10288000E701B091E801C82AD92AEA2AFB2ACFE158
:10289000D0E0D701C6010C2E04C0B695A795979538
:1028A00087950A94D2F780FF20C04A2D6B2D8C2F7C
:1028B0000E940A158C0181309105B9F00E945511D2
:1028C0008FE39CE90197F1F700C00000C8010E9466
:1028D000C81081E0DF91CF911F910F91FF90EF9091
:1028E000DF90CF90BF90AF900895219790F64A2D3A
:1028F0006B2D80E00E940A15EC010E9455118FE3B8
:102900009CE90197F1F700C00000CE01E0CF1F93D2
:10291000CF93DF93CDB7DEB72A970FB6F894DEBF1B
:102920000FBECDBF162FBE016F5F7F4F0E949F1558
:10293000892B31F489859A85112361F00E94551104
:102940002A960FB6F894DEBF0FBECDBFDF91CF91B0
:102950001F9108950E94C810F3CF84E0089590E27B
:10296000699FB001112450E0440F551F640F751F7B
:1029700090EA899F600D711D1124CB0187960895FF
:102980000F931F93CF93DF938430C8F46530B8F46E
:102990004031A8F40E94AF148C010E947233C82FFA
:1029A000D0E0DC2FCC27C80101960E9472339E0133
:1029B000282BC901DF91CF911F910F91089590E0CD
:1029C00080E0F8CF0F931F93CF93DF93E90184301A
:1029D000E0F46530D0F44031C0F421153C4531F4C9
:1029E0002091370130913801232B79F00E94AF14E8
:1029F0008C016D2F0E9480336C2FC8010196DF91EE
:102A0000CF911F910F910C948033DF91CF911F9143
:102A10000F9108950F931F93CF93DF93843010F598
:102A2000611120C04230F0F424E0829F8001112423
:102A300050E0440F551F040F151F09551D4FC801C5
:102A40000E947233C82FD0E0DC2FCC27C80101963A
:102A50000E9472339E01282BC901DF91CF911F91F3
:102A60000F91089590E080E0F8CF0F931F93CF93DC
:102A7000DF938901843028F5611123C0423008F5C5
:102A800021153C4531F42091370130913801232B39
:102A9000C1F094E0899FE001112450E0440F551FDC
:102AA000C40FD51FC955DD4F612FCE010E94803361
:102AB000602FCE010196DF91CF911F910F910C9461
:102AC0008033DF91CF911F910F910895823291054C
:102AD00020F489549D4F0C94723380E00895823223
:102AE000910520F489549D4F0C94803308959B01E7
:102AF000883070F49AE0899FB001112467527D4FAD
:102B00004AE050E0C9010E94623390E080E00895FD
:102B10008FEF9FEF08959B01883070F49AE0899FB2
:102B2000B001112467527D4F4AE050E0C9010E9474
:102B3000A33390E080E008958FEF9FEF08959B010D
:102B4000883070F49AE0899FB0011124675D7C4F52
:102B50004AE050E0C9010E94623390E080E00895AD
:102B60008FEF9FEF08959B01883070F49AE0899F62
:102B7000B0011124675D7C4F4AE050E0C9010E941A
:102B8000A33390E080E008958FEF9FEF08955F9268
:102B90006F927F928F929F92AF92BF92CF92DF926D
:102BA000EF92FF920F931F93CF93DF93CDB7DEB7D2
:102BB00064970FB6F894DEBF0FBECDBFE09037012B
:102BC000F090380181E090E09093380180933701D4
:102BD00080EBC82E85E0D82E94E5A92E90E0B92E82
:102BE00010E0450100E015C0F30125913491452D19
:102BF000602F812F0E94E21482E0680E711C5394B2
:102C000090E15912F1CFE0E28E0E911C0F5F05307A
:102C100019F03401512CE8CFF6012591349140E0B0
:102C200060E0812F0E943515F6013296259134918E
:102C300041E060E0812F0E943515F4E0CF0ED11CF9
:102C40001F5F80EAA80EB11C143009F0CACF0E94A1
:102C5000A3181C861B861E861D86188A1F861A8A44
:102C6000198A88EC90E09C8B8B8B10E0BE01655F2D
:102C70007F4F812F0E948B151F5F1830B9F7FE011F
:102C800031966F018AE011928A95E9F710E0B6015A
:102C9000812F0E94B3151F5F1830C9F7F0923801D9
:102CA000E092370164960FB6F894DEBF0FBECDBF39
:102CB000DF91CF911F910F91FF90EF90DF90CF9018
:102CC000BF90AF909F908F907F906F905F9008958E
:102CD000EF92FF920F931F93CF93DF93EC018A0142
:102CE0007C01E60EF71ECE018796CE15DF0539F47E
:102CF000DF91CF911F910F91FF90EF900895C03811
:102D000022E0D20740F40E947233F80180830F5F03
:102D10001F4F2196E8CFF8011082F9CF4F925F92B2
:102D20006F927F928F929F92AF92BF92CF92DF92DB
:102D3000EF92FF920F931F93CF93DF93EC017B01F0
:102D40008A0180389240D8F480E892E08C1B9D0B79
:102D500086179707A0F03E0137E2630E711C809141
:102D60003701909138012E01460E571E892BC1F074
:102D70007E01C7018796E414F50409F050C0DF9185
:102D8000CF911F910F91FF90EF90DF90CF90BF9068
:102D9000AF909F908F907F906F905F904F9008952D
:102DA0006E0181E0C822DD24C0FF0FC0CE018696EF
:102DB0000E947233F801908189279827892781150D
:102DC0009C4519F48FEFF8018083570140FE13C032
:102DD000F1E0AF1AB10848018A0C9B1CC3018E0DAB
:102DE0009F1D0E947233F401908181159C4519F456
:102DF0008FEFF4018083F801EC0DFD1D2FEFCA1455
:102E0000DB0408F0B5CF9081818181159C4511F4D8
:102E10002083218382E0C80ED11C3296F0CFE0E8F7
:102E2000EE16E2E0FE0640F4F701EC1BFD0BE00FAE
:102E3000F11F60810E948033FFEFEF1AFF0A99CFE4
:102E4000462F2091350130913601232B91F47E3F9E
:102E500039F46E3F71F480919E0390919F03089521
:102E6000843038F4753028F4603118F4672F0C94EE
:102E7000C01490E080E0089580E1089587E890E034
:102E80000895EF92FF920F931F93CF93DF93EC017E
:102E90008A017C01E60EF71ECE0187589C4FCE15A5
:102EA000DF0539F4DF91CF911F910F91FF90EF90E3
:102EB0000895C738D10540F40E947233F801808329
:102EC0000F5F1F4F2196E8CFF8011082F9CFCF9204
:102ED000DF92EF92FF920F931F93CF93DF937C01CA
:102EE0006A018C01060F171FEC01CE0187589C4F19
:102EF000C017D10749F4DF91CF911F910F91FF9037
:102F0000EF90DF90CF900895C738D10540F4FE01CF
:102F1000EE19FF09EC0DFD1D60810E9480332196A2
:102F2000E4CFCF93DF93C9E7D3E060E0CE010E9406
:102F300080332196C11584E0D807B9F7DF91CF918E
:102F40000895BF92CF92DF92EF92FF920F931F935B
:102F5000CF93DF9300D000D0CDB7DEB7F82E2FE0AF
:102F6000281740F08FEF93E00E94723309E713E0D7
:102F70008823D1F00F900F900F900F90DF91CF9199
:102F80001F910F91FF90EF90DF90CF90BF90089529
:102F9000011544E0140771F3C8010E9472338111D6
:102FA00001C0FA940F5F1F4FF110F2CF19821A82FD
:102FB0001B821C82BB24BA9478015FEFE51AF50AE4
:102FC000C8010E94723389831A82882399F2813062
:102FD00009F047C0680182E0C80ED11CC7010E94F9
:102FE0007233E82E8A83882329F2C6010E94723345
:102FF000F82E8FEF8E0D833068F46801E3E0CE0E7B
:10300000D11CFB82FF2021F0CE0101960E94160800
:103010008601D2CFF4E0EF12FBCF680124E0C20EAC
:10302000D11CC80103960E947233FF2009F4A2CF7D
:10303000882309F49FCF8150990BB89E9001B99EC7
:10304000300D11244F2D4150550BCA01820F931F93
:103050000197F0F2EFE9FFE03197F1F700C00000CF
:10306000F7CFCE0101960E9416086701D1CFE0EAA2
:10307000F3E0848195812AE030E0B9010E941433A5
:1030800060936700868180936600828580936500E7
:1030900084858093640086859785B9010E941433E6
:1030A00060936300808980936200828980936100CD
:1030B00084898093600008958091A0039091A1037A
:1030C0000C94691F0F931F93CF93DF9300EA13E0D3
:1030D000D0E0C0E0CE010E946615F80161918F0139
:1030E000861719F0CE010E946F152196C232D105C4
:1030F00089F7DF91CF911F910F9108950F931F933F
:10310000CF93DF9300EA13E0D0E0C0E0CE010E944D
:103110006615F80181938F012196C232D105B1F76E
:10312000C6ECD5E0FE0185919491009711F0FC0169
:1031300009952896F6E0CE35DF07A1F7DF91CF910C
:103140001F910F910895E0EAF3E0128E138E8FEA3B
:1031500090E09183808385E0848F88E893E1938376
:1031600082832CE231E03583248382E390E09783ED
:10317000868385E090E0918780878AE090E093875E
:10318000828744E150E0558744873787268724E6C5
:1031900030E0318B208B28E030E0338B228B28E22B
:1031A00030E0358B248B28EC30E0378B268B318F49
:1031B000208F158E978F868F80E590E091A380A356
:1031C0000E9462180C947E18EF92FF920F931F9347
:1031D000CF93DF937C01EB018A016FEF70E0CE01AA
:1031E0000E945B3320EC35E0A8E5B6E090E080E09B
:1031F000AC014E5F5F4F0417150788F0F901659128
:103200007491E616F70630F48C0F9D1FFC01718354
:103210006083CA01285F3F4FA217B30749F7DF91C8
:10322000CF911F910F91FF90EF900895DC01CB019A
:1032300020EC35E0F90165917491A617B70749F0C4
:10324000285F3F4F66E028353607A1F78FEF9FEFE5
:103250000895B9016E5F7F4FFB01A591B4914A17A4
:103260005B07A0F3FB0145915491F90134966591F8
:1032700074910E94523390E080E00895CF93DF93E1
:10328000C0ECD5E0FE01259134918217930741F0FF
:10329000289626E0C835D207A9F78FEF9FEF1DC00B
:1032A000CE010296FC012591349142175307A8F3F1
:1032B000FC0145915491FE013496859194910E94B0
:1032C00052330E946218FE013696859194910097C0
:1032D00011F0FC01099590E080E0DF91CF91089515
:1032E0008091B8039091B90308958091BD038170D6
:1032F00008958091BD038695817008958091BD03E6
:1033000082FB882780F908958091BD0383FB88277D
:1033100080F90895AF92BF92CF92DF92EF92FF9221
:103320000F931F93CF93DF937C015B01C42FD22FA8
:10333000FC0182818823F9F040933B010E94352FE4
:1033400090933A018093390180E28C0F883008F025
:1033500061C0C77081E001C0880FCA95EAF7DF91AC
:10336000CF911F910F91FF90EF90DF90CF90BF9082
:10337000AF900C940D2310913B01141340C0809129
:10338000390190913A010E944D2F6C01B701C5019E
:103390000E947019C816D90690F5C0E2CD0F1D170E
:1033A000B9F080E2810F883040F4177081E001C0ED
:1033B000880F1A95EAF70E941423C83048F481E078
:1033C0009D2F977001C0880F9A95EAF70E940D23F0
:1033D000802F0E940123C830E8F4D77081E001C03B
:1033E000880FDA95EAF7DF91CF911F910F91FF9047
:1033F000EF90DF90CF90BF90AF900C94142380E2B9
:103400008C0F883038F4C77081E001C0880FCA95EE
:10341000EAF7E9CFDF91CF911F910F91FF90EF90E5
:10342000DF90CF90BF90AF9008950F939C01CB0198
:10343000233F4CE5340759F1A8F4283DFCE53F074C
:1034400001F1293D4CE53407D1F1273D3C4591F48C
:1034500006E221EE41EE67ED7CE50E948A1980E0EC
:103460000F910895253FFCE53F07E9F0B0F0263FB6
:103470003C45F9F0FC018281882339F110923B012F
:10348000EFCF07E225EE45EE68ED7CE5E6CF06E2FC
:1034900021EE40EE63EF7CE5E0CF07E225EE44EE5F
:1034A00064EF7CE5DACF06E221EE42EE65EF7CE5E3
:1034B000D4CF07E225EE46EE66EF7CE5CECF08E2FC
:1034C00021E045EE69ED7CE5C8CF81E0C9CFCF931F
:1034D000DF93EC01FB018281882309F419C1C2301A
:1034E000FCE5DF07C0F1C6319CE5D90730F09E014D
:1034F0002A5F3C452930310570F50E94132E9093C8
:10350000B1028093B002C031ECE5DE0709F4CFC010
:1035100008F05BC0C8308CE5D80709F4B6C088F560
:10352000C430ECE5DE0709F4A8C0C0F4C2308CE575
:10353000D80709F49CC08091B0028260C330DC459A
:1035400009F498C08091B0029091B1020E94212E9E
:103550000E943F2380E0DF91CF9108958091B002D7
:103560008061C630ECE5DE0709F484C08091B002CA
:103570008860C730DC4508F47DC08091B00280626D
:1035800079C0CC308CE5D80709F489C070F48091FB
:10359000B0028C60CA30ECE5DE0709F46BC008F4B9
:1035A00078C08091B0028E7F65C0CE308CE5D807A0
:1035B00009F479C08091B0028B7FCF30DC4508F4EC
:1035C00059C08091B0028F7E55C0CB3FECE5DE073D
:1035D00009F457C030F5C3318CE5D80709F46FC042
:1035E00078F4C131ECE5DE0709F465C0C231DC4591
:1035F00009F0A8CF0E943F238091B0028F773AC094
:10360000C5318CE5D80709F462C008F476C0809112
:10361000B1028160CA3FDC4509F094CF8093B102CA
:1036200091CFCF3FFCE5DF0709F44DC088F48091CE
:10363000B1028D7FCD3F9CE5D90781F38091B10226
:103640008E7FCE3FDC4550F38091B1028360E6CFA0
:10365000C130FDE5DF0709F459C008F444C080E03B
:10366000C230DD4509F06ECF0E94A72E6BCF80914E
:10367000B00281608093B00265CF8091B002846017
:10368000F9CF8091B1028260C9CF8091B00280648D
:10369000F1CF0E943F238091B0028068EBCF8091F0
:1036A000B0028D7FE7CF8091B002877FE3CF80911A
:1036B000B0028F7DDFCF8091B0028F7BDBCF809116
:1036C000B002837FD7CF8091B1028C7FA7CF80914A
:1036D000B00282FB992790F921E0922790FB82F9B2
:1036E00090FB83F9C7CF8091B102982F909591708C
:1036F0008E7F892B90FB81F991CF0E943F2390917F
:10370000B002892F97FB87F98058B4CF81E0ACCF06
:1037100081E021CFCF93DF93EB0186319C4509F007
:103720003BC00E94FC2C982F9A7A2091BA0320FF6C
:1037300004C0382F347409F090E021FF04C0382F02
:10374000317109F090E022FF04C0382F387809F079
:1037500090E023FF03C0827209F090E08A81882301
:1037600089F081E0911101C080E080933C0189E201
:10377000911185E30E947F2C0E94742D80E0DF91DF
:10378000CF91089580913C01811104C089E20E948B
:10379000862CF2CF85E3FBCF81E0F1CFE6E7F3E0C3
:1037A00083E0EE39F80739F488E090E090934E0119
:1037B00080934D010895848187FF14823596F0CF60
:1037C000CF9390914B01992321F0811116C0109253
:1037D0004B01CF910895EC2FF0E0EE0FFF1FE35C5B
:1037E000FE4F808191810E94D4050E94742DCF5F8D
:1037F00080914B01C81778F3EACFC0E0F9CF8091F0
:1038000068008823A1F080914F01909150010097AA
:1038100071F00E944D2F2091B6033091B703281705
:10382000390728F481E00E94E01B0C94CE1B089518
:10383000109268001092500110924F0181E00C9498
:10384000E01B8091680081110C94181C81E080932A
:10385000680008952F923F924F925F926F927F92ED
:103860008F929F92AF92BF92CF92DF92EF92FF9290
:103870000F931F93CF93DF93CDB7DEB72A970FB681
:10388000F894DEBF0FBECDBF7C016B01873F4CE5D6
:10389000940709F5FB011281112391F181E08093D6
:1038A0006800812F2A960FB6F894DEBF0FBECDBFF9
:1038B000DF91CF911F910F91FF90EF90DF90CF900C
:1038C000BF90AF909F908F907F906F905F904F9040
:1038D0003F902F900895883FFCE59F0739F4FB0146
:1038E0001281112369F00E94181CDBCF893F9C458F
:1038F00039F4FB011281112319F00E94211CD1CF50
:103900004090680011E0442061F210924E01109244
:103910004D0110E095E0392E88248394912C2224C7
:103920002394A0904D01B0904E01F8E0AF16B10481
:1039300080F080914C01882309F4B2C00E94352F99
:103940009093500180934F0110924C0181E0182711
:10395000A8CF3A9CF0013B9CF00D1124EA58FC4F93
:10396000BE016F5F7F4F80810E949F15892B61F0A0
:1039700000E0102B80914D0190914E0101969093A3
:103980004E0180934D01CDCFFE01319690E080E055
:1039900055245A94282F419151914115510589F18F
:1039A000E416F50609F4582E01968430910591F736
:1039B00024E0FFEF5F16E1F2F60102813A9CC001BC
:1039C0003B9C900D1124AC014A585C4F3A01FA011E
:1039D0008481A40102C0440F551F2A95E2F79A0181
:1039E00021503109002349F1A40101C0440F5A9428
:1039F000EAF7842B84838F778217130631F0042D26
:103A0000B8CF823008F4B4CFD4CF80E00E94E01B5E
:103A1000F30184818068848382819381009729F0F7
:103A20000E94D40520924C01A4CF61E080914D0109
:103A300090914E010E948714F5CF8F77821713065D
:103A400031F482819381009719F10E94E9053A9C33
:103A5000F0013B9CF00D1124EA58FC4F4481242FC7
:103A600030E0052C02C0359527950A94E2F720FF37
:103A70007FCFC40101C0880F5A94EAF78095842350
:103A8000848387FF75CF803809F0B9CF1482B7CF10
:103A900060E080914D0190914E010E948714D7CF34
:103AA000111106C081E00E94E01B0E94CE1B4ECF88
:103AB000F6018281882309F449CF0E94352F909323
:103AC000500180934F01E0914B01E73008F03ECF69
:103AD00081E08E0F80934B01F0E0EE0FFF1FE35C5F
:103AE000FE4FF182E08232CFCF93DF93EC0181E091
:103AF000898B8F810E94FF2C88850E94122D0E9445
:103B0000742DEA81FB81309739F06C897D89CE0173
:103B10000696DF91CF910994DF91CF910895EF92AE
:103B2000FF920F931F93CF93DF93EC018A8581114E
:103B300034C0EB80FC8087E5F81A26E12E9DC00199
:103B40002F9D900D1124DC01AA53BD4F1496ED91C9
:103B5000FC911597309731F054966D917C91845378
:103B60009D4F099586E18E9D80018F9D100D11243A
:103B70000A531D4FF80187810E94052DF8018085A9
:103B80000E94182D0E94742D188219861B861E8291
:103B90001D821092520110925101DF91CF911F911D
:103BA0000F91FF90EF900895DF92EF92FF920F93A5
:103BB0001F93CF93DF937C01FB018281882391F0D7
:103BC000809169008F3F71F0C6ECD2E010E000E018
:103BD000DD24D39480916900082E000C990B801786
:103BE000910744F4DF91CF911F910F91FF90EF90D7
:103BF000DF9008958E818823D9F089859A858E1566
:103C00009F0539F480915101909152018E159F05C5
:103C100079F0DF86FC86EB868989811103C0CE01AD
:103C20000E94741DCE0106960E948F1D0E941F2DBA
:103C30000F5F1F4F6696CECFEF92FF920F931F93A9
:103C4000CF93DF937C0197558F3F910509F0D8F50D
:103C500020916900022E000C330B2817390714F449
:103C600080936900FB01228136E1389F8001399FF2
:103C7000100D1124E801CA53DD4F288B92818E81EB
:103C8000992349F1FA86E9868F5F8E830E94352F4A
:103C90009E878D870E94322D8F830E94FC2C8887FF
:103CA0000E940F2D9885892B8887E881F9813097AC
:103CB00031F06C897D89C80184539D4F0995F0923C
:103CC0005201E092510181E0DF91CF911F910F915C
:103CD000FF90EF9008958823B1F38989882399F3A1
:103CE000C80184539D4F0E948F1DEDCFCF92DF926C
:103CF000EF92FF920F931F93CF93DF938091690010
:103D000010E006E18F3FF1F5DF91CF911F910F9108
:103D1000FF90EF90DF90CF9008950E9DF0010F9DE2
:103D2000F00D1124EA53FD4FC288D388C114D10489
:103D300039F470E060E0818592850E9470196C0111
:103D40000E9DE0010F9DD00D1124CA53DD4F8E81D1
:103D50008823B9F08D859E850E944D2FC816D906FF
:103D600080F4109F700111248989811105C0C70159
:103D70008A539D4F0E94741DC70184539D4F0E941A
:103D80008F1D1F5FE12EF12C80916900082E000C21
:103D9000990B8E159F050CF6B7CFFF920F931F93CB
:103DA000CF93DF938C01EB01F42E80916A0082FFA8
:103DB0004AC08B7F80936A00809155019091560193
:103DC0009B01281B390BC90120916B0030916C00BD
:103DD00082179307B8F4809153010E9402228091C8
:103DE0006A008D7F80936A008091BE039091BF032B
:103DF000019710F5809153010E94942282E00E9465
:103E0000182D2BC082E00E94122D809153010E9438
:103E1000022280916A00826080936A008091BB03D5
:103E200085FFE2CF86FDE0CFFF20F1F2DF91CF9159
:103E30001F910F91FF900895EFE9FFE03197F1F79F
:103E400000C00000D5CF802F0E94942280915301A2
:103E5000909154018017910789F20E94742DD0939C
:103E60005601C0935501E2CF8091BB0380FF1DC076
:103E700080916A0082FF19C00E94352F2091550160
:103E800030915601AC01421B530B9A0140916B00DB
:103E900050916C002417350740F041E0BC0180913F
:103EA0005301909154010C94CD1E089590916A0095
:103EB000892F8E7F90FF816080936A0082E00C944E
:103EC000182D80916A008E7F80936A0082E00C94A6
:103ED000182D90936C0080936B00089588329105A3
:103EE00038F48E319105E8F40497A0F480E0089549
:103EF0008933910558F48D32910510F48B97B1F701
:103F00008091BB0382FB882780F908C08436910525
:103F1000B9F3ECCF8091BB038295817091E0892742
:103F200008958091BB0383FB882780F9F7CFCF9258
:103F3000DF92EF92FF920F931F93CF938C016B014F
:103F40008091BB0380FD0AC0C1E08C2FCF911F91EF
:103F50000F91FF90EF90DF90CF9008950E94352F42
:103F60007C01F601C281CC2329F180916A0082FF95
:103F700006C040E0B70190E080E00E94CD1E82E0E4
:103F80000E94182D0B31FCE51F0759F00C314CE550
:103F9000140769F00A315CE5150761F40E94561FA9
:103FA000D4CF80916A00816080936A00CECF0E9456
:103FB000611FCBCFB601C8010E946E1F882321F27A
:103FC000F601C281CC2309F44EC080916A0080FFC3
:103FD000BBCF8091BB0381FF15C08091BB0385FDE2
:103FE00016C01093540100935301F0925601E092D1
:103FF000550180916A00846080936A0082E00E948B
:10400000DC2D2FC00E94FC2C882339F39DCF2091FA
:10401000550130915601A701421B530B9A0186FDB1
:1040200004C080916A0081FDDCCF283C3105C8F6D0
:1040300080915301909154010817190791F68091CE
:104040006A0081FBCC27C0F981FD04C0802F0E944B
:1040500002227BCF82E00E94122D809153010E94A8
:104060000222C0E072CF40E0B701C8010E94CD1E1D
:104070006CCF90935C0180935B010895E0915B01AC
:10408000F0915C01309721F00190F081E02D0994CE
:1040900080E00895E0915B01F0915C01309721F0A0
:1040A0000280F381E02D09940895E0915B01F09185
:1040B0005C01309739F022E0DC012C930480F5811B
:1040C000E02D099408952091590130915A01281743
:1040D000390771F090935A0180935901E0915B0187
:1040E000F0915C01309721F00680F781E02D099472
:1040F000089520915701309158012817390771F020
:104100009093580180935701E0915B01F0915C011D
:10411000309721F00084F185E02D099408950E94E4
:10412000412F60937001709371018093720190939D
:10413000730160936C0170936D0180936E01909395
:104140006F0108950E94412F609370017093710177
:104150008093720190937301609368017093690179
:1041600080936A0190936B01089584B7806884BF3F
:1041700084B7806884BF0895089508950C94BC2086
:1041800008950C94C0200E94B52088EF9DE20E9403
:10419000932F0E9442120E947E180E94BD200C9410
:1041A000BE2081E008950C94D120089508950E94C6
:1041B000D5200C94D6200E942E2F0E94A40A0E9483
:1041C000010F0E94640E0C94C1208F929F92AF92B7
:1041D000BF92CF92DF92EF92FF920F931F93CF93F4
:1041E000DF93CDB7DEB72A970FB6F894DEBF0FBEC8
:1041F000CDBF0E94F20A81110E948F205EE5852EBC
:1042000051E0952E10E000E0A02E802F0E947B0A46
:104210006C01F401E190F1904F01E816F90609F400
:1042200061C08091FB0181FD0E94840AC7018C2539
:104230009D25B12CEE24E394F12C9C012E213F21ED
:10424000232B09F449C00E94D3208823A9F0BE8201
:10425000AF82CE20DF2081E0CD2809F480E088877E
:104260000E94352F8160782F9A8789874E815F81E0
:1042700068858A850E94A621000F111FF801E25A65
:10428000FE4F80819181E826F926F182E0820E942A
:10429000750E81110E94A2200E944A0D0E943E20AC
:1042A00090915D018917A9F10E943E2080935D01E4
:1042B0002A960FB6F894DEBF0FBECDBFDF91CF9127
:1042C0001F910F91FF90EF90DF90CF90BF90AF9034
:1042D0009F908F900C942008B394EE0CFF1CF0E19B
:1042E000BF12ABCF0F5F1F4F0530110509F08CCF08
:1042F0008FEF89838A831B820E94352F8160782FFC
:104300009D838C8349815A816B818D810E94A62176
:10431000BECF2A960FB6F894DEBF0FBECDBFDF9199
:10432000CF911F910F91FF90EF90DF90CF90BF90B2
:10433000AF909F908F900895019708F40895EFE94A
:10434000FFE03197F1F700C00000F6CFCF92DF9287
:10435000FF920F931F93CF93DF93CDB7DEB72B97C9
:104360000FB6F894DEBF0FBECDBF7A878B878A0168
:10437000F62ECA84DB84C114D10421F0812F84235A
:104380008F3F89F5F1100E941F2D1E821D82098327
:104390001A83FB82DD82CC828091A2039091A303D9
:1043A000892B61F00E94BA2C882319F082E00E94C8
:1043B000DC2D0E94962C81110E94662D49815A8124
:1043C0006B817C818D819E812B960FB6F894DEBF28
:1043D0000FBECDBFDF91CF911F910F91FF90DF9066
:1043E000CF900C949429809175019091760101965B
:1043F0009093760180937501C5CFFC0180819181F6
:104400000C94512CCF93C82F882309F48BC0823889
:10441000C1F40E943E2081FD85C089E30E947F2C6B
:104420000E94742D2FEF81EE94E021508040904047
:10443000E1F700C0000089E30E94862CCF910C9424
:10444000742D8338A1F40E943E2080FD6BC083E56B
:104450000E947F2C0E94742D2FEF81EE94E021505A
:1044600080409040E1F700C0000083E5E5CF84384C
:10447000A1F40E943E2082FD55C087E40E947F2C5B
:104480000E94742D2FEF81EE94E0215080409040E7
:10449000E1F700C0000087E4CFCF8CEF8C0F813AAA
:1044A00090F46C2F80916D0090916E000E94BE2E52
:1044B000882329F08C2F0E94862C0E94742D8C2F2B
:1044C0000E947F2CBBCF80E28C0F883048F4C770ED
:1044D00081E001C0880FCA95EAF70E94FF2CAECF99
:1044E000EBE5EC0FE33040F4F0E0E95FFE4F808154
:1044F00090E0CF910C946320E8E5EC0FE73150F4A5
:10450000F0E0EE0FFF1FE752FF4F80819181CF91C6
:104510000C947920C03F30F08C2F0E94440CCF9136
:104520000C942F0DCF910895882309F452C082383E
:1045300071F40E943E2081FF4CC089E30E947F2CD1
:104540000E94742D89E30E94862C0C94742D83386C
:1045500059F40E943E2080FF3CC083E50E947F2CDE
:104560000E94742D83E5EFCF843859F40E943E20D9
:1045700082FF2FC087E40E947F2C0E94742D87E465
:10458000E2CF9CEF980F913AF0F290E2980F9830BA
:1045900050F4877091E001C0990F8A95EAF7892F4E
:1045A0000E94052DD2CF9BE5980F933020F490E028
:1045B00080E00C94632098E5980F973120F490E008
:1045C00080E00C947920803F20F00E94AC0C0C9489
:1045D0002F0D08951F93CF93DF93182FEB010E94A7
:1045E0000222209731F4812FDF91CF911F910C94FB
:1045F00094228FE99FE00197F1F700C00000219716
:10460000F0CF6091C0037091C103893321F06091B4
:10461000BE037091BF030C94EA22882321F00E940C
:10462000FF2C0C94742D0895882321F00E94052DF1
:104630000C94742D0895882321F00E94122D0C945F
:10464000742D0895882321F00E94182D0C94742D48
:10465000089590E080E00E94632090E080E00E9456
:1046600079200E941F2D0E942F2D0E94742D0E94E0
:10467000560E0C942F0D0E948D2C0C9429230E9411
:104680000C2D0C943B23E92FE295EF70E250EE30B5
:1046900070F4F0E0E653FC4C0C943C33803F19F08E
:1046A00020F4883E20F481E00895843FE1F380E027
:1046B0000895883EC0F3813FD1F7F5CF93FB88275B
:1046C00080F908950E94512C0C9443234F925F92DD
:1046D0006F927F92BF92CF92DF92EF92FF920F93F1
:1046E0001F93CF93DF937C01EB01FC0102811581C5
:1046F00012951F700E94D42CC82E8823A1F0C02EC2
:10470000002389F08D2F807F803429F080E28C0F88
:10471000C12C883040F082E00E94DC2D0E94D42C15
:1047200091E0C82EC926BD2EB2942FE0B222EB2D07
:10473000F0E0E852FC4C0C943C33FD2FFF70DF2E70
:104740008D2F807F19F0D29490EFD9220023A9F009
:10475000DD2059F080E28C0F883010F0C11109C0C3
:104760008D2D0E94FF2C0E94742D8C2F0E940222FE
:1047700014C08D2D0E94122DF6CF8C2F0E949422F2
:10478000DD2059F080E28C0F883010F0C11138C064
:104790008D2D0E94052D0E94742DEB2DE850FF0BEE
:1047A000349720F40E943E200E942008CE010E94EF
:1047B0004323811111C21092760110927501CC2011
:1047C00009F42BC20E94B62C80FD27C2F701128289
:1047D0000E94B02C0E94182BC7010E9432260E9412
:1047E000B02CDF91CF911F910F91FF90EF90DF9050
:1047F000CF90BF907F906F905F904F900C94392B2B
:104800008D2D0E94182DC7CF2D2F2F70D22E8D2FBA
:10481000807F803219F0D29480EFD822CC23E9F047
:10482000C13009F455C0002309F45CC0112391F193
:1048300020E0F701408151816281738184810E946F
:104840000706B7010E94791981118FCFF701858181
:1048500080FF8BCF8F7085831DC00023E9F011117D
:1048600006C00E94322D8D290E940D2396CF113053
:1048700031F40E94322D8D290E944E2D8ECF8091D1
:10488000BC03823070F38113ECCF0E94662D8D2D16
:104890000E94382D8D2DE8CF111106C00E94662D83
:1048A0008D2D0E94142379CF8091BC03113059F4CF
:1048B000823008F472CF0E94FC2C8D2109F46DCF58
:1048C0000E94412DEBCF823048F31813E7CF65CF1C
:1048D000002321F0163008F060CFDCCF153008F04F
:1048E0005CCFDECF1123E1F28091C0039091C10330
:1048F000C93321F08091BE039091BF030E949C2197
:104900008C2F0E94942249CF8D2F86958695837097
:1049100061F0813009F041CFCE019370011102C0E6
:1049200090E080E00E94792038CFCE019370011191
:1049300002C090E080E00E9463202FCF8C2F0023E4
:1049400039F00E94440C0E942F0D0E942F0D25CF9C
:104950000E94AC0CFACF8D2F837009F043C0011177
:104960001CCF2C2F229526952770220F220F6C2FFB
:104970006F70462E512C712C612C022E04C0440CF9
:10498000551C661C771C0A94D2F760E070E0CB01DE
:10499000C4FF0FC06FE070E080E090E004C0660FDD
:1049A000771F881F991F2A95D2F76095709580957B
:1049B00090952D2F26952695237064297529862993
:1049C0009729223049F058F4213019F00E94CA2A60
:1049D000E4CE0E94B82AE1CE0E94DC2ADECE0E94FC
:1049E000B62ADBCE8695002311F08D2F81708823A7
:1049F00009F4D3CE2C2F229526952770220F220F53
:104A00006C2F6F70462E512C712C612C022E04C01D
:104A1000440C551C661C771C0A94D2F760E070E0C9
:104A2000CB01C4FF0FC06FE070E080E090E004C0F5
:104A3000660F771F881F991F2A95D2F7609570958A
:104A4000809590952D2F269526952370642975299C
:104A500086299729223049F058F4213019F00E9414
:104A60008F2B9BCE0E947D2B98CE0E94A12B95CEA2
:104A70000E94F22A92CEFD2FFF70DF2E002329F034
:104A80008F2F0E94182B8C2FEFCE8C2F0E94142377
:104A90008D2D0E94392B81CEC23F09F43FC060F4B6
:104AA000C03F31F1C13F91F1002309F480C01111E1
:104AB0005CCE8D2F8F712FC0C33FA9F1C43FA1F7EA
:104AC0008091BC03823008F45BC0002309F444C029
:104AD0000E94932C0E94052D0E94B62C843069F50B
:104AE0000E94D32D8D2F8F710E94392BC12C55CE52
:104AF000002341F0153008F050CE8D2F8F710E94A9
:104B00005C2B4BCE163008F048CEF7CF8D2F8F712F
:104B1000002309F4BECF0E94182B3FCE8D2F8F713A
:104B20000023C9F3B6CF002329F08D2F8F710E9487
:104B3000032B33CE0E94FE2A30CE8091BC0318177F
:104B4000A8F62D2F2F71D22E822F0E94182B63E0F2
:104B50008D2D0E94B72DCACF0E94932C0E94FF2C4E
:104B60008091BC03181740F00E94D32D0E94412D64
:104B700064E08D2F8F71EDCF81E00E94DC2DB6CFE8
:104B8000002359F03D2F3F71D32E832F0E94182B05
:104B900063E08D2D0E94B72D00CE81E00E94DC2DB8
:104BA000123008F4FACD82E00E94DC2DF6CD11110E
:104BB0009BCE8D2F8F716DCF4D2F4F706C2FC701F6
:104BC0000E9428080E942E2AE8CD4D2F4F706C2F8E
:104BD000C7010E942B08E1CD002319F01111EBCD84
:104BE000EECD1111E8CD20E0F701408151816281C5
:104BF000738184810E940706B7010E94841988236B
:104C000009F4D9CD8091750190917601029709F050
:104C1000D2CD8C2F0E940123CECDDF91CF911F9159
:104C20000F91FF90EF90DF90CF90BF907F906F90AB
:104C30005F904F9008950F931F93CF93DF93EC01F4
:104C4000688179818A810E945B2C8C010E94B32B40
:104C50000E94B52AB801CE01DF91CF911F910F912B
:104C60000C946623CF93DF93EC018B819C81892B7D
:104C700029F08881998189238F3F59F4DF91CF9161
:104C80000895CE010E941B26CE01DF91CF910C9496
:104C90004306CE010E943D078111F3CF0E94D42C20
:104CA000882361F38A81882349F382E0DF91CF91E1
:104CB0000C94DC2DCF93DF9300D000D00F92CDB7B2
:104CC000DEB70F900F900F900F900F90DF91CF9164
:104CD0000895CF93DF9300D000D000D0CDB7DEB7DA
:104CE00026960FB6F894DEBF0FBECDBFDF91CF91F1
:104CF00008951F93CF93DF93C091770116E08091C1
:104D000078018C1304C0DF91CF911F910895D0E0FA
:104D10001C9FF0011D9FF00D1124E758FE4F4081AC
:104D2000518162817381848195810E9469262196D7
:104D3000C770E5CF4091A9015091AA016091AB01E4
:104D40007091AC018091AD019091AE010C946926F7
:104D5000209177019091780156E0291302C080E0FC
:104D6000089530E0529FF001539FF00D1124E75851
:104D7000FE4F7181761306C07081781303C0728173
:104D8000741304C02F5F3F4F2770E7CF81E0089571
:104D9000DF92EF92FF920F931F93CF93DF93809157
:104DA000AE01807F61F48091AB01882341F0C09116
:104DB000770186E0D82E809178018C1308C0DF91AE
:104DC000CF911F910F91FF90EF90DF900895209168
:104DD000AC013091AD01D0E02115310541F0809159
:104DE000A9019091AA01482F49234F3F19F4219618
:104DF000C770E1CFDC9E8001DD9E100D1124F8010B
:104E0000E758FE4F51815913F2CF40814813EFCF3D
:104E100082818111ECCFE380F480E21AF30A20E072
:104E20006091AB017091AC018091AD010E940706C9
:104E300069EA71E00E947019E816F906C0F68091DF
:104E4000AE018F7080618093AE01F801E258FE4F91
:104E500080818F708061808389EA91E00E94322690
:104E6000DF91CF911F910F91FF90EF90DF900C9405
:104E700079266F927F928F929F92AF92BF92CF923C
:104E8000DF92EF92FF920F931F93CF93DF93CDB7F3
:104E9000DEB761970FB6F894DEBF0FBECDBF8C01B1
:104EA00085E0F801DE011D9601900D928A95E1F7EB
:104EB000D8017C901196EC9011971296FC9089EA9B
:104EC000882E81E0982E8091AC019091AD010097E1
:104ED00049F04091A9015091AA01242F25232F3F89
:104EE00009F0BDC1F1101BC1C8010E94322687C064
:104EF00020E04091A9015091AA016091AB0170910D
:104F0000AC018091AD010E940706B8010E9475199D
:104F10008111E9C1CD2829F08E2D87218F3F09F01D
:104F200017C180E0B82FB170CB2E80FF29C04F2D64
:104F30006E2D872D0E94A826D82E811121C07D8636
:104F4000EE868D859E850E94512C292F22952F70EB
:104F5000223050F0243078F49F7051F0F8019581A0
:104F6000907F31F46D2C10C19F7011F08823D1F324
:104F7000805E8830B8F3C8010E943226DC2CF2CF64
:104F8000FF2009F401C18091AE0181608093AE01E0
:104F9000612CFAC0892B49F08091A9019091AA0156
:104FA000282F29232F3F09F005C17D86EE868D85A8
:104FB0009E850E946223882309F496CFFF2009F47E
:104FC00093CF8091AE01803270F02091A901309191
:104FD000AA0138872F831986DB86CA868C87CE0183
:104FE00007960E94322686E0F801A9EAB1E0019016
:104FF0000D928A95E1F70E94C8260E949A2666249F
:105000006394C2C0211113C07C2DD98AC88A472D50
:105010005E2D6F2D89890E945A2689EA91E00E94AF
:10502000322686E0F40111928A95E9F77AC18091DF
:10503000AC019091AD01892B49F08091A90190912B
:10504000AA01282F29232F3F09F0CDC07D86EE86A7
:105050008D859E850E946223882309F445CFFF2019
:1050600009F442CF8091AE01803208F4BCCF209188
:10507000A9013091AA013A8329831B82DD82CC8267
:105080008E83CE010196ADCF20E060E07091AC013F
:105090008091AD010E94070669EA71E00E947019D3
:1050A000A816B90668F56F2CFF2009F41DCF809172
:1050B000AC019091AD01892B49F04091A90150912B
:1050C000AA01842F85238F3F09F0A3C07D86EE8639
:1050D0008D859E850E946223811185CF8091AE01CE
:1050E00081608093AE01C8010E9432264DC086E0E7
:1050F000F801A9EAB1E001900D928A95E1F744C068
:105100007C2DD98AC88A472D5E2D6F2D89890E94F2
:105110005A2686E0D4011D928A95E9F761C07D8602
:10512000EE868D859E850E946223682E882309F471
:10513000DBCE86E0F801A9EAB1E001900D928A95F4
:10514000E1F789EA91E00E94FD210E94C82648C04B
:1051500081E08F25E7CE81E08F25CEC09E11AFC0C4
:105160008711ADC0F110ABC08091AE018F7080612E
:105170008093AE010E949A2689EA91E00E9432262D
:105180008091AE01F8018583862D61960FB6F89463
:10519000DEBF0FBECDBFDF91CF911F910F91FF906A
:1051A000EF90DF90CF90BF90AF909F908F907F90C7
:1051B0006F9008959E11F9CE8711F7CEF110F5CEBC
:1051C0008091AE01D80115968C93C8010E943226B9
:1051D00086E0F801A9EAB1E001900D928A95E1F725
:1051E0000E949A26D1CF9E1131CF87112FCFF11077
:1051F0002DCF8091AE01D80115968C93C8010E94E5
:105200003226E9EAF1E086E0DF011D928A95E9F7AE
:10521000BBCF5E115BCF471159CF20E06091AB014E
:105220007091AC018091AD010E940706B8010E9407
:105230007E1981115CCF8091AE0180FD58CF982FEF
:10524000907F09F454CFF8018583903F09F4BDCFD6
:10525000982F907F905F8F70892B8583B6CFF80150
:10526000C380D4806090AB015601A81AB90A6620A9
:1052700009F40ACF20E0662D7091AC018091AD0158
:105280000E94070669EA71E00E9470192091AE0140
:10529000207FA816B90608F0B5CE8091AC01909198
:1052A000AD01211177CE6F2C892B49F08091A90196
:1052B0009091AA01282F29232F3F09F04FCF20E0FA
:1052C0004091A9015091AA016091AB017091AC018C
:1052D0008091AD010E940706B8010E947019843FB9
:1052E000914008F405CEC114D10429F08E2D8721F8
:1052F0008F3F09F030CF80E080FF0CCE4F2D6E2D18
:10530000872D0E94A826882309F404CE89EA91E01B
:105310000E94322686E0E9EAF1E0DF011D928A95DB
:10532000E9F70E949A2634CE1F93CF93DF93CDB72F
:10533000DEB72C970FB6F894DEBF0FBECDBF4F83FC
:10534000588769877A878B879C87CE0107960E944A
:105350003927882369F08A859B85892B39F04F810D
:105360005885842F85238F3F09F071C016E05FC0F8
:1053700086E0FE013796DE01119601900D928A9526
:10538000E1F78A859B85892B89F38F81988589230D
:105390008F3F61F32091780130E0C9010196877059
:1053A0009927409177014817190671F40E943F230D
:1053B000109278011092770186E0E9EAF1E0DF01CE
:1053C0001D928A95E9F7D2CF96E0929FD001939FE4
:1053D000B00D1124A758BE4FFE01319601900D92D9
:1053E0009A95E1F7809378010E947926BFCF819F3B
:1053F000C001112487589E4F0E9439278823E9F065
:10540000E09177011E9FF0011124E758FE4F408183
:10541000518162817381848195810E946926809186
:10542000770190E0019687709927809377018091AA
:105430007701909178018913DACF2C960FB6F89402
:10544000DEBF0FBECDBFDF91CF911F91089569855B
:105450007A858B859C850E94692688CFEF92FF9282
:105460000F931F93CF93DF938C01892B81F0F12C45
:10547000EE24E394E8012196F8018491843770F4D6
:10548000843008F05FC08130B1F08230A1F1DF914B
:10549000CF911F910F91FF90EF900895853709F4F8
:1054A0004CC008F43DC09CE7980F903780F78F7789
:1054B0000E94942249C00E5F1F4FFE01849190E22A
:1054C000980F983060F48770FE2D01C0FF0F8A9509
:1054D000EAF78F2F0E94222D0E94742D02C00E9495
:1054E00002228F2D815030F2EFE9FFE03197F1F782
:1054F00000C00000F7CF0E5F1F4FFE01849190E2C5
:10550000980F983050F48770FE2D01C0FF0F8A95D8
:10551000EAF78F2F0E94282DDFCF0E949422E1CF3F
:105520000E5F1F4FFE01C491C150D8F28FE99FE07A
:105530000197F1F700C00000F7CF0E5F1F4FFE018B
:10554000F490CFCF0E9402228E01CBCF08950C940D
:10555000A62A0E94A72A6093E5017093E601809332
:10556000E7019093E8010C94292308950C94A92A4B
:105570000F931F930091E5011091E6012091E7013F
:105580003091E801602B712B822B932B1F910F918F
:105590000C94A92A0F931F930091E5011091E60145
:1055A0002091E7013091E801602371238223932346
:1055B0001F910F910C94A92A0F931F930091E5015D
:1055C0001091E6012091E7013091E80160277127F1
:1055D000822793271F910F910C94A92A0C94A62A35
:1055E0000C94EE2A0E94F02A6093E1017093E2018C
:1055F0008093E3019093E4010C94292360E070E030
:10560000CB010C94F22A0F931F9341E050E060E02D
:1056100070E08A019B0104C0000F111F221F331F7D
:105620008A95D2F7C901B8011F910F910C94F22A03
:105630000F931F9341E050E060E070E004C0440F1E
:10564000551F661F771F8A95D2F78091E1019091CF
:10565000E201A091E301B091E4018A019B01082BD2
:10566000192B2A2B3B2BC901B8011F910F910C94C8
:10567000F22A0F931F9341E050E060E070E004C015
:10568000440F551F661F771F8A95D2F7CB01BA01C9
:1056900060957095809590950091E1011091E201DF
:1056A0002091E3013091E40160237123822393234D
:1056B0001F910F910C94F22A0F931F9341E050E039
:1056C00060E070E004C0440F551F661F771F8A9585
:1056D000D2F78091E1019091E201A091E301B091B4
:1056E000E4018A019B01082719272A273B27C901C2
:1056F000B8011F910F910C94F22A0F931F93009100
:10570000E1011091E2012091E3013091E401602B6D
:10571000712B822B932B1F910F910C94F22A0F93D4
:105720001F930091E1011091E2012091E30130917A
:10573000E40160237123822393231F910F910C9422
:10574000F22A0F931F930091E1011091E201209141
:10575000E3013091E40160277127822793271F918D
:105760000F910C94F22A08959E3F61F19295907FDB
:10577000E92FE80F8E2F877041E001C0440F8A9512
:10578000EAF7E695E695E69585E0E89FF0011124B5
:10579000E155FE4F30E020E070E05191DF011197BC
:1057A000CB01022E02C0969587950A94E2F781708C
:1057B00081958527842385278C932F5F3F4F253044
:1057C000310559F708959E3F41F19295907FE92F59
:1057D000E80F9E2F9770E695E695E69585E0E89FA1
:1057E000F0011124E155FE4F50E040E080E02191AE
:1057F00030E0092E02C0369527950A94E2F7217011
:105800003327042E01C0220F0A94EAF7822B4F5F40
:105810005F4F4530510559F7089580E00895BF92D4
:10582000CF92DF92EF92FF920F931F93CF93DF936C
:105830008C01C090E101D090E201E090E301F09092
:10584000E4018091E5019091E601A091E701B0911A
:10585000E801C82AD92AEA2AFB2ACFE1D0E0BC2EE7
:10586000D701C6010C2E04C0B695A79597958795CC
:105870000A94D2F780FD0EC0219788F7B12C8B2DAA
:10588000DF91CF911F910F91FF90EF90DF90CF901C
:10589000BF900895B8018C2F0E943408019761F3DE
:1058A000EECFCF93DF93EC010E940F2CBE01DF916E
:1058B000CF910C9434081F93CF93DF93EB01909119
:1058C0007401992331F0CB01DF91CF911F910C949A
:1058D000512C882379F0CB010E940F2C182F682FB0
:1058E000CE010E94B42BBE01812FDF91CF911F9179
:1058F0000C943408CB010E94E32B182FF4CF682FAF
:1059000080916D0090916E000C94F42E682F809120
:105910006D0090916E000C94F62E80916D00909128
:105920006E000C94F82E8091EE0108958091A203F0
:105930009091A303892B89F00E94352F2091EC01CF
:105940003091ED01AC01421B530B81E02091A20389
:105950003091A3034217530708F480E08170089543
:105960008091EB0185958595859508958091EB0152
:10597000877008950E94352F2091E9013091EA0146
:10598000821B930B2091A2033091A30382179307EC
:1059900048F08091EB0182FB882780F991E089270C
:1059A0008170089580E0FCCF9091EB01977081E0C9
:1059B00009F480E008959091B10292FB222720F92A
:1059C000281751F080FB92F99093B1028091B002B8
:1059D0009091B1020C94212E08958091B10282FB26
:1059E000882780F991E089270C94DB2C81E00C94C6
:1059F000DB2C80E00C94DB2C8091FA0108959091CF
:105A0000FA01892B8093FA01089580959091FA010B
:105A100098239093FA0108951092FA0108958091C5
:105A2000F90108959091F901892B8093F901089566
:105A300080959091F90198239093F901089510921F
:105A4000F90108959091F801892B8093F801089548
:105A500080959091F80198239093F8010895109201
:105A6000F80108958091EF01089508950C94352D63
:105A70009091EE01981721F08093EE010C94362D51
:105A800008958091EE01882329F01092EE0180E0C4
:105A90000C94362D089508950C944B2DCF93C82F58
:105AA0008091B10282FD10C08091EF018C1761F0EE
:105AB0000E94352F9093ED018093EC01C093EF018C
:105AC0008C2FCF910C944C2DCF9108958091EF01A4
:105AD000882349F01092EF011092ED011092EC0131
