:100000000C9430030C9477030C9477030C947703CF
:100010000C9477030C9477030C9477030C94770378
:100020000C9477030C9477030C94B3290C94892ACD
:100030000C944D130C9477030C9477030C94770372
:100040000C9477030C9477030C9477030C94770348
:100050000C9477030C944E210C9477030C94770343
:100060000C9477030C9477030C9477030C94770328
:100070000C9477030C9477030C9477030C94770318
:100080000C9477030C9477030C9477030C94770308
:100090000C9477030C9477030C9477030C947703F8
:1000A0000C9477030C9477030C94770305010902F1
:1000B000A10185020901A1000509190129081500FE
:1000C0002501950875018102050109300931158165
:1000D000257F95027508810609381581257F9501D0
:1000E00075088106050C0A38021581257F95017572
:1000F000088106C0C005010980A101850319012AF4
:10010000B700150126B700950175108100C0050CD8
:100110000901A101850419012AA002150126A002E6
:10012000950175108100C005010906A1018505052D
:100130000719E029E71500250195087501810205D9
:1001400007190029EF1500250195F07501810205B9
:10015000081901290595057501910295017503910D
:1001600001C00660FF0961A1010962150026FF00B8
:100170009520750881020963150026FF00952075FA
:10018000089102C005010906A101050719E029E748
:1001900015002501950875018102950175088101F9
:1001A0000507190029FF150026FF0095067508812F
:1001B000000508190129059505750191029501753C
:1001C000039101C009025B00030100A0FA090400C9
:1001D0000001030101000921110100012240000773
:1001E00005810308000A0904010002030000000958
:1001F00021110100012222000705820320000107CE
:1002000005030320000109040200010300000009A6
:10021000211101000122B6000705840320000A1203
:10022000011001000000085A4421140200010200DC
:1002300001100344005A00360035005200470042C6
:100240000000000E0344005A0054004500430048DB
:10025000000000040309040000000000000000008A
:10026000000000000000000000000000000000008E
:1002700000000000000000000000007E0F00D4FF1E
:10028000FFFFC70000007800000000000000002A07
:100290002B2800000000000000000000000000000B
:1002A000000029000000002C1E34202122243426C6
:1002B00027252E362D3738271E1F202122232425BF
:1002C000263333362E37381F0405060708090A0B74
:1002D0000C0D0E0F101112131415161718191A1BE6
:1002E0001C1D2F3130232D350405060708090A0B84
:1002F0000C0D0E0F101112131415161718191A1BC6
:100300001C1D2F3130354C165C1E001F00200021B3
:10031000002200230024002500260027002D002EA7
:10032000002A004A002B0014001A000800150017CC
:10033000001C0018000C00120013002F00300031C8
:10034000004B00396104001600070009000A000B89
:10035000000D000E000F0033003400000028004E96
:1003600000E1001D001B000600190005001100102F
:1003700000360037003800E500000052004D00E074
:1003800000E300E200000000002C0000000000E696
:10039000000151E4005000000051004F00165C3A8B
:1003A000003B003C003D003E003F00400041004259
:1003B000004300440045004C004A000100C25CC3F9
:1003C0005CC55CC65CC75CC85CC95CCA5C010046B5
:1003D0000047004800005C4B003961CB5CCC5C01FD
:1003E0000001000100010001000100010001000105
:1003F000000000DE5C4E00E1000100010001000190
:10040000000100145C010001000100010001000076
:1004100000A900A800010001000100000000000187
:100420000000000000010001000100AC000000AA73
:1004300000AB00010001000100010001000100010A
:1004400000010001000100010001000100010001A4
:100450000001000100010001000100010001000194
:100460000001000100010001000100010001000184
:100470000001000100010001000100010001000174
:100480000001000100010000000100010001000165
:100490000001000100010001000100010001000154
:1004A0000001000100000001000100010001000145
:1004B0000000000000010000000000010001000138
:1004C0000001000000010001000100010001000125
:1004D0000001000100010001000100010001000114
:1004E0000001000100010001000100010001000104
:1004F00000010001000100010001000100010001F4
:1005000000010001000100010001000100010001E3
:1005100000010001000100010001000100000001D4
:1005200000010001000100010001000100010001C3
:1005300000010001000100010001000000010001B4
:1005400000010001000100000000000100000000A7
:100550000001000100010001000000010001000095
:100560000101010101010101010202020202020274
:100570000202030303030303030304040404040447
:10058000040505050505060606060607070707070D
:1005900008080808090909090A0A0A0B0B0B0C0CC0
:1005A0000C0D0D0D0E0E0E0F0F0F1010111111125C
:1005B0001213131414151516161717181819191ADB
:1005C0001A1B1B1C1D1D1E1E1F202021222223243E
:1005D00024252626272829292A2B2C2D2D2E2F307D
:1005E000313232333435363738393A3B3C3D3E3F91
:1005F000404142434445464748494A4C4D4E4F507E
:10060000515354555658595A5B5D5E5F616264653B
:100610006668696B6C6D6F7072737577787A7B7DC5
:100620007E8082838587888A8C8E8F919395969819
:100630009A9C9EA0A2A3A5A7A9ABADAFB1B3B5B735
:10064000BABCBEC0C2C4C6C9CBCDCFD1D4D6D8DB0C
:10065000DDDFE2E4E7E9EBEEF0F3F5F8FAFDFF00A9
:1006600011241FBECFEFDAE0DEBFCDBF04B603FE1C
:1006700027C08091610690916206A0916306B091B7
:1006800064068730904BA740B04BD1F410926106BE
:1006900010926206109263061092640614BE84B72C
:1006A000877F84BF0FB6F894A89580916000886119
:1006B00080936000109260000FBEE0E0F8E30995BF
:1006C00026E0ACE9B3E001C01D92A136B207E1F724
:1006D00013E0A0E0B1E0EAE0FBE502C005900D9276
:1006E000AC39B107D9F70E9472210C94022D0C94F9
:1006F000000090915F0692FF06C0282F28712830D5
:10070000F9F4877F846093FF06C0282F2871283171
:10071000F1F4877E84612091600620FF06C0382FA7
:1007200038713830D9F4877F816021FF06C0282FC7
:1007300028712831D1F4877E816194FD877E0895E8
:10074000282F24712430F9F68B7F8860DCCF282F86
:100750002471243101F78B7E8861DDCF382F317110
:10076000313019F78E7F8860E0CF282F2171213139
:1007700021F78E7E8861E1CFF894E82FE295EF7043
:10078000F0E041A18F7021E030E0B90102C0660FB6
:10079000771F8A95E2F7CB01962F9095942391A32A
:1007A00092A1892B82A3789408958091470680FDB9
:1007B00014C081FD14C082FD16C0809146068823B6
:1007C00081F0843180F422E3829FC001112464E12E
:1007D00070E00E94A42B862F08958CE0089589E193
:1007E000089585E0089582E308958091470680FD8D
:1007F00016C081FD16C082FD16C080914506882373
:10080000A1F0883280F428E0829FC001112468E2C0
:1008100070E00E94A42B862F672B39F0089582E0A8
:10082000089584E0089588E0089581E00895E0E166
:10083000E80FE031E0F5F0E0EC5FF24D0C94B82BFE
:100840000E94D50381958093420608950E94D503A6
:10085000FACF0E94D50381958093410608950E94A6
:10086000D503FACF0E94F5038093430608950E94B2
:10087000F5038195F9CF0E94F50381958093440695
:1008800008950E94F503FACF845F990B21E030E0D0
:1008900001C0220F8A95EAF780914006822B80934F
:1008A0004006089580914706816080934706089529
:1008B000809147068260F9CF809147068460F5CF2A
:1008C00040914106803F59F48091420687FF0DC058
:1008D0001092420641110BC01092460608C0813F9B
:1008E00081F48091420618169CF3442381F0809194
:1008F000430690914406892B09F05AC01092450690
:100900000895823F49F447FFF0CF1092410680914D
:1009100042068111ECCFE0CF833F19F41416ACF3FB
:10092000E4CF90914306893F29F41916F4F610920A
:100930004306DBCF8A3F19F497FFD7CFF8CF9091CA
:1009400044068B3F29F497FFD0CF10924406CDCFB9
:100950008C3F19F41916CCF3C8CF9CE0980F953052
:1009600090F4845F990B21E030E0B90102C0660F7A
:10097000771F8A95E2F7CB018095909140068923F5
:1009800080934006B2CF8D3F31F4809147068E7F31
:1009900080934706AACF8E3F21F4809147068D7F32
:1009A000F7CF8F3F09F0A1CF809147068B7FF0CF23
:1009B0000895AF92BF92CF92DF92EF92FF920F9382
:1009C0001F93CF93DF93262FD72EE82FF0E0E15A25
:1009D000FA4F71110FC06491862FE62F7E2FDF91A1
:1009E000CF911F910F91FF90EF90DF90CF90BF902C
:1009F000AF900895E72EF12CE49186E0689F800186
:100A00001124CFEFD0E0C801BE010E94902BAB01B2
:100A100030E0220F331F65E5649FC001659F900D94
:100A20001124281B390B922F990F920F9E012E191A
:100A30003F09E29FD001E39FB00D11246B2FD99E97
:100A400090011124232F33276E01C21AD30A960175
:100A5000E29F6001E39FD00C11248D2D5E01A91A45
:100A6000B108AE9C9001AF9C300DBE9C300D11249E
:100A7000232F3327C21BD30BEC9F9001ED9F300D2A
:100A8000112443305105C1F00C3F93E0190768F47D
:100A900041305105A9F042305105B1F00F3F110529
:100AA00008F09CCF8B2F632F99CF4430510579F0FC
:100AB00046305105B9F392CF6D2D8E2FEB2F8ECF8F
:100AC0006E2FED2D8B2F8ACF832F6E2FF7CF8E2F8A
:100AD000E32F84CF9C0190E080E0269F812D369FFC
:100AE000800D911D112408959C018230910508F418
:100AF00008959FEF213E8EE1380740F4C90145E09B
:100B0000969587954A95E1F798E0980F61E0E62F72
:100B1000E90FFF27FF1FAF0155954795842F449F8D
:100B2000F001459FF00DF00D11242E173F0738F40A
:100B30009FEF940F961758F78FEF860F08954F3F4A
:100B4000E9F361E0640FF6CF982FE82F96FDE0956A
:100B50002E2F2F7096FD2F5FE695E695E695E670B1
:100B6000F0E0EE5AFC4F8181829F802D212D1124CF
:100B700082958F702295207F822B2081820F97FD96
:100B8000819580580895FC019B01009719F4832FEB
:100B900080780895AC0197FF04C044275527481B6F
:100BA000590BB901640F751F37FD0FC0241B350B9E
:100BB000C901A5E0880F991FAA95E1F70E94A42B0F
:100BC00080E2861BF7FD81950895CB0165E0880FD3
:100BD000991F6A95E1F7BA01621B730B0E94A42B5F
:100BE00080E6EFCF1F93182F822FE42FF0E0EE0F57
:100BF000FF1FEA57FD4F2081322F24EE329F312D07
:100C00001124412F50E0232F30E0245E3F4F281B5A
:100C1000310937FF03C031952195310983E0220F57
:100C2000331F8A95E1F7CA01821B930B9C0197FD44
:100C300020E0219F212D1124822F1F9108950F93D1
:100C40001F93CF93DF93D62FC72F182FBA01C90157
:100C5000212F201B022F0E94C305982F990F990F57
:100C6000282F291B200F219F212D11246D2F7C2F30
:100C7000822FDF91CF911F910F910895EF920F93E3
:100C80001F93CF93DF93D62FC72F182FBA01C90117
:100C90000E19010F0E94C305081B019F012D11248D
:100CA0006D2F7C2F802FDF91CF911F910F91EF90AF
:100CB0000895622F0895E42FF0E0EE0FFF1FEA572A
:100CC000FD4F6081621B0895E42FF0E0EE0FFF1FDF
:100CD000E957FD4F6081621B0895322F50E0FA0101
:100CE000EE0FFF1FE957FD4F9081905297FD9195B0
:100CF000440F551FFA01EA57FD4F2081231B330B88
:100D0000290F311D97FD3A95620F0895EF920F93C9
:100D10001F9393E0099F80011124159507956E2D6F
:100D2000600F1F910F91EF9008950F93CF93DF9372
:100D3000D72FC82FB90147FD419528E330E0241B88
:100D4000310947FD3395229FA001239F500D500D7F
:100D50001124669FC001679F900D900D1124840F90
:100D6000951F0E947405982F990F692F680F600FC7
:100D70007D2F8C2FDF91CF910F9108950F93CF93FB
:100D8000DF93D72FC82FBA01C9010E94C305682F6E
:100D9000600F7D2F8C2FDF91CF910F910895EF92EF
:100DA0000F93CF93DF93D72FC82FBA01C9010E1924
:100DB0000E94C305602F681B7D2F8C2FDF91CF9180
:100DC0000F91EF9008950F931F93522F10E0F801A9
:100DD000EE0FFF1FE957FD4FA081A052BB0B9D01F5
:100DE0005203F001539FF00D1124000F111FD80181
:100DF000AA57BD4F2C912057330B4203D001439F7C
:100E0000B00D11249F012A0F3B1F37FF02C021584C
:100E10003F4F220F232F221F330B620F1F910F9181
:100E200008950F931F93522F10E0F801EE0FFF1F4C
:100E3000E957FD4FA081A052BB0B9D015203F00169
:100E4000539FF00D1124000F111FD801AA57BD4F59
:100E50002C912057330B4203D001439FB00D112436
:100E60009F012A0F3B1F37FF02C0215C3F4F96E0D6
:100E7000359527959A95E1F7620F1F910F91089587
:100E80000F931F93A42F10E0F801EE0FFF1FEA57F6
:100E9000FD4F9081905797FD9195000F111FF8011C
:100EA000E957FD4F00810052110B2003A001219F43
:100EB000500D112428E330E0291B310997FD3395AB
:100EC0001A2F1203F001139FF00D11244E0F5F1F14
:100ED0009A01220F331F240F351F37FF02C02158FC
:100EE0003F4F220F232F221F330B620F1F910F91B1
:100EF00008950F931F93CF93DF938B01D82FC42FA7
:100F0000822F0E94A405EC2FF0E0EE0FFF1FEA579E
:100F1000FD4F90819058980F97FD9195990F692FEB
:100F20002CE0629F612D1124600F712F8D2FDF91B6
:100F3000CF911F910F910895E42FF0E0EE0FFF1F66
:100F4000EA57FD4F9081921B97FD9195292F38E12B
:100F5000239F212D1124620F089522E8241B08F4F9
:100F600020E0620F08950C94B7070C94E207FC018F
:100F70008434910530F5EE0FFF1FEE0FFF1FE55D86
:100F8000FE4F5281338180818370A82FB0E0718140
:100F9000E0E98E9FC001112484519B4FFC01E70FB3
:100FA000F11DB4976083FC01E50FF11DB4974083F8
:100FB000830F911DFC01B4972083A45FB94F81E09A
:100FC0008C930895FF920F931F93CF93DF93182F65
:100FD000062FF42ED0E0C0E02F2D402F612FCE0140
:100FE0000E94B7072196C434D105B1F7DF91CF91A4
:100FF0001F910F91FF900895FA0181110994FB014F
:10100000FDCFE0913906F0913A06309721F001903A
:10101000F081E02D099480E008952091D60430916C
:10102000D7042817390771F09093D7048093D6041A
:10103000E0913906F0913A06309721F00680F78169
:10104000E02D099408952091D4043091D5042817F7
:10105000390771F09093D5048093D404E091390658
:10106000F0913A06309721F00084F185E02D099443
:10107000089580919D0490919C04981301C0089557
:101080008F5F8770FACFE82F2FE0929FE00D112439
:101090008E2F877041E001C0440F8A95EAF7E695EC
:1010A000E695E69585E0E89FF0011124E55AFB4FAF
:1010B00030E020E070E05191DF011197CB01022E6A
:1010C00002C0969587950A94E2F7817081958527ED
:1010D000842385278C932F5F3F4F2530310559F7A7
:1010E0000895E82F2FE0929FE00D11249E2F977016
:1010F000E695E695E69585E0E89FF0011124E55A2E
:10110000FB4F50E040E080E0219130E0092E02C02A
:10111000369527950A94E2F721703327042E01C0F3
:10112000220F0A94EAF7822B4F5F5F4F453051053B
:1011300059F70895909113019923E1F090915F067A
:1011400097FF18C0E82FE695E695E695803FF0F406
:10115000F0E0E256FC4F877021E030E0A90102C0C8
:10116000440F551F8A95E2F7CA0180959281892321
:1011700082830895E0EAF3E09191891303C0DF01CF
:1011800011971C9253E0E63AF507B1F70895809164
:10119000910481111092910408958091900490918E
:1011A0009B04892B90918D04892B80939E039091B1
:1011B00091049923A1F0892B80939E0380911301C0
:1011C000882341F180915F0687FF24C08EE1E0EA29
:1011D000F3E090E0815000F591110E94C708E09182
:1011E0003906F0913A063097E1F080911301882397
:1011F00059F080915F0687FF07C080919E0380931E
:101200009F0385E080939E030280F381E02D8EE9A9
:1012100093E0099486E0DBCF21912223D9F29F5FEE
:10122000D9CF0895882339F090919004892B809329
:1012300090040C94CD080895882341F080959091F6
:1012400090048923809390040C94CD08089580E045
:1012500008959C01809113018823C1F080915F065D
:1012600087FF14C0862F869586958695603FF8F493
:10127000F901E80FF11D677021E030E001C0220F95
:101280006A95EAF78281822B82830895F90132966A
:101290008FEF90E04191641751F08F3F19F44111A5
:1012A00001C0892F9F5F9630A9F78F3F09F40895F9
:1012B000280F311D87FD3A95F90162830895CF9378
:1012C000DF9300D000D0CDB7DEB78FB7F894209170
:1012D0005604309157044091580450915904298381
:1012E0003A834B835C838FBF69817A818B819C8138
:1012F0000F900F900F900F90DF91CF9108959C0168
:101300004FB7F8948091560490915704A0915804D7
:10131000B09159044FBF821B930B089580915504DF
:101320000895FC01CB012091CA033091CB0326170D
:10133000370790F0009729F42091E8002E7720934A
:10134000E80040E0009751F4411108C08091E800A6
:1013500082FF31C080E00895C901F3CF20913404A9
:101360002223A9F12530A9F12091E80023FD2DC009
:101370002091E80022FDEACF2091E80020FFE2CF93
:101380003091F3002091F200009719F028303105D8
:1013900058F041E02830310509F040E02091E800A4
:1013A0002E772093E800CECF41914093F100019732
:1013B0002F5F3F4FE9CF80913404882341F085307F
:1013C00041F08091E80083FFC1CF81E0089582E081
:1013D000089583E008958091C40387FF13C080912E
:1013E000E80082FF06C08091E8008B778093E800D8
:1013F00004C0809134048111F2CF089580913404A7
:101400008823D9F38091E80080FFF8CF8091E8002D
:101410008E77ECCF2091E4003091E50095E6A901AC
:101420002091EC00822F817020FF06C08091E8009F
:1014300080FF06C080E008952091E80022FD1AC0D8
:1014400080913404882389F0853089F08091EB0005
:1014500085FD0FC02091E4003091E500421753074D
:10146000F9F29150E1F684E0089582E0089583E076
:10147000089581E00895E8EDF0E080818E7F80831B
:101480001092E2001092DA001092E100A0EEB0E0BB
:101490008C9181608C9380818F77808319BCA7EDBC
:1014A000B0E08C918E7F8C9380818F7E80831092B0
:1014B000C3030895EF92FF920F931F93CF937C0184
:1014C0008B010E940A0AC82F811117C08091E80081
:1014D00085FD0BC08091E8008E778093E8000E9424
:1014E0000A0A882399F3C82F08C0F70181917F0168
:1014F0008093F1000150110949F78C2FCF911F9172
:101500000F91FF90EF900895BF92CF92DF92EF92EC
:10151000FF920F931F93CF93DF9300D000D00F92D1
:10152000CDB7DEB76C0180910601880F880F8B83E1
:1015300094E0F92EF80EBF2C94E49F1510F484E487
:10154000B82E609138066695669580912204909138
:1015500023040E946A05182F80E4810F0E94A405CD
:1015600080588983812F0E94A40580588A83FB813B
:10157000EF2FF0E0FD83EC839C819B15A0F081E0D0
:10158000E3E4EF1508F480E00F900F900F900F90B8
:101590000F90DF91CF911F910F91FF90EF90DF900F
:1015A000CF90BF900895EC81FD81E25FFC4F808178
:1015B000909107018923A9F0609135067091360654
:1015C00080913706E12E0C812A814981F601099527
:1015D0000E94D904462F672F282F8C819D810E945D
:1015E000B3078C819D8101969D838C83C5CFDF924B
:1015F000EF92FF920F931F93CF93DF937C01C091E3
:101600000601CC0FCC0F14E01C0FD12E153410F0B6
:1016100084E4D82E60913806669566958091220400
:10162000909123040E946A05082FD0E0CD1560F048
:1016300081E0143408F080E0DF91CF911F910F9189
:10164000FF90EF90DF900895FE01E25FFC4F8081F4
:1016500090910701892391F06091350670913606CB
:1016600080913706202F4C2FF70109950E94D9044D
:10167000462F672F282FCE010E94B3072196D6CF81
:10168000AF92BF92CF92DF92EF92FF920F931F9390
:10169000CF93DF935C01C0910601CC0FCC0F14E017
:1016A0001C0FC12E153410F034E4C32E609138069F
:1016B000669580912204909123040E946A05D82E99
:1016C000D0E0CE01880F991F9C012A573D4F790128
:1016D000CC1578F081E0143408F080E0DF91CF91F0
:1016E0001F910F91FF90EF90DF90CF90BF90AF9040
:1016F0000895FE01E25FFC4F8081909107018923EC
:10170000C1F0F70121812052330B40814057550B26
:101710006091350670913606809137060D2DF501E2
:1017200009950E94D904462F672F282FCE010E94C9
:10173000B307F2E0EF0EF11C2196CACF5F926F92D1
:101740007F928F929F92AF92BF92CF92DF92EF9251
:10175000FF920F931F93CF93DF934C01C09106012B
:10176000CC0FCC0F14E01C0F512E153410F034E4C4
:10177000532E60913806669580912204909123043F
:101780000E946A05F82ED0E0CE01880F991F9C01B7
:101790002A573D4F6901C515A0F081E0143408F0C7
:1017A00080E0DF91CF911F910F91FF90EF90DF903C
:1017B000CF90BF90AF909F908F907F906F905F90F1
:1017C0000895FE01E25FFC4F80819091070189231B
:1017D00079F1F6018081282F2057330B590181813F
:1017E000E82FE052FF0B3F01AA9C9001AB9C300D0B
:1017F000300D1124EE9FC001EF9F900D900D11242C
:10180000820F931F0E947405082F60913506709116
:10181000360680913706EF2C9301A501F401099556
:101820000E94D904462F672F282FCE010E94B307AC
:10183000F2E0CF0ED11C2196AECF982F9093E90005
:10184000242F762F50E0891731F07091EC00209111
:10185000ED005091F00021FD06C09F5F973071F7B9
:101860008093E90008953091EB003E7F3093EB00C8
:101870003091ED003D7F3093ED003091EB00316011
:101880003093EB007093EC002093ED005093F00048
:101890002091EE0027FDE1CF0895CF92DF92EF92E5
:1018A000FF920F931F93CF93DF93C8EDD0E0888111
:1018B0008F7E8883E7EDF0E080818160808384E023
:1018C00082BF81E08093C30388818E7F888302EE8C
:1018D00010E0F80110821092DA0081EEC82ED12CAF
:1018E000F601108288818F77888388818068888359
:1018F00088818F7D888319BC109234041092C203B2
:10190000109233041092C10390EEE92EF12CF701EE
:1019100080818B7F808388818160888342E060E062
:1019200080E00E941D0CF60180818E7F8083F8018B
:10193000808181608083808188608083F7018081DD
:101940008E7F8083888180618883DF91CF911F9112
:101950000F91FF90EF90DF90CF90089581E08093FA
:10196000E00080E28093D8001092C9008FE19EE4ED
:101970000197F1F700C0000087E090EBDC01809355
:10198000610690936206A0936306B093640688E1B3
:101990009CE00FB6F894A895809360000FBE9093DA
:1019A0006000FFCFCF93DF93D82FC92F8091130111
:1019B0008823C1F180915F0687FF34C060E284E034
:1019C0008093E9008FEF9091E800815095FD06C06B
:1019D00095ED9A95F1F700008111F5CF8091E8001F
:1019E00085FF1DC08091130170E050E040E081113F
:1019F00004C050E040E068E070E08D2F9C2F0E9412
:101A00005A0A8091E8008E778093E80080E2ED2FFB
:101A1000FC2FA5E3B4E001900D928A95E1F7DF91E8
:101A2000CF91089568E081E0CBCF24E02093E900D6
:101A30002FEF3091E800215035FD06C035ED3A9585
:101A4000F1F700002111F5CF2091E80025FF0BC030
:101A500050E040E066E070E00E945A0A8091E800A1
:101A60008E778093E8000895CF93DF9300D00F9294
:101A7000CDB7DEB790913404943011F589836A8331
:101A80007B839093E9008FEF9091E800815095FD62
:101A900006C095ED9A95F1F700008111F5CF809180
:101AA000E80085FF0DC050E040E063E070E0CE014B
:101AB00001960E945A0A8091E8008E778093E80090
:101AC0000F900F900F90DF91CF910895BC0183E0AC
:101AD0000C94340DBC0184E00C94340D45E050E0CE
:101AE0006CE170E084E396E00C946B2CE4E3F6E0A8
:101AF00081E280838091150190911601A0911701D8
:101B000081839283A3838FE784830C946E0DE4E337
:101B1000F6E0248130E1230F08F42FEF24830C94A6
:101B20006E0DE4E3F6E0248130E1231B08F420E0AD
:101B300024830C946E0D90913406937059F0809329
:101B4000350660933606493C08F048EC409337066A
:101B50000C946E0D0895E4E3F6E0818190E04381FA
:101B6000628108960C949B0DE4E3F6E08181438149
:101B700062818850990B0C949B0DE4E3F6E062813E
:101B800020E1620F08F46FEF8181438190E00C94B3
:101B90009B0DE4E3F6E0628120E1621B08F460E063
:101BA0008181438190E00C949B0DE4E3F6E0438156
:101BB00020E1420F08F44FEF8181628190E00C94A4
:101BC0009B0DE4E3F6E0438120E1421B08F440E092
:101BD0008181628190E00C949B0D9091340693700A
:101BE000A9F0882379F0893178F48F73880F880FF2
:101BF000909134069370892B8093340610921401CF
:101C00000C946E0D81E0F2CF88E1F0CF08958091C1
:101C10003406869586958F5F893108F081E00C94B3
:101C2000ED0D90913406969596958FEF890F913032
:101C300009F488E10C94ED0DE8EDF4E06083418354
:101C400024E630E042E050E0BF01880F0C94632BA3
:101C5000CF93DF93C82F4BE06DEF0E941C0E40E046
:101C60006AE08C2F0E941C0E8FE39CE90197F1F72C
:101C700000C0000040E060E08C2F0E941C0E40E09D
:101C800061E08C2F0E941C0E40E066E08C2F0E94C9
:101C90001C0E40E06DEF8C2F0E941C0ED0E040E047
:101CA0006D2F8C2F0E941C0EDF5FD231C1F740E0F8
:101CB0006D2F8C2F0E941C0EDF5FD432C1F740E0E5
:101CC0006D2F8C2F0E941C0EDF5FD43BC1F74BE0C1
:101CD0006DEF8C2F0E941C0E41E06AE08C2F0E9459
:101CE0001C0E40E06DEF8C2FDF91CF910C941C0EF9
:101CF000EF92FF920F931F93CF93DF93E82E062F5F
:101D000010E0025F194FF8018081882381F0F2E131
:101D10006F9FE0011124C05FD94FF12C49916F2DC5
:101D20008E2D0E941C0EF39482E1F812F7CFF80179
:101D30001082DF91CF911F910F91FF90EF90089546
:101D40006F927F928F929F92AF92BF92CF92DF92CB
:101D5000EF92FF920F931F93CF93DF930E94D22AAB
:101D600084E70E94280E87E70E94280EEBE2EE2E01
:101D7000E1E0FE2ED12CC12CF2E17F2EA8E08A2ECC
:101D8000912CAA24A394B12C66246394D7011196B4
:101D90006C91119770E0CB01849712960C91129779
:101DA0000452110B1396EC91E452FF0BD601AA0FCB
:101DB000BB1FAA0FBB1FA55DBE4F2C91237030E047
:101DC000AC0197FF02C0495F5F4F63E055954795AF
:101DD0006A95E1F7729EE001739ED00D1124C05FF9
:101DE000D94FC40FD11DB4010E94A42BA50101C07D
:101DF000440F8A95EAF78881842B8883C80117FDF0
:101E0000079653E0959587955A95E1F7729EE00104
:101E1000739ED00D1124C05FD94FC80FD11DC801CA
:101E2000B4010E94A42BA50101C0440F8A95EAF7D2
:101E30008881842B8883CF01F7FD079643E0959531
:101E400087954A95E1F7729EE001739ED00D1124AB
:101E5000C05FD94FC80FD11DCF01B4010E94A42B80
:101E6000A50101C0440F8A95EAF78881842B8883F5
:101E7000225F394FF9016082FFEFCF1ADF0A84E059
:101E8000E80EF11CA4E4CA16D10409F07FCF60E08B
:101E900084E70E94780E61E087E7DF91CF911F9180
:101EA0000F91FF90EF90DF90CF90BF90AF909F90F9
:101EB0008F907F906F900C94780EEF92FF921F930B
:101EC000CF93DF937B01182F110FD0E0C0E08C2F50
:101ED0008C5D8093D804D701AC0FBD1FE9EDF4E011
:101EE0008D91819384E0E93EF807D1F724E630E054
:101EF00041E150E068ED74E0812F0E94632B609611
:101F0000C039D10521F7DF91CF911F91FF90EF905C
:101F1000089580910C06882329F06CEE74E084E724
:101F20000E945D0F10920C0680910D06882329F007
:101F30006CE775E087E70E945D0F10920D0608952B
:101F40000F931F93CF93DF93C42FD0E0CC0FDD1FEF
:101F50002EE1629FC00DD11D112436E9839FC00D73
:101F6000D11D1124CE0186960E945D2C082F10E011
:101F7000102F0027CE0187960E945D2C9801282BF8
:101F8000C901DF91CF911F910F910895462F672FBF
:101F9000843030F4753020F44F3010F40C94A00FDE
:101FA00090E080E00895CF93DF930E94C60FEC018C
:101FB000803E910509F460C050F58133910509F424
:101FC000A6C090F48932910509F49AC08A9709F461
:101FD000A5C0C130D10509F462C0CE010497813A91
:101FE000910508F055C05BC089339105F1F1823845
:101FF0009105D9F1C59709F47CC0C83AD10508F01C
:1020000094C0C53AD10528F3A497D06448C0843E53
:10201000910509F453C068F4823E9105E1F1833ED5
:10202000910509F440C0CE01805E9109089780F5C2
:1020300036C0863E910509F44CC0873E910509F4EF
:102040004DC0811523E5920708F09AC0811532E54D
:10205000930708F000C18F3F910511F008F074C09C
:10206000803F910550F2D0651AC080915F06837061
:10207000B1F0C0EED0E013C080915F0680FD15C1C5
:102080009091600690FF0BC0C3EED0E084FF07C0C4
:10209000D0E0C0E004C080915F0682FDF5CFCE01A4
:1020A000DF91CF91089580915F0682FD01C19091EB
:1020B000600690FDDECF84FFF2CFEACF809160060C
:1020C00081FFEDCF80915F06C7EED0E084FDE0CFC9
:1020D000E6CF80915F0683FDF7CFE1CF80915F0669
:1020E00083FDE9C09091600691FFE5CFC4EED0E09A
:1020F000D6CF80915F0685FFD2CFC9E2D0E0CFCFA7
:1021000080915F0685FFCBCFC5E3D0E0C8CF80913B
:102110005F0686FFC4CFCAE2D0E0C1CF80915F06E0
:1021200086FFBDCFC1E3D0E0BACFCF3BD10508F0E9
:102130007ACFC85AD0E0CC0FDD1FC259DC4F0990CE
:10214000D881C02DD464ABCFC11581E5D80798F4F0
:10215000C11520E5D20708F061C0C11530E2D307F0
:1021600008F49DCFCE0190548115904108F090CF96
:10217000DF70D06A94CFDC2FCC27C16FD06A8FCFAD
:10218000811539E59307A0F5C11588E5D80708F052
:102190007AC0C11525E5D207C8F4C11534E5D307C7
:1021A00008F06CC09E012370332781E090E002C0EC
:1021B000880F991F2A95E2F7C695C69520E2C29F1F
:1021C000E0011124C82BD92BDA6869CFCE019555CF
:1021D0008F3F910511F008F05BCF8C2F0E9479039F
:1021E000C82FD0E0DC2FCC27CC27DF71D06257CFAF
:1021F00081153AE5930708F44BC09056811590423B
:1022000008F046CF8D2F8F710E94790390E0982FB0
:10221000882788279F718C2BEC01E8CF9E0174E002
:10222000369527957A95E1F723708C2F86958695BC
:10223000837030E2839FC0011124922BC37021E090
:1022400030E002C0220F331FCA95E2F7822B932B96
:10225000EC01DC6824CF9C012370332781E090E0FF
:1022600002C0880F991F2A95E2F7C695C69520E20D
:10227000C29FE0011124C82BD92BEBCFDC2FCC2738
:10228000C46FD06A0CCFDC2FCC27C06FD06A07CFC9
:102290008F700E94790334E0D695C7953A95E1F79F
:1022A000CF709C2FEC01D069FACEC9E3D0E0F7CE15
:1022B000C2EED0E0F4CEC6EED0E0F1CEBF92CF9227
:1022C000DF92EF92FF920F931F93CF93DF938C01D6
:1022D000C0909604D0909704E0909804F0909904F0
:1022E0008091920490919304A0919404B0919504EC
:1022F000C82AD92AEA2AFB2ACFE1D0E0BC2ED7018E
:10230000C6010C2E04C0B695A795979587950A949B
:10231000D2F780FD0EC0219788F7B12C8B2DDF916D
:10232000CF911F910F91FF90EF90DF90CF90BF90D2
:102330000895B8018C2F0E94D30F019761F3EECF5F
:102340000F931F93CF93FC01828100811181882319
:1023500089F0662379F0C8010E945E11C82F682FAA
:10236000C8010E944308B8018C2FCF911F910F9193
:102370000C94C60FC8010E947108C82FF4CFCF93E8
:10238000DF93D82FC92F0E945E116D2F7C2FDF9114
:10239000CF910C94D30F0E94BF11282F892F8F70DB
:1023A000392F32953F70903C80F43A30B0F434309D
:1023B00020F4323090F480E008953630E1F781E087
:1023C000283E88F0213FB9F70EC03C3011F03F3075
:1023D00091F7869586958695089581E0203F39F09E
:1023E00018F4283E40F70895243F29F7FCCF0895BC
:1023F000CF9384E090E00E945D2CC82F81E290E0B2
:102400000E945D2C982F8C2FCF9108954F925F9250
:102410006F927F928F929F92AF92BF92CF92DF92F4
:10242000EF92FF920F931F93CF93DF9310E000E0A2
:1024300036E9632E712CE801CC0FDD1F58011CC05A
:10244000F60185909490692DC7010E947B2C682D20
:10245000C70101960E947B2C22E0C20ED11C32E003
:10246000E30EF11C4E145F0459F76E968FE0A80E30
:10247000B11CC615D70581F0C501880F991F9C01B5
:10248000295F3C4F69017E0136E2E30EF11C2E010B
:1024900084E4480E511CD4CF3E0126E9620E711C23
:1024A000055B1F4F0C3231E0130729F6DF91CF9106
:1024B0001F910F91FF90EF90DF90CF90BF90AF9062
:1024C0009F908F907F906F905F904F900895CF93E3
:1024D000DF93CEE7D2E060E0CE010E947B2C219614
:1024E000C11584E0D807B9F7DF91CF9108956BEE5D
:1024F0007EEF90E080E00E94992C60E082E090E026
:102500000E947B2C60E083E090E00E947B2C109284
:10251000920410929304109294041092950460E037
:1025200084E090E00E947B2C60E081E290E00E94D9
:102530007B2C60E085E090E00E947B2C60E086E0F0
:1025400090E00E947B2C6FEF87E090E00E947B2C54
:1025500040E050E0BA0188E090E00E948D2C60E0FD
:102560008DE090E00E947B2C40E050E0BA0188E1D1
:1025700090E00E948D2C60E087E190E00E947B2C2F
:1025800040E050E0BA018CE190E00E948D2C60E0C8
:1025900080E290E00E947B2C40E050E0BA0188E1AC
:1025A00090E00E948D2C40E050E0BA018FE090E076
:1025B0000E948D2C40E050E0BA0183E190E00C9441
:1025C0008D2C1F93CF93DF93EC01FC01E25FFC4F56
:1025D0008081909107018923A1F00E942D2C182F52
:1025E0000E942D2C782F612F809137060E94D904EC
:1025F000462F672F282FCE01DF91CF911F910C948A
:10260000B307DF91CF911F910895DF92EF92FF9270
:102610000F931F93CF93DF93EC01FC01E25FFC4F1C
:10262000808190910701892381F1D0903606009135
:10263000370610913506E12EF12C0E942D2C282F03
:10264000C7018C549F4F68E671E00E94A42B8E193D
:102650009F0997FD03969595879595958795237086
:10266000612F289F600D11247D2D802F0E94D90499
:10267000462F672F282FCE01DF91CF911F910F9109
:10268000FF90EF90DF900C94B307DF91CF911F91F3
:102690000F91FF90EF90DF9008951F921FB61F9249
:1026A00011248F939F93AF93BF9380915A0481110C
:1026B00013C08091560490915704A0915804B09192
:1026C00059044196A11DB11D80935604909357045F
:1026D000A0935804B0935904BF91AF919F918F91EB
:1026E0001F901FBE1F9018952FB7F8948091560425
:1026F00090915704A0915804B09159042FBF0895A8
:10270000AF92BF92CF92DF92EF92FF920F931F93FF
:10271000CF93DF93CAE5D3E005E516E0C12CD12CB9
:10272000EE24E394F12C8991F894E82FE295EF7070
:10273000F0E021A18F70A70102C0440F551F8A95B8
:10274000E2F7CA01922F982B91A392A18095892339
:1027500082A3789400C0EFE5F3E030E020E0B12CF4
:10276000A12C4191A42FA295AF70A05EB0E08C91F6
:1027700090E04F7002C0959587954A95E2F780FDED
:1027800048C0C701022E02C0880F991F0A94E2F7C1
:10279000A82AB92A2F5F3F4F2F30310511F7FE01CC
:1027A000319780810E94BC0354E0C51619F080EA7D
:1027B0008A95F1F7F801819191918F01A816B906D8
:1027C00059F13297B182A08281E0D82AC394F5E012
:1027D000CF12A9CFDD2011F181E080934A060E943B
:1027E000741390934906809348068091480690910F
:1027F00049060E947F090497A8F08AE0E5E5F6E023
:10280000ABE4B6E001900D928A95E1F710924A068A
:1028100009C080E090E0BCCF80E0D7CF80914A062D
:102820008111E3CF8D2DDF91CF911F910F91FF90FB
:10283000EF90DF90CF90BF90AF9008950E947413F7
:102840002091410630914206232B21F080933D06D2
:1028500090933E062091430630914406232B21F0AD
:1028600080933B0690933C06E0913906F0913A063E
:10287000309749F082E080933F060480F581E02D97
:102880008FE396E009940895CF93C82F882309F425
:102890006BC08CEF8C0F813AA8F5809113018823CF
:1028A00001F180915F0687FF1CC0EC2FE695E6954D
:1028B000E695F0E0E256FC4F828190E04C2F4770A5
:1028C00021E030E002C0220F331F4A95E2F7822355
:1028D0009323892B79F08C2F0E949A080E94CD08AF
:1028E00009C0E0EAF3E08191C817A9F323E0E63AD2
:1028F000F207C9F76C2F8EE993E00E942909CF9166
:102900000C94CD0880E28C0F883068F4C77021E009
:1029100030E001C0220FCA95EAF780919004822B23
:1029200080939004ECCF8BE58C0F833038F42C2F00
:102930002452330BC901CF910C940D08E8E5EC0F3C
:10294000E73150F4F0E0EE0FFF1FE259FC4F8081B9
:102950009181CF910C942308C03F30F08C2F0E94BE
:102960001704CF910C941E14CF910895882399F1E8
:102970009CEF980F913A20F40E949A080C94CD088D
:1029800090E2980F983088F4877021E030E0A90138
:1029900002C0440F551F8A95E2F7CA0180959091B5
:1029A0009004892380939004E9CF9BE5980F93309E
:1029B00020F490E080E00C940D0898E5980F973192
:1029C00020F490E080E00C942308803F20F00E94E7
:1029D00060040C941E1408950F931F93CF93C82F77
:1029E00010E000E0893311F400E510E08C2F0E9424
:1029F00044140115110531F48C2FCF911F910F91C3
:102A00000C94B6148FE99FE00197F1F700C0000025
:102A100001501109EECF90E080E00E940D0890E097
:102A200080E00E94230810929B0410928D040E9463
:102A3000CD0886E0EFE3F6E0DF011D928A95E9F725
:102A40001092460610924506109247060C941E14EA
:102A50001092900480911301E0EAF3E0882359F08A
:102A600080915F0687FF07C08EE1DF011D928A9586
:102A7000E9F70C940B1586E0F8CF1F93CF93DF9303
:102A8000CDB7DEB7AA970FB6F894DEBF0FBECDBFA5
:102A900084EC93E0FC0101962091F100208323E077
:102AA0008C3C9207B9F78091C503893009F456C070
:102AB000C8F4823009F4B2C0833009F481C0813097
:102AC00071F18091E80083FF81C28091C4039091ED
:102AD000C5039A3008F07AC2E92FF0E0EC5EF24DBF
:102AE0000C94B82B8A3009F488C08B3051F7809150
:102AF000C403813231F78091C8039091C903892BB7
:102B000001F78091E800877F8093E8000E94EB093D
:102B10008091C603809313010E942815D2CF809123
:102B2000C403813A71F68091E800877F8093E800C2
:102B30008091C8039091C903892B61F460E285E319
:102B400094E070E00E9491098091E8008B77809377
:102B5000E800B7CF60E090E080E0F3CF8091C4035D
:102B6000813209F0AECF8091C8039091C9038D7F67
:102B7000892B09F0A6CF8091E800877F8093E80039
:102B80008091E80082FF17C09091F3008091F200DD
:102B9000029729F48091F1008B7F813021F480919C
:102BA000F100809355048091E8008B778093E800D2
:102BB0000E94EB0986CF809134048111E1CF81CF4F
:102BC0008091C403813A09F07CCF8091C803909131
:102BD000C903892B09F075CF8091E800877F809326
:102BE000E8008091E80080FFFCCF80911301809382
:102BF000F1008091E8008E77D9CF8091C4038132B3
:102C000009F05FCF8091E800877F8093E8000E9401
:102C1000EB098091C7038093C00353CF8091C40315
:102C2000813A09F04ECF8091E800877F8093E800D9
:102C30008091E80080FFFCCF8091C003D8CF80381E
:102C400099F0823809F0C2C18091C8038F70873033
:102C500008F0BCC18093E9008091EB0085FB8827D8
:102C600080F91092E90006C08091C103909133046D
:102C7000911182609091E800977F9093E800809393
:102C8000F1001092F1008091E8008E779BC18823BB
:102C900009F489C1823009F099C18091C60381117C
:102CA0008CC18091C8038F702FEF280F263008F059
:102CB0008DC18093E9002091EB0020FF7EC193300D
:102CC00031F48091EB0080628093EB0076C19091AB
:102CD000EB0090619093EB0021E030E001C0220F07
:102CE0008A95EAF72093EA001092EA008091EB00BF
:102CF0008860EACF81116AC11091C6031F77809165
:102D0000E3008078812B8093E3008091E800877F47
:102D10008093E8000E94EB098091E80080FFFCCFDF
:102D20008091E30080688093E30082E0111183E0EA
:102D3000809334044BC18058823008F047C14091E1
:102D4000C6035091C7034C3D83E0580799F583E0D3
:102D50008A838AE289834FB7F894DE01139620E0D4
:102D60003EE051E2E32FF0E050935700849120FFC2
:102D700003C082958F703F5F8F708A30C8F0895C86
:102D800090E08D939D932F5F243161F74FBF809129
:102D9000E800877F8093E8006AE270E0CE01019648
:102DA0000E9491098091E8008B778093E8000EC122
:102DB000805DE6CF8091C8039091C903252F33270A
:102DC0002330310509F44AC078F52130310509F482
:102DD00079C08BE590E0E4ECF1E02230310509F0B8
:102DE000F5C02091E800277F2093E8002091CA03D6
:102DF0003091CB038217930708F49C0140E0211522
:102E0000310509F064C0411162C08091E80082FD83
:102E1000C9CF80913404882329F2853019F280913A
:102E2000E80083FFF2CFBECF2132310509F43BC069
:102E30002232310509F0CAC08330910508F0C6C0BE
:102E4000FC01EE0FFF1FE15EFE4F0190F081E02DCF
:102E5000845E9E4FDC018C9190E011C0CA019927DD
:102E6000413089F082309105B1F0892B09F0AEC074
:102E7000E3E5F2E0E4918E2F90E0E3E5F2E00097E5
:102E800009F4A4C0AECFE3E4F2E0E4918E2F90E029
:102E9000E3E4F2E0F4CFE1E3F2E0E4918E2F90E09E
:102EA000E1E3F2E0ECCF8330910508F08FC0880FAA
:102EB000991FFC01EB5DFE4F0190F081E02D89E050
:102EC00090E08FCF82E190E0EFE1F2E08ACF809155
:102ED0003404882309F466CF853009F463CF8091E8
:102EE000E80083FD5FCF8091E80082FD8ECF809166
:102EF000E80080FF84CF9091F3008091F2002115CB
:102F0000310519F08830910550F041E0089709F03B
:102F100040E08091E8008E778093E80070CF449184
:102F20004093F1003196215031090196E8CF803865
:102F300009F04CC08091E800877F8093E800809181
:102F4000C2038093F1009FCE811140C01091C6034F
:102F50001230E0F58091E800877F8093E8001093BD
:102F6000C2030E94EB09112311F084E005C0809197
:102F7000E30087FDFACF81E08093340442E061EC06
:102F800081E00E941D0C42E261EC84E00E941D0C75
:102F900042E261EC82E00E941D0C42E260EC83E0C0
:102FA0000E941D0C13C08091C603813079F481E02A
:102FB000933009F080E0809333041092E90080910F
:102FC000E800877F8093E8000E94EB098091E80089
:102FD00083FF0AC08091E800877F8093E80080919A
:102FE000EB0080628093EB00AA960FB6F894DEBFE8
:102FF0000FBECDBFDF91CF911F91089560939204D2
:103000007093930480939404909395040C940B15FF
:103010006093960470939704809398049093990416
:103020000C940B150F931F93CF93DF9300D000D018
:10303000CDB7DEB741E050E060E070E004C0440F7F
:10304000551F661F771F8A95D2F78091960490913D
:103050009704A0919804B09199048A019B01082BD0
:10306000192B2A2B3B2B09831A832B833C83C90101
:10307000B8010F900F900F900F90DF91CF911F919B
:103080000F910C9408180F931F93CF93DF9300D0E8
:1030900000D0CDB7DEB741E050E060E070E004C0A2
:1030A000440F551F661F771F8A95D2F7409550959C
:1030B000609570958091960490919704A0919804E2
:1030C000B09199048A019B01082319232A233B23E9
:1030D00009831A832B833C83C901B8010F900F9099
:1030E0000F900F90DF91CF911F910F910C940818C2
:1030F00090919A048095892380939A04282F2770B1
:1031000071F4282F082E000C330B9217130639F098
:103110008595859585950E94431810929A04089587
:10312000CF93DF9300D000D0CDB7DEB78091960467
:1031300090919704A0919804B0919904AC01BD01BD
:1031400046705527662777279C0146305105610553
:10315000710591F4AD01286029833A834B835C8328
:1031600069817A818B819C810F900F900F900F90D5
:10317000DF91CF910C940818AD01277FEDCFFF921E
:103180000F931F93CF93DF93C62FD42F122F882333
:10319000A9F060938E040E9474139093BF038093F0
:1031A000BE03C77081E001C0880FCA95EAF7DF91BE
:1031B000CF911F910F91FF900C94120980918E0472
:1031C000681334C08091BE039091BF030E947F09B1
:1031D000883C910558F500E20D0FCD17A9F0C77096
:1031E000FF24F3948F2D01C0880FCA95EAF70E943F
:1031F0001C09083048F48D2F877001C0FF0C8A9598
:10320000EAF78F2D0E941209812F0E94EC140830DA
:10321000A0F4D77081E001C0880FDA95EAF7DF915A
:10322000CF911F910F91FF900C941C09C77081E002
:1032300001C0880FCA95EAF7F2CFDF91CF911F91B5
:103240000F91FF9008953F924F925F926F927F92FD
:103250008F929F92AF92BF92CF92DF92EF92FF92A6
:103260000F931F93CF93DF93CDB7DEB728970FB699
:10327000F894DEBF0FBECDBF7C01FC01908181813F
:1032800023813481232B21F089238F3F09F0A8C5A6
:1032900028960FB6F894DEBF0FBECDBFDF91CF9159
:1032A0001F910F91FF90EF90DF90CF90BF90AF9064
:1032B0009F908F907F906F905F904F903F90089578
:1032C000980122513F452031310508F035C58FEF77
:1032D00093E00E945D2C02514EE7842E42E0942E32
:1032E000882379F180919A04877091F2F7018281A5
:1032F000882371F282E028960FB6F894DEBF0FBEE5
:10330000CDBFDF91CF911F910F91FF90EF90DF9094
:10331000CF90BF90AF909F908F907F906F905F9075
:103320004F903F900C9478188114F4E09F06D1F2EE
:10333000C4010E945D2C811101C001501FEF811A50
:10334000910A0111F1CF8091180190911901A0917A
:103350001A01B0911B0189839A83AB83BC834424F7
:1033600043943AE0332E84010F5F1F4FC4010E9443
:103370005D2C89831A82882309F4B4CF9FEF980FBC
:103380009330F8F48A83498222E0820E911CC801AE
:103390000E945D2C8B83882309F4A4CF8E010F5FDC
:1033A0001F4FF80120812223F1F29181213009F091
:1033B00044C08281913039F40E5F1F4F0E94EC149B
:1033C00008C04801EBCF923039F40E5F1F4F0E94C6
:1033D00044140F5F1F4FE5CF933029F40E5F1F4F4A
:1033E0000E94B614F6CF943019F00F5F1F4FF1CF43
:1033F0000E5F1F4F20E030E0B8016F5F7F4FF80194
:1034000041818053990B8A30910560F02115310577
:1034100001F38FE99FE00197F1F700C00000215010
:103420003109F4CF329EF001339EF00D11249C013E
:103430002E0F3F1F842F8B01DFCFE22FF0E0E957E3
:10344000FD4F5490822F86958695869590E0FC01DD
:10345000E958FD4FE4912770F0E0022E02C0F59587
:10346000E7950A94E2F73F0131E063227724FC01FB
:10347000E959FD4FA490B12C022E02C0B594A79437
:103480000A94E2F741E0A422BB24FC01E95AFD4F73
:10349000C490D12C02C0D594C7942A95E2F751E08C
:1034A000C522DD246114710419F081EE0E944414D8
:1034B000A114B10419F086EE0E944414852D0E94D7
:1034C000EC14AB2819F086EE0E94B614672819F0A8
:1034D00081EE0E94B614CD2809F47BCF8CE26ECF2A
:1034E00081E00E9412180E949018FCCE81E00E9498
:1034F0004318F9CF82E0F5CF053F2CE51207D9F04C
:1035000027E245EE66EE063F3CE5130781F0043FF7
:103510004CE5140709F035C427E245EE64EE07C018
:1035200027E245EE65EE03C026E241EE60EE892F0C
:103530000E94BF18D7CE26E241EE62EEF8CF980186
:103540002A5F3C452930310508F42AC40631ECE5F0
:103550001E0709F0C7C080919004992309F4B8C0F0
:103560008A7A91E009F490E090938F0469E28111E6
:1035700065E38EE993E00E9429090E94CD08B2CE4E
:10358000F801E350FC4580915F068160E331F1056D
:10359000B8F4E25EF24D0C94B82BC8018A5F9C45EA
:1035A000099708F00DC4F801EB5FFC45E830F10520
:1035B00090F4EF5CF24D0C94B82B80915F06826022
:1035C00080935F06FDC380915F068460F9CF809190
:1035D0005F068860F5CF8091600681608093600609
:1035E000EFC3809160068260F9CF80915F068061B1
:1035F000E7CF80915F068062E3CF80915F068064B1
:10360000DFCF0E94281580915F068068D9CF809116
:103610005F068C60D5CF809160068360DFCF80919C
:103620005F068E7FCDCF80915F068D7FC9CF809161
:103630005F068B7FC5CF80915F06877FC1CF80916A
:1036400060068E7FCBCF809160068D7FC7CF809143
:103650005F068F7EB5CF80915F068F7DB1CF809161
:103660005F068F7BADCF0E94281580915F068F7714
:10367000A7CF80915F06837FA3CF809160068C7F68
:10368000ADCF80915F0682FB992790F921E09227C8
:1036900090FB82F990FB83F993CF80916006982F7D
:1036A000909591708E7F892B90FB81F997CF0E9426
:1036B000281590915F06892F97FB87F9805880CF56
:1036C00061E08EE090E00E947B2C7AC360E0F9CF4D
:1036D00080918F04811104C089E20E949A084DCF25
:1036E00085E3FBCF992309F462C080919004827234
:1036F000F801E25CFC45E431F10508F04DC0E75CFF
:10370000F24D0C94B82B8091340691E08927809378
:103710003406109214010E946E0DE4CD41E15EE08A
:1037200067E07EE00E94FC07DDCD47E05EE061E1FE
:103730007EE0F8CF44EB5DE06BEA7DE0F3CF4BEA4F
:103740005DE064EB7DE0EECF49EC5DE06DEB7DE0AC
:10375000E9CF4DEB5DE069EC7DE0E4CF41EE5DE06B
:1037600065ED7DE0DFCF45ED5DE061EE7DE0DACF38
:1037700041E95DE067E87DE0D5CF47E85DE061E9DC
:103780007DE0D0CF81E00E94ED0DACCD84E0FBCF99
:1037900089E0F9CF8EE0F7CF992349F00115FCE5D8
:1037A0001F0709F443C00E3D1C4509F44CC0F70146
:1037B000C080D180992309F449C0C6010E945E11DE
:1037C000182F682FC6010E944308B601812F0E945E
:1037D000D30F8C01F7019280858082942FE08222A2
:1037E00080919A048770A1F0B92C992091F0812FD3
:1037F000807F803421F080E2800F883048F082E0C2
:103800000E94781880919A048770BB24B394811128
:10381000B12C812F82958F70C82ED12C8C3008F05E
:1038200050C0F601E35BF24D0C94B82B0E942815B2
:103830003FEF44E35CE0315040405040E1F700C0CE
:1038400000000E94AE0C0E9477124CCDC6010E946F
:103850007108182FBACFF12FFF70AF2E107F19F01B
:10386000A29490EFA9229920C9F0AA2069F080E2E1
:10387000800F883010F001110BC0809190048A29CC
:10388000809390040E94CD08802F0E94441419C098
:1038900080919B048A2980939B04F4CF802F0E94FF
:1038A000B614AA2071F0A09480E2800F883010F046
:1038B000011142C0809190048A21809390040E945B
:1038C000CD08E8E0CE1AD108F4E0CF16D10410F408
:1038D0000E940108BB20A9F080919A0480FD11C0CC
:1038E000F70112828595859585950E941218C7016A
:1038F0000E94231980919A048595859585950E944B
:10390000431860E0C70128960FB6F894DEBF0FBEDB
:10391000CDBFDF91CF911F910F91FF90EF90DF907E
:10392000CF90BF90AF909F908F907F906F905F905F
:103930004F903F900C94A01180919B048A2180931A
:103940009B04BDCF212F2F70A22E107F103219F0B3
:10395000A29480EFA822002369F0013061F1992040
:10396000B9F1882071F1F701858180FF8DCF8F70CB
:10397000858327C0992091F0909191048A2D892BFD
:10398000811003C00E9412099CCF31E08312FACF4C
:10399000981709F496CF8093910493CF811006C0B5
:1039A0000E94C7088A2D0E941C098BCF41E0841613
:1039B00009F487CFF5CF992031F055E0581508F478
:1039C00080CF8A2DDFCF64E0681508F47ACFEACF84
:1039D000882041F3093349F4FFEF17EE23E0F1505B
:1039E00010402040E1F700C00000802F0E94B61474
:1039F00068CF812F86958695837061F0813009F0BC
:103A000060CFC8019370911002C090E080E00E94E6
:103A1000230857CFC8019370911002C090E080E056
:103A20000E940D084ECF802F992029F00E94170484
:103A30000E941E1446CF0E946004FACF812F83702B
:103A400009F07AC091103DCF202F2295269527703E
:103A5000220F220F402F4F7050E070E060E0022EE6
:103A600004C0440F551F661F771F0A94D2F780E0E9
:103A700090E0DC0104FF0FC08FE090E0A0E0B0E038
:103A800004C0880F991FAA1FBB1F2A95D2F78095E3
:103A90009095A095B095E12FE695E695E370E2301C
:103AA00059F1E33009F441C000919204109193045C
:103AB0002091940430919504E13099F0842B952B5A
:103AC000A62BB72BAC01BD014023512362237323E6
:103AD0004D835E836F837887CB01BA010E94FE1706
:103AE000F0CE042B152B262B372BB901A801482B20
:103AF000592B6A2B7B2BECCF842B952BA62BB72B2A
:103B000040919204509193046091940470919504B3
:103B10008C019D0104271527262737270D831E8337
:103B20002F833887C901B801D9CF8A019B01082B9F
:103B3000192B2A2B3B2BF2CF992009F44CC010FFF4
:103B4000C0CE202F229526952770220F220F402FBE
:103B50004F7050E070E060E0022E04C0440F551F2B
:103B6000661F771F0A94D2F780E090E0DC0104FF23
:103B70000FC08FE090E0A0E0B0E004C0880F991F74
:103B8000AA1FBB1F2A95D2F780959095A095B09556
:103B9000E12FE695E695E370E23059F1E330E1F18B
:103BA0000091960410919704209198043091990403
:103BB000E130A1F0842B952BA62BB72BAC01BD01D6
:103BC00040235123622373234D835E836F83788761
:103BD000CB01BA012DC011FF74CEB3CF042B152B2E
:103BE000262B372BB901A801482B592B6A2B7B2B8D
:103BF000EBCF842B952BA62BB72B4091960450919D
:103C0000970460919804709199048C019D01042798
:103C100015272627372706C08A019B01082B192B59
:103C20002A2B3B2B0D831E832F833887C901B801B4
:103C30000E94081846CE1F70992029F0812F0E94FB
:103C40001218802F9FCE802F0E941C09812F0E9466
:103C5000431837CE023FD9F160F4003FF1F0013F45
:103C600079F1992009F458C081100ECE812F8F71FF
:103C70002BC0033F89F1043FA1F7992009F441C00B
:103C80001F71812F0E94121858E0159FC001112446
:103C9000836080939A04812F17C025E0911024E05F
:103CA000281508F40ECE1F7181E090E0A0E0B0E08E
:103CB00004C0880F991FAA1FBB1F1A95D2F79DCF6A
:103CC000812F8F71992019F20E941218FACD812F3D
:103CD0008F719920C9F3BBCF60E070E0CB019920D0
:103CE00009F4A6CF1F7181E090E0A0E0B0E0AC0144
:103CF000BD0104C0440F551F661F771F1A95D2F7E8
:103D000063CF81E00E94781861E0681508F0D9CD92
:103D100082E00E947818D5CD882059F0093309F047
:103D200064CE7FEF87EE93E0715080409040E1F7E2
:103D30005ACE812F8F718BCF0031FFE51F0709F419
:103D4000CFCB01312FE5120709F4D4CB033F6CE54B
:103D5000160709F4E9CB08F0CFCB083D8CE518072E
:103D600009F4DECB28E241E0093DECE51E0709F449
:103D7000D9CB26E241EE61EE073DFCE51F0709F4D1
:103D8000D6CB992309F4E2CB10928E0406315CE580
:103D9000150708F0D4CB02306CE5160708F4A5CC63
:103DA0000E94F8119093600680935F0606317CE5CF
:103DB000170708F0F2CB02308CE5180708F0E0CBCB
:103DC00060915F061091600684E090E00E947B2C79
:103DD000612F81E290E00E947B2C0E94281582CA0C
:103DE00061E0C7010E94A0118C01F701928191113D
:103DF00067CA00313FE5130709F478CB01314FE57D
:103E0000140709F0A3CF82E072CB1F93CF93DF9307
:103E10008091D304807FA9F48091D004882389F015
:103E200080919D04C0919C047091CE046091CF0458
:103E3000A091D104B091D204D62FD72316E0C81395
:103E400004C0DF91CF911F91089590E0109711F079
:103E5000DF3F19F401968770F2CF189F9001199FE8
:103E6000300D1124F901E256FB4F41816413F2CF6A
:103E700040814713EFCF42814111ECCF4381548100
:103E80004A1B5B0B483C510528F78091D3048F7087
:103E900080618093D304F901ED55FB4F80818F70D1
:103EA000806180838EEC94E00E942319DF91CF9192
:103EB0001F910C9439088F929F92AF92BF92DF921C
:103EC000EF92FF920F931F93CF93DF93CDB7DEB79F
:103ED0002B970FB6F894DEBF0FBECDBF8C0185E0E7
:103EE000F801DE01179601900D928A95E1F7F8012D
:103EF000E28030812181A380B4808EEC882E84E022
:103F0000982E8091CE049091CF044091D10450918D
:103F1000D2044115510529F0682F69236F3F09F03C
:103F20001AC1EE2009F425C18F8198850E94CB111A
:103F3000F82E882309F41DC186E0F801AEECB4E048
:103F400001900D928A95E1F70E94051F1EC0D09046
:103F5000D3046D2D607F483C510508F0A3C061116A
:103F6000BFC0FE2C291324C0831322C0E11020C03F
:103F70008D2D8F7080618093D3048EEC94E00E942D
:103F800023198091D304F80185838F2D2B960FB6CA
:103F9000F894DEBF0FBECDBFDF91CF911F910F917F
:103FA000FF90EF90DF90BF90AF909F908F9008951B
:103FB000AB2829F0822F83238F3F09F08EC080E049
:103FC000F82FF170DF2EE0919D0440919C0456E0A3
:103FD00080FD1CC0EE20C9F28091D30481608093E3
:103FE000D304F12CD2CF8E2F90E05E9FF0011124EC
:103FF000E256FB4F6181261306C06081361303C071
:1040000062816E11E7CF0196E82FE770E413EBCFE2
:104010008F8198850E94BF11292F22952F70903291
:1040200060F0225F2F70223078F49F7051F0F80119
:104030009581907F31F4D12C0AC09F7011F08823B4
:10404000D1F3805E8830B8F3C8010E942319FD2C9B
:104050009CCF8F8198850E94CB11882309F489C059
:10406000EE2009F486C08091D304803270F08091F4
:10407000CE049091CF049A8389831B82BD82AC8247
:10408000DE82CE0101960E94231986E0F801AEEC93
:10409000B4E001900D928A95E1F70E94051FFF247C
:1040A000F39473CF611130C08EEC94E00E94231919
:1040B00086E0F40111928A95E9F793CF8F81988574
:1040C0000E94CB118111E1CF8091D3048160809354
:1040D000D304C8010E94231958CF81E08E2570CFE8
:1040E0002913B7CF8313B5CFE110B3CFF801D58231
:1040F000C8010E94231986E0F801AEECB4E00190FB
:104100000D928A95E1F741CF2913A3CF8313A1CF55
:10411000E1109FCFF801D582C8010E94231986E0E3
:10412000F40111928A95E9F730CF2913C7CF831391
:10413000C5CF8091D30480FDDECF982F907FD9F238
:10414000F8018583903FA1F2982F907F905F8F7048
:10415000892B8583CDCFF090D004B501641B750BFE
:10416000AB01F110F4CE483C5105C8F6FE2CE1102D
:10417000DCCFC8010E94231992CF1F93CF93DF9306
:10418000CDB7DEB767970FB6F894DEBF0FBECDBFD1
:104190004B8B5C8B962F6D8B7E8B8F8B611110926E
:1041A0009B041A8A85E0FE017396DE011D9601903C
:1041B0000D928A95E1F79F8786E0FE013D96DE012C
:1041C000179601900D928A95E1F7CE0107960E940D
:1041D0005B1F882389F016E080919D0490919C04D8
:1041E000891349C067960FB6F894DEBF0FBECDBFE6
:1041F000DF91CF911F91089586E0FE013796DE0191
:10420000119601900D928A95E1F78F819885209102
:104210009C0440919D046A857B85672BE1F289238C
:104220008F3FC9F230E0C90101968770992748177E
:10423000190671F40E94281510929C0410929D0496
:1042400086E0EEECF4E0DF011D928A95E9F7C3CF3A
:1042500096E0929FD001939FB00D1124A256BB4FC0
:10426000FE01319601900D929A95E1F780939C049E
:104270000E943908B0CF819FC001112482569B4F04
:104280000E945B1F882309F4ADCF80919D0490E0CC
:1042900001968770992780939D049ECF78941F92F2
:1042A0001FB61F9211248F939F93AF93BF9380915A
:1042B000560490915704A0915804B0915904019666
:1042C000A11DB11D8093560490935704A0935804E8
:1042D000B0935904BF91AF919F918F911F901FBED2
:1042E0001F901895CDB7DEB7A9970FB6F894DEBF2B
:1042F0000FBECDBF84B7877F84BF0FB6F894A89553
:1043000080916000886180936000109260000FBE11
:1043100080E890E00FB6F89480936100909361007C
:104320000FBE85B7806885BF85B7806885BF87E287
:1043300099E090939D0380939C030E943B0A0E9406
:104340004D0C8091E20084608093E200789480912B
:104350003404882399F08091E9001091EC001795BE
:10436000112717958F70182B1092E9008091E800A3
:1043700083FD0E943D151F701093E90082E084BD0B
:1043800093E095BD9AEF97BD80936E0080EF0E94F9
:10439000BC0381EF0E94BC0384EF0E94BC0386EC47
:1043A0000E94BC0386E60E94BC030FE513E07EE694
:1043B000E72E73E0F72ED8018D918D010E94BC038A
:1043C000E016F106C1F78AE0E5E5F6E0DF01682EC8
:1043D0001D926A94E9F7EBE4F6E0DF011D928A95FD
:1043E000E9F70E948013EFEBFDE53197F1F700C08C
:1043F00000000E94801380914B0680FF17C06FEF72
:1044000082E290E00E947B2C6FEF83E290E00E94BA
:104410007B2C6FEF84E290E00E947B2C6FEF7FEFAC
:1044200090E080E00E94992C0E94AE0C90E080E029
:104430000E94652C8B3E9E4F11F00E9477120E94C5
:10444000A00E1092F90340E150E06FEF70E082E1BE
:1044500094E00E94462C1092CC0340E150E06FEFB4
:1044600070E085EE93E00E94462C90E080E00E9490
:10447000652C8B3E9E4F21F00E9477120E94760D94
:1044800045E050E06CE170E084E396E00E944D2C42
:10449000809134068C7F11F40E94760D82E290E0C8
:1044A0000E945D2C813209F032C783E290E00E94C5
:1044B0005D2C853009F02BC784E290E00E945D2CD2
:1044C000863109F024C790E080E00E94652C8B3E85
:1044D0009E4F11F00E94771282E090E00E945D2CC6
:1044E000809328040E94F8119093600680935F06E1
:1044F00083E090E00E945D2C282F30E050E040E007
:104500002EA33FA348A759A7CA01B9010E94FE17CD
:1045100089E091E090933A068093390611E064E4D3
:10452000262E312C80913404853009F04CC08091C6
:104530003404853009F041C080913404843059F14D
:1045400040E060E080E00E94B507109326041092DE
:104550005A0480E448E150E00FB6F894A8954093DF
:1045600060000FBE8093600083B7817F846083BF4B
:1045700083B7816083BF7894889583B78E7F83BF2C
:104580000FB6F894A89580916000886180936000D0
:10459000109260000FBE80913304882371F00E9456
:1045A0008013EBE4F6E081919191892B09F08AC6A2
:1045B00085E596E08E179F07B1F70E9428150E94A7
:1045C0000108109226040E94801381110E945F0945
:1045D0005BE4852E56E0952EE9E2F4E0D401F12C5F
:1045E000E12C6E2D6D907D9021913191261537052E
:1045F00009F40DC12625372500E0CC24C394D12C25
:10460000A9014C215D21452B09F4FBC009836A8374
:104610006C207D2081E06114710409F480E08B83BB
:104620000E9474138160782F9D838C8349815A8105
:104630006B81892F0E94BD20F701EE0FFF1FE75D00
:10464000FB4F808191818C259D25918380836728F4
:1046500071F08FE08E9DF0018F9DF00D1124E55CCF
:10466000FD4FE00FF11D80818F3F09F046C000E053
:104670007090CC03E02EF12CC701870D911D099796
:1046800064F1B8E0CB2ED12CCE18DF08B70163530C
:104690007C4FA6018DEC93E00E943D2CB7016B523C
:1046A0007C4FA60185ED93E00E943D2CA601440FAE
:1046B000551FB701660F771F6B517C4F85EE93E056
:1046C0000E943D2CB70163527C4FA6018DED93E013
:1046D0000E943D2C7A947092CC038091CC0390E0A0
:1046E000AB2DB0E09D01220F331F2A573D4FAA0F7B
:1046F000BB1FBD0169577D4F17C0B82E01E0B8CF71
:1047000090E0FC01E453FC4FD9015C915183DB0143
:104710005C915187B18A880F991FFC01E453FC4FCB
:10472000128E118E842F91E041E0480F901740F3D4
:104730008093CC03C090F503D090F603E090F7038C
:10474000F090F8038FB7F8944090560450905704B7
:1047500060905804709059048FBFD301C2018C1926
:104760009D09AE09BF098EA39FA3A8A7B9A70E9460
:104770005F096093F5037093F6038093F7039093BA
:10478000F803A091CC03ECECF3E04A2F50E0BFEF2C
:10479000CB0EDB1EE11CF11CC418D508E608F70897
:1047A000A5134EC04093CC0320912604D12C211197
:1047B00009C020913406322F3370D32E19F0D22E37
:1047C000D694D69420911401223009F4F7C308F04E
:1047D0004CC0211148C110920601609322047093CD
:1047E0002304809324049093250489E2ECECF3E005
:1047F000A9EFB3E001900D928A95E1F710931401AF
:1048000037C00F5FCC0CDD1C0F3009F0F9CE2FEF55
:10481000E21AF20A35E0E316F10409F0E2CE8FEF76
:1048200089A38AA31BA20E9474138160782F9DA381
:104830008CA349A15AA16BA1892F0E94BD207ACFD8
:10484000218D328D2901712C612CC414D504E6040C
:10485000F70420F441505F5F3296A2CF6EA07FA094
:10486000260D371D328F218FF6CF233009F4B3C3C5
:1048700086E0EFE3F6E0DE01119601900D928A9555
:10488000E1F7D0904106C0904206F0904306E090D8
:10489000440610924106109242061092430610926E
:1048A00044068D2D8C2909F448C080913D069091D5
:1048B0003E060E947F099C0180914606882309F4E8
:1048C0004DC523333105C8F18F3F19F08F5F8093B9
:1048D0004606DD2059F00E94D5039FEF1D140CF40D
:1048E00091E0899F802D112480934106CC2059F0BE
:1048F0000E94D5039FEF1C140CF491E0899F802D3A
:10490000112480934206309141063323B1F0209167
:104910004206222391F045EB3403C0011124992370
:1049200009F478C39093410655EB250390011124B7
:10493000332309F472C3309342068F2D8E2909F474
:1049400048C080913B0690913C060E947F099C01E3
:1049500080914506882309F4FCC425363105C8F149
:104960008F3F19F08F5F80934506FF2059F00E941A
:10497000F5039FEF1F140CF491E0899F802D112403
:1049800080934306EE2059F00E94F5039FEF1E141A
:104990000CF491E0899F802D11248093440630917E
:1049A0004306209144063323A1F0222391F045EBE6
:1049B0003403C0011124992309F432C390934306B0
:1049C00055EB250390011124332309F42CC33093B4
:1049D00044068091410690914206892B90914306AE
:1049E000892B90914406892B11F00E941E1486E0B9
:1049F000FE013196AFE3B6E001900D928A95E1F7A2
:104A00000E94010890912704891721F00E94010853
:104A10008093270480913404843009F083CD83E0AF
:104A20008093E9008091E80082FF7CCD8091E800CE
:104A300090E085FF06C00E940A0A882309F4F6C2A6
:104A400091E08091E8008B778093E800992309F446
:104A500069CDE981E150E33108F06AC3F0E0E75A3B
:104A6000F24D0C94B82B80910501D81218C090918A
:104A7000340693702091040130E081E09217130610
:104A800009F480E0082F01700093080148E14D15FA
:104A900050F0ED2DF0E0E459F24D0C94B82B81E08C
:104AA000F1CF011102C000E065C040E060E080E0AD
:104AB0000E94B507F8CFE0900601EE0CEE0C64E022
:104AC000C62ECE0C0C2D54E45C1508F404E4609161
:104AD000350670913606809137060E94D904A62EBD
:104AE000772E682EF12CE01630F001E093E49C154F
:104AF00008F040C0D8CFF701E25FFC4F8081909171
:104B00000701892331F0262D4A2D672DC7010E9408
:104B1000B3078FEFE81AF80AE6CFE0900601EE0C33
:104B2000EE0C54E0652E6E0C6EA2062D053408F0D6
:104B300004E440903606A0903706F09035066F2DBD
:104B4000742D8A2D0E94D904762E672E582E8091BE
:104B500038066F2D680F742D8A2D0E94D904462EB9
:104B6000A72EC82EF12CE01658F101E03EA13434F6
:104B700008F099CF809106018F5F809306010111A3
:104B800019C282E08093140180910801811112C240
:104B9000DD2009F41CC2E0913906F0913A06309705
:104BA00009F466CE0190F081E02D099581FF60CE79
:104BB0002FEF4FEF6FEF8EE190E00E94B30758CEDA
:104BC000F701E25FFC4F908180910701892359F042
:104BD0002C2D442D6A2D90FD03C0252D472D662DCB
:104BE000C7010E94B3072FEFE21AF20ABCCFE09090
:104BF0000601EE0CEE0C44E0C42ECE0C0C2D44E469
:104C00004C1508F404E46090360650903706209165
:104C1000380630E4A32E5A2D529F512D1124A52E73
:104C2000F12CE01608F061CFF701E25FFC4F8081C4
:104C3000909107018923D9F0F701EE0FFF1FEA5782
:104C4000FD4F8081A89EC001112425E09595879590
:104C50002A95E1F760913506680F762D852D0E9423
:104C6000D904462F672F282FC7010E94B3078FEF63
:104C7000E81AF80AD6CFE0900601EE0CEE0CA4E09C
:104C8000CA2ECE0C0C2DA4E4AC1508F404E4A090BC
:104C90003506F090360670903706609138066695B6
:104CA0006695669580912204909123040E946A057E
:104CB0000E94A405805887FD8195880F282F372DE5
:104CC000239F212D11246A2D7F2D822F0E94D9042C
:104CD000A62E772E682EF12CE01630F001E053E47A
:104CE0005C1508F047CFDFCEF701E25FFC4F808113
:104CF00090910701892331F0262D4A2D672DC70198
:104D00000E94B3074FEFE41AF40AE6CF82EF95E072
:104D10000E94F70A04C08FE196E00E94400B082F22
:104D200029CF8EE396E00E949E0BF9CF89E596E0AD
:104D3000EFCF8BE596E0ECCF84E696E0E9CF8DE609
:104D400096E0E6CF86E896E0EECF85E996E0E5CFFF
:104D50008EEB96E0E2CF8FEC96E0E5CF83EE96E027
:104D60000E94840ADCCF81E197E0FACF80E497E0EB
:104D7000F7CF01111BC06091380620E1620F08F4E3
:104D80006FEF80912204909123040E946A056AE0EB
:104D900070E00E94902B892B09F085CE0E942D2C6B
:104DA000B1010E94A42B0E940513E4CE609006017D
:104DB000660C660CF4E0CF2EC60C9C2D34E43C153A
:104DC00008F494E4712CE92EF12C6E147F040CF09D
:104DD00085CFC3010E9405134FEF641A740AF5CF03
:104DE00001111BC06091380620E1620F08F46FEFDB
:104DF00080912204909123040E946A0565E070E08E
:104E00000E94902B892B09F04ECE0E942D2CB101CF
:104E10000E94A42B0E94E112ADCE60900601660CA8
:104E2000660CE4E0CE2EC60C9C2D34E43C1508F450
:104E300094E4712CE92EF12C6E147F040CF04ECF0B
:104E4000C3010E94E1124FEF641A740AF5CFE0909B
:104E50000601EE0CEE0C74E0C72ECE0C0C2D84E493
:104E60008C1508F404E470903606A0903706F09094
:104E700035066091380666956695669580912204A0
:104E8000909123040E946A050E94A405805887FD22
:104E90008195880F682F2CE0629F612D11246F0D82
:104EA000772D8A2D0E94D904A62E772E682EF12CFC
:104EB000E01630F001E0A3E4AC1508F05BCEF3CDD2
:104EC000F701E25FFC4F808190910701892331F067
:104ED000262D4A2D672DC7010E94B3079FEFE91ABF
:104EE000F90AE6CF89E797E013CF8CE997E010CF76
:104EF000E0900601EE0CEE0C64E0C62ECE0C0C2DFC
:104F0000B4E4BC1508F404E42091380630E050E025
:104F100040E06FEF7FEF80E090E00E949F2C39012E
:104F2000F12C522E472C4E2DE01630F001E0F3E428
:104F3000FC1508F01FCEB7CDF701E25FFC4F808172
:104F4000909107018923F9F02091F9032150022E55
:104F5000000C330B27FF1BC0852D942D6091380664
:104F60000E946A05AC016091350670913606809109
:104F700037060E94AD070E94D904462F672F282FBD
:104F8000C7010E94B307EFEFEE1AFE0ACCCFF9017A
:104F9000E750FC4F818984130AC0F901EE0FFF1F0F
:104FA000E750FC4F818D928D86159705B8F2215000
:104FB0003109D0CFDD2009F45BCCEDCDD0920501D5
:104FC000809134068370809304010E94890F83E0EE
:104FD000809314014DCC40912204509123046091A0
:104FE0002404709125042FB7F89480915604909171
:104FF0005704A0915804B09159042FBF841B950BFE
:10500000A60BB70B4A97A105B10508F431CC109255
:1050100014012ECC1093410687CC109342068DCC00
:1050200010934306CDCC10934406D3CC30E2E32E4C
:10503000F12CCE0101966C018091E80085FD0AC03B
:105040008091E8008B778093E8000E940A0A882309
:1050500099F3F6CC8091F100D6018D936D01B1E00A
:10506000EB1AF10849F7ECCC1A8289E08B8311C066
:105070008A81823009F464C18330A1F1813009F062
:1050800057C00E945F090E94BE2B6B837C838D8377
:105090009E8380913404843009F044CAF090E90082
:1050A0008091EC00FF2DFF70FF2E87958827879554
:1050B000F82A82E08093E9008091E80080FF0DC02B
:1050C00040E050E060E270E0CE0101960E945A0A92
:1050D0008091E8008E778093E8008F2D8F70809309
:1050E000E90020CAFE013196D4018C9111969C9161
:1050F000B2E08B0E911C92838383329625E5821653
:1051000026E0920689F7C5CF8A81823089F48B81A7
:105110009C81AD81BE818EA39FA3A8A7B9A7BC0126
:10512000CD010E94BE2B85E290E00E947B2CB1CF86
:105130008FEF8983AECF4C816B818A810E94A00F53
:105140009827892798279E838D83A3CFED80FE80A3
:10515000FE24EF24FE248A81CB809EE1C99E60015B
:105160001124A6E98A9FC00CD11C11248C8190E0E7
:10517000880F991FC80ED91E6F2DC60186960E94F2
:105180007B2C6E2DC6018796D0CF0E94061281CF50
:10519000B0E1BA837ECF1A8382E868CFEA80FB80D1
:1051A000FE24EF24FE248C814701880E911C6E01A1
:1051B000E5E0CE0ED11CC70182589D4FE814F904DA
:1051C00009F467CFF2E8EF16F1E0FF0648F40E9419
:1051D0005D2CD6018D936D01BFEFEB1AFB0AEBCF6F
:1051E00080E0F7CFEA80FB80FE24EF24FE24FE015E
:1051F00031966F018C814F01880E911CC701825836
:105200009D4FC814D90409F444CFF2E8EF16F1E039
:10521000FF0628F4D60114966C910E947B2CBFEFF8
:10522000EB1AFB0AEFEFCE1ADE0AE8CF0E946712F4
:1052300030CF84E08A832DCFEA80FB80FE24EF24E8
:10524000FE248C814701880E911C6E01F5E0CF0E83
:10525000D11CC70186968E149F0409F41ACF28E545
:10526000E21622E0F20648F40E945D2CD6018D93EE
:105270006D01BFEFEB1AFB0AECCF80E0F7CFEA80BD
:10528000FB80FE24EF24FE24FE0131966F018C8109
:105290004F01880E911CC7018696C814D90409F4E1
:1052A000F8CEF8E5EF16F2E0FF0628F4D6011496E2
:1052B0006C910E947B2CBFEFEB1AFB0AEFEFCE1A2A
:1052C000DE0AE9CF80E1682E69BC92E1792E79BCD3
:1052D00009B400FEFDCF8091D8008F7D8093D80067
:1052E0008091E00082608093E0008091E00081FD89
:1052F000FCCF0E9428159FEFA3E2B4EF9150A0408D
:10530000B040E1F700C000000E94281556C960E0D7
:1053100085E290E00E947B2C0E9406120E94671298
:1053200061E282E290E00E947B2C65E083E290E003
:105330000E947B2C66E184E290E00E947B2CC3C833
:1053400085E290E00E945D2C1B821C821D828E8370
:10535000A0CE2D32314008F005CB3BCB2D32314071
:1053600008F0B4CAEACA1F920F920FB60F92112426
:105370002F933F934F935F936F937F938F939F935D
:10538000AF93BF93EF93FF938091E10082FF09C039
:105390008091E20082FF05C08091E1008B7F8093C5
:1053A000E1008091DA0080FF24C08091D80080FF66
:1053B00020C08091DA008E7F8093DA008091D9003E
:1053C00080FF99C080E189BD82E189BD09B400FEFA
:1053D000FDCF81E0809334048091C303811109C023
:1053E0000E943B0A0E944D0C8091E20084608093F1
:1053F000E2008091E10080FF17C08091E20080FF11
:1054000013C08091E2008E7F8093E2008091E200E1
:1054100080618093E2008091D80080628093D80000
:1054200019BC85E0809334048091E10084FF27C09B
:105430008091E20084FF23C080E189BD82E189BDC3
:1054400009B400FEFDCF8091D8008F7D8093D800F5
:105450008091E1008F7E8093E1008091E2008F7E59
:105460008093E2008091E20081608093E20080916D
:10547000C203882309F445C084E0809334048091FA
:10548000E10083FF27C08091E20083FF23C0809169
:10549000E100877F8093E10082E0809334041092E2
:1054A000C2038091E1008E7F8093E1008091E20051
:1054B0008E7F8093E2008091E20080618093E20021
:1054C00042E060E080E00E941D0C8091F000886066
:1054D0008093F000FF91EF91BF91AF919F918F91D9
:1054E0007F916F915F914F913F912F910F900FBEE0
:1054F0000F901F90189519BC109234041092C3039A
:1055000078CF8091E30087FD02C081E0B6CF83E0D1
:10551000B4CF1F920F920FB60F921124FF920F93E8
:105520001F932F933F934F935F936F937F938F932B
:105530009F93AF93BF93CF93DF93EF93FF9309EEC6
:1055400010E0F8018081C091EC00C795CC27C79589
:105550008F70FC2EF82A1082C0EFD0E08881877F00
:10556000888378940E943D15F801108288818860B4
:105570008883CF2DCF70C083FF91EF91DF91CF91C2
:10558000BF91AF919F918F917F916F915F914F915B
:105590003F912F911F910F91FF900F900FBE0F9091
:1055A0001F9018951092B9008CE08093B800089570
:1055B000EF92FF920F931F93CF93DF93182FEB017E
:1055C0001092BC0084EA8093BC000E9474137C019A
:1055D0008091BC0087FF27C08091B900887F883008
:1055E00029F08091B900887F8031D9F51093BB00F4
:1055F00084E88093BC000E9474138C018091BC00ED
:1056000087FF24C02091B900287F90E080E02831F6
:10561000B1F081E090E0203411F490E080E09195C9
:10562000819591090CC0CF3FDC0791F20E94741361
:105630008E199F098C179D0758F28EEF9FEFDF910F
:10564000CF911F910F91FF90EF900895CF3FDC070E
:10565000A9F20E947413801B910B8C179D0770F2A6
:10566000ECCF8FEF9FEFEBCF0F931F93CF93DF9391
:10567000EB018093BB0084E88093BC000E9474130C
:105680008C018091BC0087FF11C02091B900287F58
:1056900081E090E0283211F490E080E091958195CE
:1056A0009109DF91CF911F910F910895CF3FDC07B2
:1056B00041F30E947413801B910B8C179D0708F314
:1056C0008EEF9FEFEECFCF92DF92EF92FF920F938C
:1056D0001F93CF93DF936B018A01F22EE32E622F8B
:1056E000732F0E94D82AAC01E6010C0D1D1DC017B6
:1056F000D10711F057FF0DC084E98093BC00CA01A7
:10570000DF91CF911F910F91FF90EF90DF90CF909D
:1057100008956F2D7E2D89910E94342BAC01E7CF27
:10572000AA1BBB1B51E107C0AA1FBB1FA617B707C7
:1057300010F0A61BB70B881F991F5A95A9F78095E3
:105740009095BC01CD01089597FB072E16F40094A7
:1057500007D077FD09D00E94902B07FC05D03EF4BE
:10576000909581959F4F0895709561957F4F08950D
:10577000EE0FFF1F0590F491E02D099469279627FD
:1057800069277827872778270895CF92DF92EF92AD
:10579000FF92CF93DF93CDB7DEB72A970FB6F89479
:1057A000DEBF0FBECDBF89879A87A985BA852D91A7
:1057B0003D914D915C9129833A834B835C83232BEC
:1057C000242B252B41F424E239ED4BE557E02983C6
:1057D0003A834B835C8369817A818B819C812DE143
:1057E00033EF41E050E00E949F2C69017A01A7EA63
:1057F000B1E49B01AC010E94BE2C69837A838B8348
:105800009C83ACEEB4EFA70196010E94CC2C9B01C7
:10581000AC0189819A81AB81BC81820F931FA41F47
:10582000B51FB7FF03C00197A109B048E985FA8504
:1058300080839183A283B3839F772A960FB6F894CF
:10584000DEBF0FBECDBFDF91CF91FF90EF90DF9015
:10585000CF9008950E94C52B089580E091E00E94AA
:10586000C52B0895B0E0A0E0809300019093010162
:10587000A0930201B09303010895FB01DC0102C073
:1058800001900D9241505040D8F70895DC0101C0BD
:105890006D9341505040E0F70895DC01CB01FC01CD
:1058A000F999FECF06C0F2BDE1BDF89A319600B479
:1058B0000D9241505040B8F70895F999FECF92BD2E
:1058C00081BDF89A992780B50895A8E1B0E042E03B
:1058D00050E00C944F2CDC01A40FB51F41505040F8
:1058E00048F0CB01840F951F2E910E947C2C4150D3
:1058F0005040D0F70895262FF999FECF92BD81BD73
:10590000F89A019700B4021639F01FBA20BD0FB6FD
:10591000F894FA9AF99A0FBE08950396272F0E94D9
:105920007C2C0E947B2C252F0E947C2C242F0C94F5
:105930007C2C0196272F0E947C2C0C947B2C052E0E
:1059400097FB1EF400940E94B62C57FD07D00E94CE
:10595000D12C07FC03D04EF40C94B62C50954095F6
:10596000309521953F4F4F4F5F4F0895909580950B
:10597000709561957F4F8F4F9F4F08950E94F32C34
:10598000A59F900DB49F900DA49F800D911D112493
:105990000895B7FF0C94BE2C0E94BE2C821B930B63
:1059A0000895A1E21A2EAA1BBB1BFD010DC0AA1F60
:1059B000BB1FEE1FFF1FA217B307E407F50720F078
:1059C000A21BB30BE40BF50B661F771F881F991FF3
:1059D0001A9469F760957095809590959B01AC013C
:1059E000BD01CF010895A29FB001B39FC001A39F45
:1059F000700D811D1124911DB29F700D811D112408
:105A0000911D0895F894FFCF2004260429042F0443
:105A100044044404440444044404320437043B046E
:105A20004104520458045C041F164716E617471633
:105A3000E6177A169B16E6179717A417DD1AE31ACE
:105A4000E71AF51AF91AFD1A011B071B0F1B131B86
:105A5000171B1B1B271B2B1B2F1B331B391B571BF8
:105A6000411BF11A1F1B231B0B1B3D1B4D1B601BF6
:105A7000661B831B8E1B951B9A1B9F1BA41BA91BBC
:105A8000AE1BB31BB81BBD1BC21BC61BC81BCA1B4E
:105A9000721972197219721972192B1C2B1CA21C03
:105AA000A21CF91C131D611C611C1E1D1B1E2A1E3D
:105AB0002A1E3428382884289B28A628C5289828F8
:105AC0009828982898289828C828CB28CE28F228E3
:105AD000162919291C293F2951255B258D25F725D4
