:100000000C94E4050C942B060C942B060C942B06F4
:100010000C942B060C942B060C942B060C942B069C
:100020000C942B060C942B060C944E300C9420311F
:100030000C946E2A0C942B060C942B060C942B0615
:100040000C942B060C942B060C942B060C942B066C
:100050000C942B060C94C72A0C942B060C942B069C
:100060000C942B060C942B060C942B060C942B064C
:100070000C942B060C942B060C942B060C942B063C
:100080000C942B060C942B060C942B060C942B062C
:100090000C942B060C942B060C942B060C942B061C
:1000A0000C942B060C942B060C942B0699179C177A
:1000B000A417A917AE17B317B817BD17C217C717DC
:1000C000CC17D117D317D617D917DC17DF17E217BC
:1000D000E417E917A81FA81FDA1FDA1F27204520F9
:1000E000662166215020E520F620F6205621662163
:1000F00066215F2106220622182218220F221822CA
:10010000182218220622062214221822182214224B
:100110008D31B431AC32B431AC3200322332AC3236
:100120007A32893229001E001F002000210022009F
:10013000230024002500260027002D002E000000AB
:100140002A0035002B00000014001A0008001500DA
:1001500017001C0018000C00120013002F003000C4
:1001600031004C0001510000040016000700090096
:100170000A000B000D000E000F00330034002800B1
:1001800000004A00E10000001D001B0006001900ED
:100190000500110010003600370038000000E500AF
:1001A00052004D00E000E3000000E200000000000B
:1001B0002C00000000000000E6000151E4005000A7
:1001C00051004F0035003A003B003C003D003E002E
:1001D0003F00400041004200430044004500000051
:1001E0004C000100010000004A0052004D004B008D
:1001F000010001004A0052004D004B00460049003A
:100200003500490001000000500051004F004E0031
:1002100001000100500051004F004E004700010056
:1002200000004B000100000001000100010001007E
:1002300001000100010001000100010000000100B7
:1002400001004E0001000253000001000000000008
:100250000100000000000000010001000100010099
:10026000010001001050000000000000000000002C
:10027000000000000000000000000000000000007E
:10028000C35C000000530000C75CCA5CC65CC85C6D
:10029000C55CC45C0000000000000000000000001D
:1002A0000000000000000000CD5CCB5CCC5CC95CB1
:1002B0000000000000000000000000000000C05C22
:1002C000000000000000000000000000000000002E
:1002D0000000095C125C000000000000000000004B
:1002E000BF5C0000000001000000000000000000F2
:1002F0000000000000000000010001000100C25CDD
:10030000BE5CC15C44454255473A206469736162F2
:100310006C65642E0A0044454255473A20656E617B
:10032000626C65642E0A000A002530313662003A9C
:10033000200025303258000A722F632030313233CA
:100340003435363738394142434445460A00290A94
:10035000002575002F002575005D2800256400200C
:1003600000256400200025640020002564007C0036
:1003700025303258006D6F7573656B6579205B624F
:10038000746E7C782079207620685D287265702FE5
:1003900061636C293A205B007267626C69676874FC
:1003A0002074696D65722064697361626C652E0AE0
:1003B000007267626C696768742074696D65722089
:1003C000656E61626C65642E0A007267626C6967B3
:1003D00068742073657420687376205B4E4F4545C2
:1003E00050524F4D5D3A2025752C25752C25750AE8
:1003F000007267626C696768742073657420687343
:1004000076205B454550524F4D5D3A2025752C2591
:10041000752C25750A007267626C696768742072B2
:1004200061696E626F7720736574206873763A2015
:1004300025642C25642C25642C25750A00726762BE
:100440006C696768742064697361626C65205B4ED7
:100450004F454550524F4D5D3A207267626C696757
:1004600068745F636F6E6669672E656E61626C6546
:10047000203D2025750A007267626C6967687420E8
:1004800064697361626C65205B454550524F4D5DF8
:100490003A207267626C696768745F636F6E666941
:1004A000672E656E61626C65203D2025750A0072BD
:1004B00067626C6967687420656E61626C65205B59
:1004C0004E4F454550524F4D5D3A207267626C6900
:1004D0006768745F636F6E6669672E656E61626CD4
:1004E00065203D2025750A007267626C6967687433
:1004F00020656E61626C65205B454550524F4D5DD5
:100500003A207267626C696768745F636F6E6669D0
:10051000672E656E61626C65203D2025750A00724C
:1005200067626C6967687420746F67676C65205BCD
:10053000454550524F4D5D3A207267626C6967685D
:10054000745F636F6E6669672E656E61626C6520AD
:100550003D2025750A007267626C69676874206DBA
:100560006F6465205B4E4F454550524F4D5D3A20BC
:1005700025750A007267626C69676874206D6F6424
:1005800065205B454550524F4D5D3A2025750A0068
:100590007267626C696768745F696E6974207267FC
:1005A000626C696768745F636F6E6669672E6D6FF2
:1005B0006465203D20302E20577269746520646583
:1005C0006661756C742076616C75657320746F203C
:1005D000454550524F4D2E0A007267626C6967683C
:1005E000745F696E6974206565636F6E6669672004
:1005F0006973206E6F7420656E61626C65642E0A8B
:10060000007267626C696768745F696E69742073F1
:1006100074617274210A007267626C696768745F42
:10062000696E69742063616C6C65642E0A00726780
:10063000626C696768745F636F6E6669672E73705A
:10064000656564203D2025640A007267626C6967F5
:1006500068745F636F6E6669672E76616C203D20FB
:1006600025640A007267626C696768745F636F6E05
:100670006669672E736174203D2025640A007267E5
:10068000626C696768745F636F6E6669672E687510
:1006900065203D2025640A007267686C696768748C
:1006A0005F636F6E6669672E6D6F6465203D202500
:1006B000640A007267626C696768745F636F6E6674
:1006C00069672E656E61626C65203D2025640A00B5
:1006D0007267626C696768745F636F6E66696720D2
:1006E000454550524F4D3A0A001E0F0500047F3F0A
:1006F0001F643214643214783C1E1E140A0522232F
:10070000252628292A2C2D2F3032333536383A3BEE
:100710003D3E4042434547494A4C4E505153555740
:10072000595A5C5E6062646668696B6D6F7173755F
:1007300077797B7D7F81838587898A8C8E9092945F
:1007400096989A9C9E9FA1A3A5A7A8AAACAEAFB16C
:10075000B3B4B6B8B9BBBCBEBFC1C2C3C5C6C7C9B6
:10076000CACBCCCDCED0D1D2D2D3D4D5D6D7D7D870
:10077000D9D9DADADBDBDBDCDCDCDCDCDDDDDDDDC2
:10078000DCDCDCDCDCDBDBDBDADAD9D9D8D7D7D6CA
:10079000D5D4D3D2D2D1D0CECDCCCBCAC9C7C6C581
:1007A000C3C2C1BFBEBCBBB9B8B6B4B3B1AFAEACC7
:1007B000AAA8A7A5A3A19F9E9C9A98969492908E72
:1007C0008C8A89878583817F7D7B79777573716F4B
:1007D0006D6B6968666462605E5C5A595755535127
:1007E000504E4C4A4947454342403E3D3B3A3836DD
:1007F000353332302F2D2C2A292826252322FFAAF3
:100800007F55406261636B6C6967687420737465BF
:10081000703A2025750A006261636B6C69676874C1
:100820002064697361626C650A006261636B6C6964
:1008300067687420656E61626C650A006261636B53
:100840006C6967687420746F67676C653A202575FA
:100850000A006261636B6C69676874206465637227
:10086000656173653A2025750A006261636B6C6986
:1008700067687420696E6372656173653A202575D7
:100880000A0000010101010101010101020202024D
:10089000020202020203030303030303030404042A
:1008A00004040404050505050506060606060707F3
:1008B00007070708080808090909090A0A0A0B0BAB
:1008C0000B0C0C0C0D0D0D0E0E0E0F0F0F1010114A
:1008D00011111212131314141515161617171818D0
:1008E00019191A1A1B1B1C1D1D1E1E1F2020212238
:1008F00022232424252626272829292A2B2C2D2D7E
:100900002E2F30313232333435363738393A3B3C9A
:100910003D3E3F404142434445464748494A4C4D8D
:100920004E4F50515354555658595A5B5D5E5F6156
:100930006264656668696B6C6D6F707273757778E9
:100940007A7B7D7E8082838587888A8C8E8F919347
:100950009596989A9C9EA0A2A3A5A7A9ABADAFB16E
:10096000B3B5B7BABCBEC0C2C4C6C9CBCDCFD1D453
:10097000D6D8DBDDDFE2E4E7E9EBEEF0F3F5F8FAF9
:10098000FDFF0A002530325820006B6579626F61E7
:1009900072645F7265706F72743A20000A002530CD
:1009A0003258006B6579626F6172645F7365745F62
:1009B0006C65643A200064656C5F6B65795F6269A1
:1009C000743A2063616E27742064656C3A20253088
:1009D00032580A006164645F6B65795F6269743ADA
:1009E0002063616E2774206164643A202530325898
:1009F0000A005B735D004B6579626F6172642073FE
:100A0000746172742E0A005B575D005B535D005B7E
:100A1000525D005B445D005B435D0010034B004290
:100A20000044003600370076003200000010034B0F
:100A30000042004400460061006E007300000004A4
:100A400003090409025B00030100A0FA0904000085
:100A500001030101000921110100012240000705E5
:100A6000810308000A0904010001030000000921B4
:100A70001101000122B6000705820320000A0904C3
:100A800002000203000000092111010001222200DE
:100A9000070583032000010705030320000112015D
:100AA000100100000008424B6760020001020001D3
:100AB0000631FF0974A1010975150026FF00952074
:100AC000750881020976150026FF009520750891AA
:100AD00002C005010902A10185020901A100050961
:100AE00019012908150025019508750181020501E4
:100AF000093009311581257F95027508810609386D
:100B00001581257F950175088106050C0A380215A7
:100B100081257F950175088106C0C005010980A166
:100B200001850319012AB700150126B70095017543
:100B3000108100C0050C0901A101850419012AA03A
:100B400002150126A002950175108100C00501095A
:100B500006A1018505050719E029E715002501957E
:100B600008750181020507190029EF150025019577
:100B7000F075018102050819012905950575019196
:100B800002950175039101C005010906A101050740
:100B900019E029E7150025019508750181029501E5
:100BA000750881010507190029FF150026FF00952A
:100BB000067508810005081901290595057501913B
:100BC00002950175039101C011241FBECFEFDAE039
:100BD000DEBFCDBF04B603FE27C08091A70390916E
:100BE000A803A091A903B091AA038730904BA74016
:100BF000B04BD1F41092A7031092A8031092A9034E
:100C00001092AA0314BE84B7877F84BF0FB6F894EE
:100C1000A8958091600088618093600010926000C8
:100C20000FBEE0E0F8E3099511E0A0E0B1E0E8EBE9
:100C3000F8E602C005900D92AE3DB107D9F723E06A
:100C4000AEEDB1E001C01D92A73AB207E1F70E94F4
:100C5000812D0C945A340C940000FF93EF93E09193
:100C6000DE01F091DF01309709F00995EF91FF91D6
:100C70000895FC018591803011F0EFDFFBCF0895DE
:100C8000FF27E0E230E247FF0CC0419597FF09C023
:100C9000EDE26095709580959095611D711D811DA7
:100CA000911D27FF02C0219530E350E2AA27660F6D
:100CB000771F881F991FAA1FA41710F0A41B639504
:100CC0005A95A9F7AA3008F0A95FA05DAF93F395F4
:100CD000611571058105910541F7ED3211F4EF932E
:100CE000F395F21718F43F93F395FBCF8F91B5DF8F
:100CF000FA95E1F70895E991F9918591803021F015
:100D0000853219F0AADFF9CF089520E0E8945591D3
:100D10005532C1F3503311F4689455915A3348F465
:100D2000505390F3220F022E220F220F200D250F79
:100D3000F4CF0EF4219589919991533619F35337D5
:100D400029F1533559F1BC0188279927E8945C367D
:100D500021F48991999168945591543639F446EF6C
:100D60007EF077FF0DC08FEF9FEF0AC055374AE046
:100D700039F0583540E121F0523642E009F008954B
:100D8000FF93EF937DDFEF91FF91B7CFFF93EF9349
:100D9000FC0181918030B9F360DFFBCFFF93EF93CB
:100DA00068DFF1CFDF93CF93CDB7DEB72596A3DF12
:100DB000CF91DF910895549A0C945F0ACF93C82F76
:100DC0000E94E707882329F0C1FD02C05C9A01C098
:100DD0005C98CF91089581E0089581E008950C9486
:100DE000ED0608950C94F1061F93CF93DF9300D086
:100DF00000D01F92CDB7DEB749835A836B83309101
:100E00007F0289819A81311114C0662359F022230F
:100E100049F00E943F27182F682F89819A810E94EC
:100E2000E82603C00E941327182F69817A81812F39
:100E300004C00E943F2769817A810F900F900F9024
:100E40000F900F90DF91CF911F910C94F607FC014A
:100E5000262F408151816281738184810C94F40634
:100E6000CF93DF93EC0160E00E942707BE01DF9182
:100E7000CF910C94F2060E94182B0E9477288111C2
:100E800002C00E9427290E94D8190C94DB060C94FA
:100E90005D0A08950E94F4210E9449072FEF84E320
:100EA0009CE0215080409040E1F700C000000C948D
:100EB000ED2A0F931F93CF93DF93EC0161E00E9423
:100EC00027078C01BE010E94EF06882309F450C059
:100ED000BE01C8010E943919882309F449C0BE0126
:100EE000C8010E94861A882309F442C0BE01C801C5
:100EF0000E94D81A8823E1F1BE01C8010E94031C98
:100F00008823B1F1BE01C8010E948217882381F1B4
:100F10008A81882331F101308CE5180751F00F3DAB
:100F20008CE51807D9F001151C45D9F40E944A0731
:100F30001FC080911703C82FC095C170C0FB80F9F6
:100F400080931703CC2329F086E193E00E943906B1
:100F50000FC084E093E00E9439060BC00E9427294D
:100F600007C0CE01DF91CF911F910F910C94EB063A
:100F7000C0E08C2FDF91CF911F910F910895829542
:100F8000982F937344E0949F900111248C7C869554
:100F90008695282B822F8575880F2A7A2695822B95
:100FA0000895CF93DF93D92F0E94BF07C82F8D2FAD
:100FB0000E94BF072C2F30E0322F2227A901482B97
:100FC000CA01DF91CF91089508950C94E40781E060
:100FD0000895CF93C82F0E94E5078C2F0E94DE064C
:100FE000CF91089580E090E008950895E72FF0E014
:100FF00095E0899FE00DF11D112484E0EE0FFF1FA5
:101000008A95E1F7E60FF11DEE0FFF1FEC5DFE4F35
:10101000859194910895880F991FFC01E95DFC4F1B
:10102000859194910895CF93DF930E94F6070E94D3
:101030002B09EC018115904508F041C0C11580E4F1
:10104000D80708F0D1C0C83ED10510F5C03ED10583
:1010500008F0FDC0C83AD10578F4C53AD10508F0CA
:10106000A2C0C130D10509F4F2C008F4EEC0C4300A
:10107000D10508F0ECC0E9C0CF3BD10508F49BC016
:10108000C03CD10508F4E1C0CE01805C91099EC04E
:10109000C11590E2D90758F4C11521E0D20708F034
:1010A000D6C0CD3ED10508F4D0C0D065D0C0C115A2
:1010B00080E3D80708F08EC0CE019F7087C0C115AD
:1010C00095E5D90708F043C0C11524E5D20708F01B
:1010D000A2C0C11582E5D80708F5C11591E5D90769
:1010E00008F085C0CE0174E0969587957A95E1F772
:1010F00083709C2F937021E030E002C0220F331FD9
:101100009A95E2F73C68382BCF70C695C69580E279
:10111000C89FE0011124C22BD32B99C09E012370DC
:1011200033278C2F86958695C115D34508F064C06A
:10113000C1E0D0E002C0CC0FDD1F2A95E2F720E22B
:10114000829FC0011124C82BD92BDC6880C0C11537
:1011500029E5D207A0F4C11588E5D80708F060C0DA
:10116000C11596E5D90708F070C08C2F0E94BF0901
:101170008F71C82FD0E0DC2FCC27D06268C0C1159A
:101180002AE5D20708F451C0CE019056811590424D
:1011900008F05BC08D2F8F710E94BF09DD27D062E0
:1011A0008F71D82B54C0C55AD0E0C65ADE4FC881C3
:1011B000D0E0D0644CC0C85AD0E0CC0FDD1FC45D75
:1011C000DE4F0990D881C02DD46441C00E940B0825
:1011D000EC013DC0CE019927D3FF03C0EC01D86CD0
:1011E00036C0EC01D06C33C0DF70D06A30C0DC2F69
:1011F000CC27C16FD06A2BC0C1E0D0E002C0CC0FB9
:10120000DD1F2A95E2F720E2829FC0011124C82B3E
:10121000D92BDA681CC0DC2FCC27C46FD06A17C06A
:10122000DC2FCC27C06FD06A12C08C2F8F700E9429
:10123000BF0994E0D695C7959A95E1F7CF70D0E0B5
:10124000DC2FCC27D069C82B02C0C0E0D0E0CE0193
:10125000DF91CF9108958238910569F1B0F481331F
:10126000910509F46DC048F48932910509F463C011
:101270008A32910509F469C008958533910509F40E
:1012800055C089339105B9F00895833E910569F100
:1012900038F4803E9105B1F0823E910509F1089540
:1012A000863E9105A9F1873E9105B9F1843E9105ED
:1012B00009F064C023C02091980320FD4FC021FD98
:1012C0004DC008958091980380FD44C0809199039A
:1012D00080FF44C08091980384FD42C083EE4DC0DE
:1012E0008091980382FF38C0F5CF8091980382FDEA
:1012F00033C08091990380FD31C0ECCF8091990378
:1013000081FF32C08091980384FD2AC087EE35C0EA
:101310008091980383FF26C0F5CF8091980383FDC9
:1013200021C08091990381FD1FC0ECCF809198036B
:1013300085FD1CC01DC08091980385FD19C016C095
:101340008091980386FD16C017C08091980386FD92
:1013500013C010C089E311C082EE0FC080EE0DC033
:1013600080E00BC086EE09C084EE07C089E205C0AC
:1013700085E303C08AE201C081E390E00895909183
:10138000980392FF0DC0282F2871283019F4877F09
:10139000846006C0282F2471243011F48B7F88606C
:1013A00093FF0DC0282F2871283119F4877E84619E
:1013B00006C0282F2471243111F48B7E886120917E
:1013C000990320FF0DC0382F3871383019F4877F0A
:1013D000816006C0382F3171313011F48E7F886002
:1013E00021FF0DC0282F2871283119F4877E8161D3
:1013F00006C0282F2171213111F48E7E886194FD61
:10140000877E0895E82FF0E0EE0FFF1FE85BFC4FAA
:10141000808191810895CF92DF92EF92FF920F9396
:101420001F93CF93DF9387E393E00E94390688E40C
:10143000E82E83E0F82EC0E0D0E092E3C92E93E0DE
:10144000D92E09E213E0DF93CF93DF92CF920E946F
:10145000D2068FE293E00E943906F70181919191C3
:101460007F010E94D1079F938F931F930F930E9438
:10147000D20687E293E00E94390621968DB79EB787
:1014800008960FB6F8949EBF0FBE8DBFC530D1052C
:10149000D1F6DF91CF911F910F91FF90EF90DF90E8
:1014A000CF90089580EA8A95F1F7089500C00895D5
:1014B0000C94520A08950C945A0A0C945B0A0C94EA
:1014C0005A0AF894E82FE295EF70F0E031A1282F46
:1014D0002F7081E090E001C0880F2A95EAF7982FDD
:1014E0009095932391A392A1892B82A37894089538
:1014F0000F931F93CF93DF9387E30E94610A80E9E4
:101500000E94610A80EF0E94610A81EF0E94610AD5
:1015100084EF0E94610ACDE5D1E00DE611E08991EA
:101520000E94610A0C171D07D1F7EEE3F3E0A8E46F
:10153000B3E0119211921D921D9283E0E834F807F6
:10154000C1F785E00E943D0BDF91CF911F910F9174
:101550000C943B077F928F929F92AF92BF92CF9253
:10156000DF92EF92FF920F931F93CF93DF930EE3DF
:1015700013E08DE6E82E81E0F82EC0E0D0E0712C7B
:10158000AA24A394B12C4701F7018081F894E82F95
:10159000E295EF70F0E021A18F70A50102C0440F29
:1015A000551F8A95E2F7CA01922F982B91A392A119
:1015B0008095892382A378940E94560AEDE5F1E094
:1015C00020E030E0C12CD12C4191A42FA295AF7026
:1015D000B0E090968C9190E04F7002C09595879501
:1015E0004A95E2F780FD08C0C501022E02C0880FAF
:1015F000991F0A94E2F702C080E090E0C82AD92A35
:101600002F5F3F4F20313105F9F65FEFE51AF50AFC
:10161000F40180810E94610AC430D10511F00E945A
:10162000580AF80180819181C816D90621F0D1822B
:10163000C08281E001C080E0782A21960E5F1F4FB2
:10164000C530D10509F09FCF272D45E068E473E050
:101650008EE393E00E943E0B0E944707872DDF91A7
:10166000CF911F910F91FF90EF90DF90CF90BF909F
:10167000AF909F908F907F9008950895FF920F9361
:101680001F93CF93DF93F82E092F162FD72FC42F38
:10169000222349F081E08093E2010E94A02A9093E6
:1016A000E1018093E0018091E2018823D9F08091EB
:1016B000E0019091E1010E94B82A069798F0EF2D81
:1016C000F02FA12FBD2F80E090E04C2F50E0841729
:1016D000950734F4219131912D933D930196F7CFE5
:1016E0001092E201DF91CF911F910F91FF90089529
:1016F0008091E90180FF0BC06091090185E0689F3E
:10170000B001112475956795759567952BC081FF7C
:1017100009C06091090185E0689FB00111247595A9
:10172000679520C082FF07C06091090185E0689F2E
:10173000B001112417C09091E8019923D1F0609174
:101740000801961788F72091090185E0289F9001EC
:101750001124929FA001939F500D112470E0CA01A3
:101760000E941D336038710540F46115710519F44C
:1017700006C065E070E0862F08958FE7089581E048
:1017800008958091E90180FF08C06091050170E033
:10179000759567957595679521C081FF06C0609125
:1017A000050170E07595679519C082FF04C06091CE
:1017B000050170E010C09091E701992399F06091C4
:1017C00004019617A0F780910501899FC00111249B
:1017D00070E00E941D336038710540F46115710599
:1017E00019F406C061E070E0862F08958FE7089530
:1017F00081E008958D3E21F40E94780B819504C00C
:101800008E3E29F40E94780B8093ED0108958F3E5F
:1018100021F40E94780B819504C0803F29F40E9436
:10182000780B8093EC010895893F19F40E94C10B55
:1018300005C08A3F31F40E94C10B81958093EE016F
:1018400008958B3F21F40E94C10B819504C08C3F09
:1018500029F40E94C10B8093EF0108959FE0980F37
:10186000983078F421E030E0A90102C0440F551F00
:101870009A95E2F7CA019091EB01892B8093EB01D5
:1018800008958D3F21F48091E90181600BC08E3F66
:1018900021F48091E901826005C08F3F29F4809195
:1018A000E90184608093E90108958D3E39F49091B7
:1018B000ED0197FF35C01092ED0159C08E3E29F41D
:1018C0009091ED011916BCF32BC09091EC018F3E65
:1018D00029F497FF25C01092EC0149C0803F19F40C
:1018E0001916CCF31DC09091EE01893F29F4191609
:1018F000BCF41092EE013BC08A3F19F497FF10C070
:10190000F8CF8B3F39F49091EF0197FF09C0109207
:10191000EF012DC08C3F21F49091EF011916BCF31B
:101920009FE0980F983080F421E030E0A90102C0D8
:10193000440F551F9A95E2F7CA0180959091EB01EB
:1019400089238093EB0113C08D3F21F48091E9013D
:101950008E7F0BC08E3F21F48091E9018D7F05C001
:101960008F3F29F48091E9018B7F8093E901809179
:10197000EC01811106C08091ED01811102C010922D
:10198000E8018091EE01811106C08091EF01811183
:1019900002C01092E70108958091170383FF7EC073
:1019A00085E793E00E9439068091EB011F928F93A7
:1019B00080E793E09F938F930E94D2068EE693E098
:1019C0000E9439068091EC01282F082E000C330B61
:1019D0003F938F938BE693E09F938F930E94D20661
:1019E00089E693E00E9439068091ED01282F082EA8
:1019F000000C330B3F938F9386E693E09F938F9376
:101A00000E94D20684E693E00E9439068091EE019E
:101A1000282F082E000C330B3F938F9381E693E021
:101A20009F938F930E94D2068FE593E00E94390620
:101A30008091EF01282F082E000C330B3F938F93DA
:101A40008CE593E09F938F930E94D20689E593E003
:101A50000E9439068091E8011F928F9386E593E0FA
:101A60009F938F930E94D20684E593E00E943906EB
:101A70008091E9011F928F9381E593E09F938F936B
:101A80000E94D2068EE493E00E9439068DB79EB77D
:101A90004C960FB6F8949EBF0FBE8DBF0E94A02A31
:101AA0002091EC01211104C02091ED01222321F0AD
:101AB0009093E6018093E5012091EE01211104C08D
:101AC0002091EF01222321F09093E4018093E30120
:101AD0008AEE91E00C949A1CEF92FF920F931F9361
:101AE000CF93DF9300D000D000D0CDB7DEB786E033
:101AF000EAEEF1E0DE01119601900D928A95E1F790
:101B0000E090EC01F090ED010091EE011091EF01F9
:101B10001092EC011092ED011092EE011092EF0183
:101B2000E11003C0FF2009F45DC08091E5019091B0
:101B3000E6010E94B82AAC019091E801992339F09E
:101B400020910A0130E02417350758F04BC020914E
:101B50000B018AE0289F900111242417350718F003
:101B600041C09F3F19F09F5F9093E801EE2061F024
:101B70000E94780B1E1414F09FEF01C091E0989F13
:101B8000902D11249093EC01FF2061F00E94780BBE
:101B90001F1414F09FEF01C091E0989F902D112425
:101BA0009093ED013091EC013323E1F02091ED01B0
:101BB0002223C1F045EB3403C0011124992319F00D
:101BC0009093EC0103C081E08093EC0135EB23039B
:101BD000C0011124992319F09093ED0103C081E015
:101BE0008093ED01011103C0112309F45DC08091C0
:101BF000E3019091E4010E94B82AAC019091E701C1
:101C0000992339F02091060130E02417350758F068
:101C10004BC0209107018AE0289F900111242417CE
:101C2000350718F041C09F3F19F09F5F9093E7017F
:101C3000002361F00E94C10B101614F09FEF01C049
:101C400091E0989F902D11249093EE01112361F063
:101C50000E94C10B111614F09FEF01C091E0989FF4
:101C6000902D11249093EF013091EE013323E1F098
:101C70002091EF012223C1F045EB3403C001112470
:101C8000992319F09093EE0103C081E08093EE0157
:101C900035EB2303C0011124992319F09093EF0130
:101CA00003C081E08093EF018091EC0181110BC0B2
:101CB0008091ED01811107C08091EE01811103C077
:101CC0008091EF0181110E94CC0CEB82FC820D838C
:101CD0001E8386E0FE013196AAEEB1E001900D92DE
:101CE0008A95E1F726960FB6F894DEBF0FBECDBFFA
:101CF000DF91CF911F910F91FF90EF900895EAEE41
:101D0000F1E086E0DF011D928A95E9F71092E80183
:101D10001092E7011092E9010895EF92FF920F935C
:101D20001F93CF93DF938B01682F11110AC04423B7
:101D300029F0E82FF0E0EE57F74F6491762F862FC9
:101D400075C0212F30E0E82FF0E0442321F0EE575A
:101D5000F74FE491F0E046E0049FC0011124CFEF7B
:101D6000D0E0BE010E9409334BEA4603C001479F01
:101D7000900D1124800F911D800F911D982F990FA8
:101D8000890FAE01421B530B4E9FD0014F9FB00DE8
:101D90005E9FB00D11249B2F189FA0011124452F89
:101DA00055278E01041B150B0E9FA0010F9F500D90
:101DB0001E9F500D11247E01E81AF108E29E800159
:101DC000E39E100DF29E100D1124212F3327C21B0C
:101DD000D30BCE9F9001CF9F300DDE9F300D11248D
:101DE00062307105A9F048F46115710569F0613040
:101DF0007105C9F48B2F752F0DC06430710581F00A
:101E000058F06630710579F47E2F8B2F932F0DC01B
:101E1000832F7B2F9E2F09C08E2F7B2F952F05C0E0
:101E20008E2F732F02C07E2F852F692FDF91CF91C8
:101E30001F910F91FF90EF90089541E00E948D0E49
:101E4000089508950E941D0F0895CF93DF93762F74
:101E5000E901682F842F0E94220F798368838A8387
:101E6000DF91CF910895413F08F040EF0C94250F8A
:101E700080915203282F269530E02115310519F461
:101E80008170826005C02B32310524F08170846539
:101E90008093520380915503813F18F080EF809327
:101EA0005503089588E090E00C94FB33CF92DF92C5
:101EB000EF92FF926B017C010E94380FB701A601DF
:101EC00088E090E0FF90EF90DF90CF900C94193471
:101ED000E2E5F3E083E0808311828FEF828380EF7D
:101EE0008383148260817181828193810C94560F67
:101EF0008091170380FF08C080ED96E09F938F9339
:101F00000E94D2060F900F908091170380FF0FC0A0
:101F10008091520381701F928F9383EB96E09F9381
:101F20008F930E94D2060F900F900F900F90809188
:101F3000170380FF0FC08091520386951F928F93E5
:101F400088E996E09F938F930E94D2060F900F909E
:101F50000F900F908091170380FF0EC08091530364
:101F60001F928F938EE796E09F938F930E94D206E5
:101F70000F900F900F900F908091170380FF0EC06D
:101F8000809154031F928F9384E696E09F938F93E2
:101F90000E94D2060F900F900F900F908091170320
:101FA00080FF0EC0809155031F928F938AE496E0C4
:101FB0009F938F930E94D2060F900F900F900F90D7
:101FC0008091170380FF0EC0809156031F928F935C
:101FD0008EE296E09F938F930E94D2060F900F900F
:101FE0000F900F9008958091520380FF02C0869554
:101FF000089580E0089590915603933018F49F5F00
:1020000090935603882351F06091520370915303CB
:1020100080915403909155030C94560F089581E0DC
:102020000C94FB0F90915603992319F091509093C3
:102030005603882351F060915203709153038091AD
:102040005403909155030C94560F089581E00C941D
:10205000121070E00C94E819609110018091520305
:1020600080FF0AC080910F0123E0829FC0011124EC
:10207000895A9C4F0C942910809111019091120162
:10208000891780F7E82FF0E09F01220F331FE20F3E
:10209000F31FE95AFC4F1182108212828F5FF0CF3A
:1020A0009091520390FF16C090911101209112015E
:1020B000921770F4E92FF0E0DF01AA0FBB1FEA0FBF
:1020C000FB1FE95AFC4F8183608342839F5FF0CFFF
:1020D0000C942C100895CF93DF9300D01F92CDB7AE
:1020E000DEB79091520390FF0AC09E012F5F3F4FD1
:1020F0000E94330F4B8169818A810E9450100F909A
:102100000F900F90DF91CF910895CF93DF93EC0163
:10211000EC81F0E0E250F94F4491E2E5F3E06281B6
:1021200081810E946B108C818F5F8C83DF91CF91B6
:102130000895CF93DF93EC01E2E5F3E04381628100
:102140008C810E946B108C818F5F8C83DF91CF918B
:1021500008950F931F93CF93DF9300D01F92CDB7B5
:10216000DEB78C018091F00181110AC09E012F5FC2
:102170003F4F40EF6FEF0E94330F8A818093F00151
:10218000F8018481813051F028F0823061F440916F
:10219000F0010AC08091F00140E007C06091F001B9
:1021A00040E080E003C040E080E060E00E9450102A
:1021B000F801848190E0019663E070E00E941D3395
:1021C00084830F900F900F90DF91CF911F910F910B
:1021D00008954F925F926F927F928F929F92AF92EB
:1021E000BF92CF92DF92EF92FF920F931F93CF9304
:1021F000DF9300D01F92CDB7DEB7F82EB62EE42EB7
:10220000622E9091520390FFB4C0E92FE695AE2F55
:10221000B0E0AE58BE4F8C91809360029E7F9230AA
:1022200061F49E012F5F3F4F8F2D0E94330F4B8132
:1022300069818A810E94501062C0823019F4E09056
:1022400055035DC0863019F4F090530358C08930AF
:10225000D9F3893109F053C0E9518E2F8170782E5E
:1022600081E0A72CA826E695F0E0E250F84FC59053
:10227000D490412CDD2496E1892E94E0992E609132
:1022800013014616D0F5042D10E00C9DC0010D9DE4
:10229000900D1C9D900D112470E00E9409335F2C5D
:1022A000711002C0560E01C0561A8091170380FFAC
:1022B00011C0DF92CF921F92AF921F925F921F9236
:1022C0004F929F928F920E94D2060FB6F894DEBF73
:1022D0000FBECDBF80911101080F111D9801220F73
:1022E000331F020F131F9801295A3C4F4E2D6B2D9F
:1022F000852D0E94330F4394C2CF0E942C10F09280
:102300005303B0925403E09255036620E9F06091C4
:1023100052037091530380915403909155030E948E
:10232000560F8091170380FF24C0809155031F92A0
:102330008F93809154031F928F93809153031F9228
:102340008F9381EF93E00CC08091170380FF11C041
:102350001F92EF921F92BF921F92FF928AEC93E01E
:102360009F938F930E94D2060FB6F894DEBF0FBEE4
:10237000CDBF0F900F900F90DF91CF911F910F91D4
:10238000FF90EF90DF90CF90BF90AF909F908F9095
:102390007F906F905F904F900895E2E5F3E0918118
:1023A000282F4381628188E0890F0C94E91081E035
:1023B0000C94CD11E2E5F3E09181282F43816281F5
:1023C00088EF890F0C94E91081E00C94DA11E2E5B2
:1023D000F3E0628128E0620F08F46FEF282F438159
:1023E00081810C94E91081E00C94E711E2E5F3E0BF
:1023F000628128E0621B08F460E0282F438181811C
:102400000C94E91081E00C94F611E2E5F3E04381CD
:1024100028E0420F08F44FEF282F628181810C944D
:10242000E91081E00C940512E2E5F3E0438128E035
:10243000421B08F440E0282F628181810C94E9104E
:1024400081E00C94141220E00C94E910FF920F9399
:102450001F93CF93DF93EC01F12C0FEF10E060910D
:102460001301F616F0F4809111012F2D30E0280FA2
:10247000311DC901880F991F280F391F295A3C4F58
:1024800070E0C8010E941D33962F8C814091550346
:1024900060915403F99E800D11240E94330FF39430
:1024A000DECF0E942C109A818C8190FF02C08F5F3A
:1024B00001C081508C83DF91CF911F910F91FF90CC
:1024C0000895AF92BF92CF92DF92EF92FF920F9357
:1024D0001F93CF93DF93FC01828180FF02C00FEF37
:1024E00001C001E010E044E1A42E8091130118170F
:1024F00008F043C080911101C12ED12CE601C80F14
:10250000D11DCE01880F991FC80FD91FC95ADC4FA2
:10251000198218821A8234E0E32EF12CB12C8091BA
:10252000F2018B0D85312CF06A2D0E94FB32892F30
:1025300005C087FF03C090911301890F082E000C7E
:10254000990BC816D90691F4809155038E9DA00170
:102550008F9D500D112455954795559547959E0192
:1025600060915403809153030E94330FB00EF1E049
:10257000EF1AF108A1F61F5FB8CF0E942C108091CE
:10258000F201013031F4811102C0809113018150B8
:1025900007C090E001966091130170E00E941D3326
:1025A0008093F201DF91CF911F910F91FF90EF90F7
:1025B000DF90CF90BF90AF900895CF93809111019D
:1025C00090911201891770F4E82FF0E09F01220F1B
:1025D000331FE20FF31FE95AFC4F1182108212825F
:1025E0008F5FF0CFC0E060911301C617C0F5EC2FEC
:1025F000F0E070E0CF010E941D3320911101820FA5
:102600002091F101022E000C330B90E0E217F3074A
:10261000CCF020910E01022E000C330B2E173F0739
:102620008CF09C01220F331F820F931F9C01295AAB
:102630003C4F4091550360915403809153030E9495
:10264000330F0BC0FC01EE0FFF1F8E0F9F1FFC010D
:10265000E95AFC4F118210821282CF5FC4CF0E94D0
:102660002C1020910D018091F101820F8093F101D6
:1026700090910E01920F90930E0119165CF4082EA2
:10268000000C990B4091130150E0415051098417FF
:1026900095071CF0219520930D01CF9108958F92FD
:1026A0009F92AF92BF92CF92DF92EF92FF920F93E1
:1026B0001F93CF93DF938C01FC014481C42FD0E0A2
:1026C0009E01DE010E9461339B01AC010E947733C1
:1026D0006B017C01E0E2F0E0EC1BFD0BA5E5B0E056
:1026E0009B01AC010E9477334B015C019F01DF012C
:1026F0000E9459339B01AC010E9482339B01AC01C3
:102700002C0D3D1D4E1D5F1DC501B4010E943133CE
:10271000C22FD22F2A3228F4F3E02F9F90011124E8
:102720000DC025E530E02C1B3109C901880F991F28
:10273000280F391F37FF02C02F5F3F4F3595279570
:10274000C22FC095F12C85E5E82EED1A809113017A
:10275000F816C8F4F1FC02C08E2D01C08D2F9091A7
:1027600011012F2D30E0290F311DA901440F551FF4
:10277000240F351F295A3C4F4C2F609154030E945F
:10278000330FF394E3CF0E942C10F8018481811160
:1027900002C091E003C0803219F49FEF90930C01C6
:1027A00090910C01890FF8018483DF91CF911F91E3
:1027B0000F91FF90EF90DF90CF90BF90AF909F90E0
:1027C0008F9008950F931F93CF93DF93EC0100E058
:1027D00010E080911301282F30E00217130724F531
:1027E000909111019801290F311DA901440F551F26
:1027F000240F351F295A3C4F869590E04C810817CD
:1028000019071CF4442331F002C0411103C0409168
:10281000550301C040E060915403809153030E942E
:10282000330F0F5F1F4FD5CF0E942C108C8190E08B
:102830000196817099278C83DF91CF911F910F9121
:1028400008957F928F929F92AF92BF92CF92DF9224
:10285000EF92FF920F931F93CF93DF93FC0182803F
:10286000748081E08483EEEFF6E09490EDE7F7E08A
:10287000E491A12CF5E0BF2ECC24CA94D12CE91907
:102880000E2F10E080911301A81608F0A2C0EA2CC8
:10289000F12C22E0281568F0BE9CF001BF9CF00DE1
:1028A0001124ED50FE4F8091530380838091540397
:1028B000818371100AC0BE9CF001BF9CF00D1124F1
:1028C000ED50FE4F138212826AC0BE9CE001BF9C95
:1028D000D00D1124CD50DE4F8B818823F9F081502B
:1028E0008B832FEF829FC00111246C8170E00E94C6
:1028F0000933FB01FF27E250F94F8491E82FE919D2
:102900002FEFE29FC0011124B8010E94093380918A
:102910005503689FB00111247A8341C00E94D633C9
:10292000209155032695215830E0A901440F551FE9
:10293000322F2227240F351F232F33278217930787
:1029400074F582E0881588F40E94D633B6010E949F
:102950001D3388830E94D633209154032695622F1D
:1029600070E00E941D33280F2983BE9CF001BF9C9C
:10297000F00D1124ED50FE4F1282809155038431E9
:1029800020F0893C18F088EC01C084E1BE9CF00185
:10299000BF9CF00D1124ED50FE4F84838383809102
:1029A00011019701280F311DC901880F991F280FA8
:1029B000391F295A3C4FBE9CF001BF9CF00D1124D9
:1029C000ED50FE4F4281618180810E94330FA394BC
:1029D00059CFDF91CF911F910F91FF90EF90DF9032
:1029E000CF90BF90AF909F908F907F900C942C10C1
:1029F00060915203669570E04BE050E084E191E015
:102A00000E94E633892B19F481E0809361020E94D1
:102A1000A02A90935802809357028091170380FF59
:102A200008C081EB93E09F938F930E94D2060F9092
:102A30000F900895109261028091170380FF08C0E3
:102A400088E993E09F938F930E94D2060F900F9096
:102A500008959091520390FF54C09170811102C06B
:102A6000926006C08B3210F0946502C0880F982BDC
:102A7000909352036623B1F0609152037091530317
:102A800080915403909155030E94560F8091170333
:102A900080FF1BC08091520386951F928F9384E71D
:102AA00095E00BC08091170380FF0FC08091520307
:102AB00086951F928F9386E595E09F938F930E9452
:102AC000D2060F900F900F900F9060915203669571
:102AD00070E04BE050E084E191E00E94E633892B06
:102AE00019F00E941A1502C00E94F81481E0809328
:102AF0005A024091550360915403809153030C9402
:102B000023120895682F90915203969581E0890FC2
:102B10008B3208F081E00C94291581E00C94821529
:102B2000682F9091520396958FEF890F09F48AE2EE
:102B30000C94291581E00C94901561E00C942915F2
:102B4000809152038160809352038091170380FF2C
:102B50000DC01F9281E08F9388EE94E09F938F9336
:102B60000E94D2060F900F900F900F908091520309
:102B700086950C949D1560E00C94291580915F0258
:102B8000811160C08091170380FF08C087E196E043
:102B90009F938F930E94D2060F900F9080911703FE
:102BA00080FF08C081E096E09F938F930E94D20639
:102BB0000F900F900E947728811110C08091170309
:102BC00080FF08C089ED95E09F938F930E94D20605
:102BD0000F900F900E9427290E94680F0E94520FA9
:102BE000609352037093530380935403909355035F
:102BF0006E7FC1F48091170380FF08C080E995E0E3
:102C00009F938F930E94D2060F900F900E94680F9F
:102C10000E94520F609352037093530380935403A6
:102C2000909355030E94380F0E94780F1092610212
:102C30008091520380FF03C086950E94BB1581E0FE
:102C400080935F02089580915203816080935203C4
:102C50008091170380FF0DC01F9281E08F938FEA50
:102C600094E09F938F930E94D2060F900F900F9045
:102C70000F908091520386950C94BB1510925E02C2
:102C800080915D0281110E9423160C94F8148091AA
:102C900052038E7F809352036091520370915303CD
:102CA00080915403909155030E94560F8091170311
:102CB00080FF0FC08091520381701F928F9387E72E
:102CC00094E09F938F930E94D2060F900F900F90E5
:102CD0000F900E941A152FEF80E792E0215080405C
:102CE0009040E1F700C000000C942C108091170375
:102CF00080FF10C080915203809581701F928F9346
:102D00008FE195E09F938F930E94D2060F900F90D2
:102D10000F900F908091520380FD0C9447160C94F5
:102D2000A015809152038E7F8093520380911703E8
:102D300080FF0CC01F921F928DE394E09F938F93AE
:102D40000E94D2060F900F900F900F900E941A15BC
:102D50002FEF80E792E0215080409040E1F700C0E3
:102D600000000C942C100E941A1580915E028111B3
:102D70000AC081E080935E0280915203817080934B
:102D80005D020C94911608950F931F93CF93DF93D8
:102D900080916102882309F495C080916002E091DE
:102DA0005203E695E81BE0935902823049F4F0E0C3
:102DB000E650F94FE491CE2FD0E005E810E159C07C
:102DC000863049F4F0E0E950F94FE491CE2FD0E09D
:102DD00009E910E14EC0893051F4E695F0E0EC507D
:102DE000F94FE491CE2FD0E006E212E142C08F30DD
:102DF00051F4E695F0E0EF50F94FE491CE2FD0E09A
:102E000001E612E136C0853149F4F0E0E251F94FB4
:102E1000E491CE2FD0E00DED12E12BC08831D9F036
:102E2000833239F4ECEEF6E0C591D49109EA10E171
:102E300020C08432A9F08532C1F48E2F63E00E9455
:102E4000EF32E92FF0E0E751F94FE491CE2FD0E0D7
:102E500001E214E10EC0C8E2D0E00FE413E109C0C2
:102E6000C4EFD1E002EE13E104C0C0EDD7E001E20F
:102E70001FE080915A02882361F010925A020E944A
:102E8000A02A909358028093570210925C021092ED
:102E90005B020E94A02AE0915702F09158028E1B1B
:102EA0009F0B8F3F9F4770F4EC0FFD1FF09358026C
:102EB000E093570287E592E0F801DF91CF911F91EF
:102EC0000F910994DF91CF911F910F91089588235D
:102ED00011F0FA0101C0FB010994CF93DF93C82FD1
:102EE000D62F0E94F30F8C1740F00E94F30F8D171E
:102EF00020F4DF91CF910C948D158C2FDF91CF9121
:102F00000C949D150F931F93CF93FB01C281CC238B
:102F100009F463C08C010E94C0278272F801E35C4F
:102F2000FC45E431F10508F059C0EA5AFF4F0C9412
:102F300053330E94761606C04AE955E16DE875E103
:102F40000E946717C0E04AC04DE855E16AE975E1A3
:102F5000F7CF44EE51E167ED71E1F2CF47ED51E17A
:102F600064EE71E1EDCF42E052E163EF71E1E8CF51
:102F700043EF51E162E072E1E3CF40E252E161E10F
:102F800072E1DECF41E152E160E272E1D9CF46E287
:102F900050E16FE070E1D4CF4FE050E166E270E1C4
:102FA000CFCF81E017C065E082E010C068E086E026
:102FB0000DC06EE089E00AC064E18FE007C067E100
:102FC00085E104C088E106C062E289E10E946D17D4
:102FD000B9CF83E20E949D15B5CFC1E08C2FCF9170
:102FE0001F910F9108950E947728811102C00E94BD
:102FF00027290E94A82880939303282F2695269599
:10300000269530E02430310524F087708861809364
:1030100093038091930380FF04C0869586958695DF
:1030200001C080E00C946E1920919303822F869545
:1030300086958695482F50E04330510554F48F5FB4
:10304000982F990F990F990F822F8770892B809352
:103050009303809193038160809393030E94AC2833
:103060008091170380FF11C0809193038695869508
:1030700086951F928F938AE698E09F938F930E9484
:10308000D2060F900F900F900F908091930386952A
:10309000869586950C946E1980919303982F96953A
:1030A00096959695A1F0915E990F990F990F87705B
:1030B000892B80939303887F91E009F490E08091BD
:1030C000930390FB80F9809393030E94AC28809136
:1030D000170380FF11C0809193038695869586958E
:1030E0001F928F9382E598E09F938F930E94D20660
:1030F0000F900F900F900F90809193038695869577
:1031000086950C946E198091930380FD1FC0816099
:1031100080939303813019F489E080939303809125
:1031200093030E94AC288091170380FF08C08AE2B5
:1031300098E09F938F930E94D2060F900F908091FA
:1031400093038695869586950C946E1908958091C3
:10315000930380FF14C08E7F809393030E94AC285A
:103160008091170380FF08C087E198E09F938F93B9
:103170000E94D2060F900F9080E00C946E19089573
:10318000CF93C0919303C1708091170380FF0CC04F
:103190001F92CF938CE398E09F938F930E94D20667
:1031A0000F900F900F900F90CC2319F0CF910C94AB
:1031B000A718CF910C94831890919303892F86952B
:1031C000869586958F5F8F719770843038F4880F5D
:1031D000880F880F892B8093930302C090939303E9
:1031E00080919303887F91E009F490E080919303AC
:1031F00090FB80F9809393030E94AC288091170381
:1032000080FF11C0809193038695869586951F92C5
:103210008F9383E098E09F938F930E94D2060F9044
:103220000F900F900F9080919303869586958695C9
:103230000C946E19843008F083E09091930397709A
:10324000282F220F220F220F922B90939303987F07
:1032500021E009F420E09091930320FB90F99093F2
:1032600093030C946E190E941A19809193030C9485
:10327000AC289C01FB018281882349F12E3BFCE5AF
:103280003F07C9F040F42C3BECE53E0769F02D3BCD
:103290003C4561F00895203C9CE5390791F070F0C1
:1032A000213C3C4589F0089583E001C080E00E9404
:1032B000331980E008950E944C18FBCF0E94141827
:1032C000F8CF0E94C018F5CF0E94DC18F2CF81E041
:1032D0000895259A2D9808952D980895CF92DF92FC
:1032E000EF92FF92CF93C82F843050F4811109C020
:1032F000809180008F77809380000E946C1906C0B7
:10330000C3E0809180008068809380002C2F30E0A3
:10331000AFEFBFEF0E94613323E030E040E050E0C8
:103320000E943133B42FA32F922F8827492F5A2F71
:103330006B2F7727CA014C3724E1520728F469E044
:1033400070E00E94093329C0DB01CA018A50974D01
:10335000AF4FBF4F6627782F892F9A2F25EF38E27E
:1033600041E050E00E94313369017A01CA01B9019C
:103370000E94DF329B01AC01C701B6010E94DF321F
:10338000BB27A92F982F872F009721E0A207B1050F
:1033900011F0BC0102C06FEF7FEF70938900609362
:1033A0008800CF91FF90EF90DF90CF90089508951F
:1033B0000E94691982E88093800089E180938100EE
:1033C0008FEF9FEF90938700809386000C94F31704
:1033D0006A9A2EB12B7F3EB134604FB7F894FC014E
:1033E000CB01880F991F680F791F6E0F7F1FE6179B
:1033F000F70789F0819198E03EB9000000C087FF8F
:103400002EB9880F000000C000C000C02EB900C057
:103410009A9591F7ECCF4FBF8FE594E00197F1F7C4
:1034200000C0000008950F931F93CF93DF93C42F24
:10343000D22FFC0182818823C9F0409364020E944C
:10344000A02A909363028093620280E28C0F8830FE
:1034500008F057C0C77081E001C0880FCA95EAF72D
:10346000DF91CF911F910F910C94671F809164029F
:10347000481330C080916202909163020E94B82A82
:10348000883C910538F510E21D0FCD17B9F080E2A8
:103490008C0F883040F4C77081E001C0880FCA9556
:1034A000EAF70E946E1F183028F581E09D2F977073
:1034B00001C0880F9A95EAF70E94671F802F0E942B
:1034C0005E1F1830F0F4D77081E001C0880FDA95E4
:1034D000EAF70AC080E28C0F883098F4C77081E068
:1034E00001C0880FCA95EAF7DF91CF911F910F9124
:1034F0000C946E1F802FDF91CF911F910F910C9430
:103500005E1FDF91CF911F910F9108950F939C0142
:10351000CB01243F4CE5340731F188F4293DFCE52B
:103520003F07D9F02A3D4CE5340779F1283D3C4569
:10353000A9F506E221EE41EE68ED7CE52BC0263FC1
:10354000FCE53F07E1F0A8F0273F3C4539F507E2ED
:1035500025EE46EE67EF7CE51DC007E225EE45EE61
:1035600069ED7CE517C006E221EE40EE64EF7CE5F4
:1035700011C007E225EE44EE65EF7CE50BC006E2E4
:1035800021EE42EE66EF7CE505C008E221E045EE63
:103590006AED7CE50E94131A80E008C0FC0182817C
:1035A000882319F01092640201C081E00F91089500
:1035B000CF93DF93EC01FB018281882309F41FC1C3
:1035C000C230FCE5DF0708F41BC1C6319CE5D90712
:1035D00038F09E012B5F3C452930310508F010C1C1
:1035E0000E948A289093990380939803C031ECE558
:1035F000DE0709F4C3C008F041C0C8308CE5D80725
:1036000009F49AC0F0F4C430ECE5DE0709F487C091
:1036100068F4C2308CE5D80709F477C0C330DC45C4
:1036200009F0E3C080919803826076C0C630ECE573
:10363000DE0709F46EC008F07BC0809198038860B3
:103640006BC0CC308CE5D80709F485C068F4CA306B
:10365000ECE5DE0709F474C008F079C00E94F4219B
:1036600080919803806858C0CE308CE5D80709F463
:1036700076C008F07FC0809198038BC0CC3FECE50A
:10368000DE0709F44FC018F5C3318CE5D80709F4FB
:103690007DC078F4C131ECE5DE0709F473C0C231B6
:1036A000DC4509F0A2C00E94F421809198038F7735
:1036B00033C0C5318CE5D80709F472C008F486C060
:1036C000CB3FDC4509F091C0809199033EC0C11504
:1036D000FDE5DF0709F45FC058F4CE3F9CE5D9074C
:1036E00009F444C008F43FC08091990382602DC062
:1036F000C230FDE5DF0709F475C008F45DC0C330D2
:10370000DD4509F072C080E06EC080919803816051
:1037100003C08091980380618093980366C0809174
:10372000980311C0809199038260809399035DC0D2
:10373000809198038062F0CF809198038064ECCFF1
:103740008091980388608460E7CF8160EECF80919C
:1037500098038E7FE1CF809198038D7FDDCF80919C
:103760009803877FD9CF8091990318C080919903DE
:103770008D7FDBCF809198038F7ECECF8091980391
:103780008F7DCACF809198038F7BC6CF809198039D
:10379000877F8B7FC1CF809199038D7F8E7FC5CF2F
:1037A0008091980382FB222720F991E0922790FBD9
:1037B00082F990FB83F9B0CF80919903982F90956F
:1037C00091708E7F892B90FB81F9AFCF0E94F421FD
:1037D0008091980387FB222720F991E0922790FBA4
:1037E00087F99ACF81E00E942929809198039091CE
:1037F00099030E949B280E94F42180E001C081E08F
:10380000DF91CF910895CF93DF9386319C4541F5A9
:10381000EB010E94C027982F8A8120911F013091CF
:103820002001882379F09A7A81E009F480E080937E
:103830006502911102C069E201C065E3C9010E94FD
:10384000E6290AC080916502811102C069E201C0C7
:1038500065E3C9010E94F1290E940E2880E001C0A1
:1038600081E0DF91CF91089590936B0280936A027B
:103870000895E0916A02F0916B02309721F0019077
:10388000F081E02D099480E00895EF92FF921F935C
:10389000CF93DF93FC01A0916A02B0916B02109765
:1038A00009F442C080912B01882341F08091980354
:1038B00087FF04C08081818385E08083EF011296B9
:1038C000ED91FC911397CE0109958091170382FF2A
:1038D0002BC080FF04C08AE899E00E94390618E0F6
:1038E00084E8E82E89E0F82E8091170380FF0BC052
:1038F00088811F928F93FF92EF920E94D2060F90C1
:103900000F900F900F90115021961111EDCF8091D3
:10391000170380FF09C082E899E0DF91CF911F91E2
:10392000FF90EF900C943906DF91CF911F91FF909B
:10393000EF900895E0916A02F0916B02309739F0B0
:1039400022E0DC012C930480F581E02D0994089598
:1039500020916802309169022817390771F090931D
:10396000690280936802E0916A02F0916B023097DD
:1039700021F00680F781E02D0994089520916602D8
:10398000309167022817390771F09093670280938E
:103990006602E0916A02F0916B02309721F0008498
:1039A000F185E02D099408950E94AC2A60937B0272
:1039B00070937C0280937D0290937E0260937702E5
:1039C000709378028093790290937A02089585B774
:1039D000806885BF85B7806885BF089581E00895B8
:1039E0000C94EE1C08950C94F21C0C94F21C0C9494
:1039F000F51C0C94F21C0C94F91C0C94F21C0E9403
:103A0000E71C8EE19DE20E94112B0E94FD1C0C948C
:103A1000FB1C0E94972A0E94780A0E942C2B0E946D
:103A2000F3170E94BE150C94F71CCF93C82F8091FA
:103A3000170382FF1EC080FF04C083EA99E00E9442
:103A400039068091170380FF0CC01F92CF938EE937
:103A500099E09F938F930E94D2060F900F900F9042
:103A60000F908091170380FF04C08CE999E00E94B9
:103A700039068C2FCF910C94E9076F927F928F9229
:103A80009F92AF92BF92CF92DF92EF92FF920F93ED
:103A90001F93CF93DF93CDB7DEB72A970FB6F89475
:103AA000DEBF0FBECDBF0E94F31C0E94F21C0E941D
:103AB000AA0A81110E94D41C3DE6832E32E0932E87
:103AC00000E010E0C02E802F0E94020A5C01F40189
:103AD000619071904F016826792661147104B1F4E8
:103AE0000F5F1F4F0530110569F78FEF89838A83B8
:103AF0001B820E94A02A8160782F9D838C8349813C
:103B00005A816B818D810E94FB1D3AC08091170301
:103B100081FD0E940B0AD12CEE24E394F12CC30109
:103B20008E219F21892B29F10E94F01C8823A9F066
:103B3000DE82CF82AE20BF2081E0AB2809F480E096
:103B400088870E94A02A8160782F9A8789874E8172
:103B50005F8168858A850E94FB1D000F111FF80197
:103B6000E359FD4F80819181E826F926F182E082B8
:103B700007C0D394EE0CFF1CF0E1DF12D0CFB0CF22
:103B80000E94C4160E94D7190E946C0D0E94391C15
:103B900090916C028917D1F00E94391C80936C02BD
:103BA0002A960FB6F894DEBF0FBECDBFDF91CF913E
:103BB0001F910F91FF90EF90DF90CF90BF90AF904B
:103BC0009F908F907F906F900C94151D2A960FB642
:103BD000F894DEBF0FBECDBFDF91CF911F910F9143
:103BE000FF90EF90DF90CF90BF90AF909F908F901D
:103BF0007F906F900895DF92EF92FF920F931F9343
:103C0000CF93DF93CDB7DEB72B970FB6F894DEBF17
:103C10000FBECDBFF42E052F162FE72ED82E611123
:103C20000E94E027FE01319686E0DF011D928A9511
:103C3000E9F77E2D4F2D502F612F8D2D9E810E94F3
:103C4000AD242B960FB6F894DEBF0FBECDBFDF912B
:103C5000CF911F910F91FF90EF90DF900895FC019D
:103C6000808191810E9481270895CF93882309F450
:103C7000A4C0C82F8238C1F40E94391C81FD9DC0A8
:103C800069E380911F01909120010E94E6290E9422
:103C90000E282FEF81EE94E0215080409040E1F714
:103CA00000C0000069E319C0833801F50E94391C87
:103CB00080FD83C063E580911F01909120010E94E7
:103CC000E6290E940E282FEF81EE94E021508040DB
:103CD0009040E1F700C0000063E580911F019091E2
:103CE00020010E94F129CF910C940E288438C1F450
:103CF0000E94391C82FD61C067E480911F01909190
:103D000020010E94E6290E940E282FEF81EE94E008
:103D1000215080409040E1F700C0000067E4DDCF13
:103D20008CEF8C0F813AD0F46C2F80911F01909111
:103D300020010E944429882349F06C2F80911F01A3
:103D4000909120010E94F1290E940E286C2F8091F1
:103D50001F01909120010E94E629C5CF80E28C0FBF
:103D6000883048F4C77081E001C0880FCA95EAF72F
:103D70000E94C327B8CFEBE5EC0FE33040F4F0E04E
:103D8000E553FE4F808190E0CF910C94A81CE8E5AC
:103D9000EC0FE73150F4F0E0EE0FFF1FE356FE4F5B
:103DA00080819181CF910C94BE1CCD3E30F08C2F40
:103DB0000E94FA0BCF910C94CC0CCF9108958823DC
:103DC00009F464C0823879F40E94391C81FF5EC016
:103DD00069E380911F01909120010E94E6290E94D1
:103DE0000E2869E310C08338B1F40E94391C80FFAB
:103DF0004DC063E580911F01909120010E94E6294A
:103E00000E940E2863E580911F01909120010E947D
:103E1000F1290C940E28843879F40E94391C82FF11
:103E200035C067E480911F01909120010E94E6292E
:103E30000E940E2867E4E7CF9CEF980F913A10F4A8
:103E4000682FE1CF90E2980F983050F4877091E09E
:103E500001C0990F8A95EAF7892F0E94C927D9CF07
:103E60009BE5980F933020F480E090E00C94A81C20
:103E700098E5980F973120F480E090E00C94BE1CF8
:103E80008D3E20F00E94550C0C94CC0C08951F938D
:103E9000CF93DF93182FEB010E94351E209741F03E
:103EA0008FE99FE00197F1F700C000002197F6CF5E
:103EB000812FDF91CF911F910C94DF1E893319F070
:103EC00060E070E002C060E570E00C94471F88235A
:103ED00021F00E94C3270C940E280895882321F016
:103EE0000E94C9270C940E280895CF92DF92EF927A
:103EF000FF920F931F93CF93DF937C01062FC72F61
:103F0000FC01D281158112951F700E94B927882368
:103F100099F0DD2389F08C2F807F803421F080E2BE
:103F2000800F883048F082E00E9458280E94B9270C
:103F300091E0D82ED92601C0D12CCC2EC2948FE08E
:103F4000C8228C2D90E0FC01E659FF4F0C945333AE
:103F50008C2F807FCF70882311F0C295C07FDD2326
:103F600099F0CC2309F48DC180E2800F883010F0E5
:103F7000011104C08C2F0E94C32703C08C2F0E9404
:103F8000D3270E940E287DC1802F0E94DF1ECC23E4
:103F900009F49CC180E2800F883010F0011104C048
:103FA0008C2F0E94C92703C08C2F0E94D9270E9402
:103FB0000E288CC18C2F807FCF70803211F0C2957B
:103FC000C07F002319F00130C9F022C0DD2371F059
:103FD000112341F0113031F40E94F3278C2B0E9401
:103FE000FB2774C10E94F3278C2B1DC0112319F0ED
:103FF000113009F46BC10E94042825C0DD2321F093
:10400000163008F063C10EC0153008F05FC11BC048
:10401000DD2361F0112331F0F701858180FF31C18B
:104020008F7085838C2F0E94671F50C1112359F018
:10403000093309F037C1FFEF27EE83E0F15020404C
:104040008040E1F72DC18C2F0E946E1F3FC18C2F45
:1040500086958695837019F0813061F037C1DD2334
:1040600021F0802F9C2F937002C080E090E00E948E
:10407000A81C34C1DD2321F0802F9C2F937002C037
:1040800080E090E00E94BE1C29C1802FDD2319F042
:104090000E94FA0B02C00E94550C0E94CC0C1EC15B
:1040A0008C2F837009F045C0D11114C1402F429567
:1040B00046954770440F440F602F6F70862F90E035
:1040C000A0E0B0E0042E04C0880F991FAA1FBB1FF8
:1040D0000A94D2F704FF10C00FE010E020E030E0B7
:1040E00004C0000F111F221F331F4A95D2F70095FD
:1040F00010952095309503C000E010E09801C6951A
:10410000C695C370BC01CD01602B712B822B932B04
:10411000C23049F058F4C13019F00E94FE25DAC0CF
:104120000E94EC25D7C00E941026D4C00E94EA2528
:10413000D1C0DD2319F08C2F817001C086958823B2
:1041400009F4C8C0402F429546954770440F440F6C
:10415000602F6F70862F90E0A0E0B0E0042E04C0C6
:10416000880F991FAA1FBB1F0A94D2F704FF10C023
:104170000FE010E020E030E004C0000F111F221F0C
:10418000331F4A95D2F7009510952095309503C0BE
:1041900000E010E09801C695C695C370BC01CD0142
:1041A000602B712B822B932BC23049F058F4C13015
:1041B00019F00E94C3268EC00E94B1268BC00E94B7
:1041C000D52688C00E94242685C0CF70DD2339F013
:1041D0008C2F0E944A26802F0E94671F7BC0802F51
:1041E0000E946E1F8C2F0E946B2674C0023F01F14B
:1041F00028F4003F41F0013FA1F03FC0033FF9F038
:10420000043F39F13AC0DD2341F0153008F05EC0BB
:104210008C2F8F710E94902659C0163008F056C01E
:10422000F7CFDD2339F08C2F8F710E944A264EC0C4
:10423000DD23C9F38C2F8F710E946B2647C0DD23CD
:1042400029F08C2F8F710E94352640C00E943026A5
:104250003DC0DD2349F0CF718C2F0E944A2663E0D8
:104260008C2F0E94432832C081E00E9458281230CF
:1042700068F182E00E94582829C0DD2331F0112323
:1042800091F2802F0E94351E21C0112399F209332B
:1042900049F49FEFE7EEF3E09150E040F040E1F7A2
:1042A00000C00000802F0E94DF1E10C04C2F4F70F6
:1042B000602FC7010E94F2070E945B250FC04C2FA0
:1042C0004F70602FC7010E94F50708C088EF8C0D62
:1042D000843020F40E94391C0E94E907DD20C9F0D7
:1042E0000E94B52780FD15C0F70112820E94AF27FA
:1042F0000E944A26C7010E94AA210E94AF27DF918F
:10430000CF911F910F91FF90EF90DF90CF900C9481
:104310006B26DF91CF911F910F91FF90EF90DF906F
:10432000CF9008950F931F93CF93DF93EC01688193
:1043300079818A810E948C278C010E94E7260E9445
:10434000D825B801CE010E94751FDF91CF911F9132
:104350000F910895CF93DF93EC01988189812B8190
:104360003C81232B31F08F3F31F481E09F3F19F4E2
:1043700003C081E001C080E080FD19C0CE010E9431
:10438000590781110CC00E94B927882381F08A81C6
:10439000882369F082E0DF91CF910C945828CE01F8
:1043A0000E949221CE01DF91CF910C943007DF91D2
:1043B000CF91089580E090E00E94A81C80E090E0FA
:1043C0000E94BE1C0E94E0270E94F0270E940E2837
:1043D0000E947F0E0C94CC0C80911F0190912001C3
:1043E0000E94FC290C94DA210E94D0270C94EC2125
:1043F000E92FE295EF704E2F50E0FA013297EE3040
:10440000F105B0F4E658FF4F0C945333803F91F020
:1044100018F4883E68F40EC0843F51F40BC0883E07
:1044200048F0813F29F406C093FB882780F908955E
:1044300080E0089581E008950E9481270E94F8217C
:104440000895CF93DF9300D000D01F92CDB7DEB791
:104450000F900F900F900F900F90DF91CF910895D4
:10446000CF93DF9300D000D000D0CDB7DEB7269633
:104470000FB6F894DEBF0FBECDBFDF91CF91089588
:104480001F93CF93DF93C091800216E08091810249
:10449000C81799F0D0E01C9FF0011D9FF00D11246A
:1044A000EE57FD4F408151816281738184819581F6
:1044B0000E9430222196C770E9CFDF91CF911F91E2
:1044C00008954091B2025091B3026091B40270918C
:1044D000B5028091B6029091B7020C9430220F93EE
:1044E0001F93CF93DF938091B70282958F7009F06D
:1044F0005DC08091B402882309F458C08091800285
:10450000109181026091B2027091B302C091B50224
:10451000D091B60291E06F3F09F090E0292F06E0BC
:10452000811709F443C0209721F07F3F21F030E04C
:1045300003C031E001C0322F90E030FD34C0089F4D
:10454000F001099FF00D1124DF01AE57BD4F119608
:104550003C911197371327C03C91361324C0129613
:104560003C91129731111FC013964D915C91149795
:104570004C1B5D0B483C5105B0F48091B7028F7025
:1045800080618093B702E957FD4F80818F70806111
:10459000808382EB92E00E94AA21DF91CF911F914C
:1045A0000F910C94402201968770BACFDF91CF9182
:1045B0001F910F9108959F92AF92BF92CF92DF9279
:1045C000EF92FF920F931F93CF93DF93CDB7DEB798
:1045D00061970FB6F894DEBF0FBECDBF8C0185E0AA
:1045E000F801DE011D9601900D928A95E1F7F80120
:1045F00040815181E2809091B2026091B30220919A
:10460000B5023091B6022115310531F06F3F31F41A
:1046100081E09F3F19F403C081E001C080E0F82FE2
:10462000F1709F2E80FD46C1F801A380B48082EB1B
:10463000C82E82E0D82EF090B402F501E21BF30BF5
:10464000FF2009F4DFC08091B702E83CF10508F0D3
:104650009BC0282F207F09F052C0561313C0491366
:1046600011C0FE2CE1100EC08F7080618093B702E4
:104670000E946122C6010E94AA218091B702F8011E
:10468000858358C1AB2831F05F3F31F481E04F3F63
:1046900019F403C081E001C080E080FD03C081E027
:1046A0008E2502C080E090E0F82FF170FF2E80FF91
:1046B0001CC0809180022091810236E0821709F4AB
:1046C00017C190E0389FF001399FF00D1124EE578B
:1046D000FD4F6181561306C06081461303C062819D
:1046E000E61203C001968770E9CFFE2CEE2009F494
:1046F00021C18091B70281608093B7025AC05613DE
:1047000006C0491304C0E11002C0F8019FC04D87E4
:104710005E878D859E850E941C22882379F1EE207C
:1047200069F12091B702822F82958F7090E00297F5
:1047300074F08091B2029091B30298878F831986AA
:10474000BB86AA862C87CE0107960E94AA2186E006
:10475000F801A2EBB2E001900D928A95E1F70E9478
:104760006F220E9461220DC0561729F14D875E8786
:104770008D859E850E941C2281112CC0C8010E943B
:10478000AA21FF24F394D6C0282F207F69F77A2D21
:10479000B98AA88A6E2D89890E94212282EB92E033
:1047A0000E94AA2186E0F60111928A95E9F70E94FB
:1047B0006122F12CBFC04913D9CFE110D7CFF80146
:1047C0008583C8010E94AA2186E0F60111928A958C
:1047D000E9F7B0C0EE2091F22091B702822F8295C6
:1047E0008F7090E002970CF4B2CF8091B20290915A
:1047F000B3029A8389831B82BD82AC822E83CE0151
:104800000196A3CFE83CF10508F047C0FE2CEE204E
:1048100009F4B4CF561330C049132EC02091B7020B
:1048200020FD21C0822F82958F70482F50E04115C6
:104830005105C9F0F80125834F30510541F08F5FD4
:10484000982F9295907F822F8F70892B8583C80136
:104850000E94AA2186E0F801A2EBB2E001900D923D
:104860008A95E1F742C086E0F801A2EBB2E0019040
:104870000D928A95E1F75EC04D875E878D859E8596
:104880000E941C22811163CF8091B70281608093C6
:10489000B702C8010E94AA214DC07A2DB98AA88A00
:1048A0006E2D89890E94212286E0F60111928A9557
:1048B000E9F71BC0EE2009F461CF4D875E878D8537
:1048C0009E850E941C22F82E882309F457CF86E08B
:1048D000F801A2EBB2E001900D928A95E1F782EB2C
:1048E00092E00E942F1E0E946F220E94612222C02D
:1048F0004D875E878D859E850E948127292F229571
:104900002F70223028F49F7039F0811105C00BC040
:10491000243028F49F7049F4805E883020F0C8016C
:104920000E94AA219F2CF92C05C0F8019581907F47
:1049300099F7F9CF8F2D61960FB6F894DEBF0FBEB1
:10494000CDBFDF91CF911F910F91FF90EF90DF903E
:10495000CF90BF90AF909F9008951F93CF93DF9318
:10496000CDB7DEB72C970FB6F894DEBF0FBECDBF24
:104970004F83588769877A878B879C87CE010796F4
:104980000E94DB228823D1F09F8188852A853B8580
:10499000232B31F08F3F31F481E09F3F19F403C0A6
:1049A00081E001C080E080FD47C04F815885698566
:1049B0007A858B859C850E9430223EC086E0FE0170
:1049C0003796DE01119601900D928A95E1F7FF81ED
:1049D000E8856A857B856115710531F0EF3F31F41B
:1049E00081E0FF3F19F403C081E001C080E080FD59
:1049F00023C02091810230E0C90101968770992778
:104A00004091800250E084179507F1F1F983EA8321
:104A10007D836C8396E0929FD001939FB00D11240B
:104A2000AE57BD4FFE01319601900D929A95E1F778
:104A3000809381020E94402216E080918002909132
:104A40008102891771F1189FC00111248E579D4F63
:104A50000E94DB22882329F1E09180021E9FF00151
:104A60001124EE57FD4F4081518162817381848111
:104A700095810E9430228091800290E0019687709B
:104A8000992780938002D9CF0E94F421109281024D
:104A900010928002E2EBF2E086E0DF011D928A953F
:104AA000E9F72C960FB6F894DEBF0FBECDBFDF91AD
:104AB000CF911F910895EF92FF920F931F93CF9381
:104AC000DF938C01892B09F46CC0F12CEE24E39464
:104AD000E8012196F8018491843740F4843008F08D
:104AE00051C0813081F0823019F15BC0853709F403
:104AF00044C0A8F19CE7980F903708F052C08F7718
:104B00000E94DF1E41C00E5F1F4FFE01849190E2A4
:104B1000980F983050F48770FE2D01C0FF0F8A95D2
:104B2000EAF78F2F0E94E32714C00E94351E2DC084
:104B30000E5F1F4FFE01849190E2980F983060F451
:104B40008770FE2D01C0FF0F8A95EAF78F2F0E9414
:104B5000E9270E940E2819C00E94DF1E16C00E5FB2
:104B60001F4FFE01C491CC2381F08FE99FE0019794
:104B7000F1F700C00000C150F6CF0E5F1F4FFE01DD
:104B8000F49003C00E94351E8E018F2D882309F4F6
:104B90009FCFEFE9FFE03197F1F700C000008150AF
:104BA000F5CFDF91CF911F910F91FF90EF90089576
:104BB000089508950C94D9250C94DA250E94DC25DB
:104BC0006093EE027093EF028093F0029093F102F3
:104BD0000C94DA210C94DE250F931F930091EE02C2
:104BE0001091EF022091F0023091F102602B712BB5
:104BF000822B932B1F910F910C94DE250F931F9303
:104C00000091EE021091EF022091F0023091F1023A
:104C100060237123822393231F910F910C94DE252F
:104C20000F931F930091EE021091EF022091F0027A
:104C30003091F10260277127822793271F910F91EE
:104C40000C94DE250C94D9250E9422266093EA025A
:104C50007093EB028093EC029093ED020C94DA21B6
:104C600060E070E0CB010C9424260F931F9341E089
:104C700050E060E070E08A019B0104C0000F111F4A
:104C8000221F331F8A95D2F7C901B8011F910F91D6
:104C90000C9424260F931F9341E050E060E070E0F5
:104CA00004C0440F551F661F771F8A95D2F7809165
:104CB000EA029091EB02A091EC02B091ED028A0120
:104CC0009B01082B192B2A2B3B2BC901B8011F91E3
:104CD0000F910C9424260F931F9341E050E060E065
:104CE00070E004C0440F551F661F771F8A95D2F7E6
:104CF00040955095609570958091EA029091EB02F5
:104D0000A091EC02B091ED028A019B0108231923C6
:104D10002A233B23C901B8011F910F910C9424262B
:104D20000F931F9341E050E060E070E004C0440F37
:104D3000551F661F771F8A95D2F78091EA029091DE
:104D4000EB02A091EC02B091ED028A019B010827D1
:104D500019272A273B27C901B8011F910F910C94ED
:104D600024260F931F930091EA021091EB022091E9
:104D7000EC023091ED02602B712B822B932B1F9153
:104D80000F910C9424260F931F930091EA02109127
:104D9000EB022091EC023091ED026023712382231B
:104DA00093231F910F910C9424260F931F9300912E
:104DB000EA021091EB022091EC023091ED026027A3
:104DC0007127822793271F910F910C942426089511
:104DD00020E1929F800D1124E82FE695E695E69557
:104DE000877051E001C0550F8A95EAF785E0E89F8A
:104DF000F0011124E854FD4F20E030E070E04081E4
:104E0000CB01022E02C0969587950A94E2F7817035
:104E1000819584278523842781932F5F3F4F2530F9
:104E2000310569F7089520E1929F800D1124682FC4
:104E3000669566956695982F977085E0689FB00196
:104E4000112440E050E080E0FB01E40FF51FE8543E
:104E5000FD4F208130E0092E02C0369527950A9437
:104E6000E2F721703327042E01C0220F0A94EAF7DB
:104E7000822B4F5F5F4F4530510531F70895BF9248
:104E8000CF92DF92EF92FF920F931F93CF93DF9316
:104E90008C01C090EA02D090EB02E090EC02F0901E
:104EA000ED028091EE029091EF02A091F002B0919C
:104EB000F102C82AD92AEA2AFB2ACFE1D0E0D70199
:104EC000C6010C2E04C0B695A795979587950A94B0
:104ED000D2F780FD04C0219790F7B12C07C0BC2EFB
:104EE000B8018C2F0E9413080197A9F38B2DDF9135
:104EF000CF911F910F91FF90EF90DF90CF90BF90D7
:104F00000895CF93DF93EC010E943F27BE010E94DA
:104F10001308DF91CF9108951F93CF93DF93EB0197
:104F200090917F02992321F0CB010E94812713C029
:104F3000882349F0CB010E943F27182F682FCE010C
:104F40000E94E82604C0CB010E941327182FBE013F
:104F5000812F0E941308DF91CF911F9108958091B6
:104F6000F20285958595859508958091F202877066
:104F700008959091F202977081E009F480E008951D
:104F800080911603089590911603892B8093160340
:104F900008958095909116038923809316030895B0
:104FA00010921603089590911503892B8093150391
:104FB0000895809590911503892380931503089592
:104FC00010921503089590911403892B8093140374
:104FD0000895809590911403892380931403089574
:104FE0001092140308958091F302089508950C948B
:104FF000F6270C94F7279091F302981721F08093ED
:10500000F3020C94F92708958091F302882329F084
:105010001092F30280E00C94F9270895E0911F01AB
:10502000F0912001809116038083E0911F01F0919F
:105030002001908180911503892B8083E0911F01CD
:10504000F0912001908180911403892B80838091BD
:10505000F302882381F0E0911F01F09120019081FB
:10506000892B808380911F01909120010E942E291D
:1050700081110E94042880911F01909120010C94BD
:10508000451C0C94F62798E0899F90011124262B4B
:105090002093F2020E944A268091F202859585951E
:1050A00085950C9441281092F20280E00C944128DE
:1050B0002091F202809582238093F202982F9770BC
:1050C00079F430E0482F082E000C550B24173507D3
:1050D00039F08595859585950E946B260C9453280B
:1050E00008956FEF7FEF80E090E00C94253480E02E
:1050F00090E00E94013421E08B3E9E4F09F020E0B9
:10510000822F089582E090E00C94F33383E090E0E6
:105110000C94F333CF9384E090E00E94F333C82FD4
:1051200081E290E00E94F3332C2F30E0A901582B4C
:10513000CA01CF910895CF93C92F682F84E090E0E2
:105140000E9407346C2F81E290E0CF910C940734D9
:1051500086E090E00C94F333682F86E090E00C94A6
:105160000734AB01BC018FE090E00C941934AB0123
:10517000BC0183E190E00C94193460E070E0CB0155
:105180000C94B72860E070E0CB010E94B1280C9429
:10519000BD286BEE7EEF80E090E00E94253460E059
:1051A00082E090E00E94073460E083E090E00E949B
:1051B00007341092EE021092EF021092F002109259
:1051C000F10260E084E090E00E94073460E081E258
:1051D00090E00E94073460E085E090E00E94073490
:1051E00060E086E090E00E9407346FEF87E090E097
:1051F0000E94073440E050E0BA0188E090E00E944D
:10520000193460E08DE090E00E94073440E050E007
:10521000BA0188E190E00E94193460E087E190E0F3
:105220000E94073440E050E0BA018CE190E00E9417
:10523000193460E080E290E00E94073440E050E0E2
:10524000BA0188E190E00E9419340C94C2280C94B1
:10525000C928682F8EE090E00C940734FC01329648
:1052600080912B01882331F08091980387FF02C041
:105270009EE101C096E080E0915028F02191222328
:10528000D9F38F5FF9CF0895662351F120912B0157
:105290002223E9F02091980327FF19C0462F469555
:1052A000469546954E31E0F4677021E030E002C04B
:1052B000220F331F6A95E2F7FC01E40FF11D828192
:1052C00090E02823392381E0232B69F409C0FC01F5
:1052D000329608962191621729F0E817F907D1F75D
:1052E00080E0089581E008959C01FC0132969FEFD3
:1052F00080E04191461789F09F3F19F4411101C0A8
:10530000982F8F5F8630A9F79F3F39F0F901E90F99
:10531000F11D97FDFA956283089508959C012A5F17
:105320003F4FFC014281461301C012820196821751
:105330009307B9F70895262F2695269526952E31A1
:1053400070F4FC01E20FF11D677021E030E001C054
:10535000220F6A95EAF78281282B22830895809193
:10536000170380FF0CC01F926F9384ED99E09F9309
:105370008F930E94D2060F900F900F900F90089578
:10538000262F2695269526952E3178F4FC01E20FDE
:10539000F11D677021E030E001C0220F6A95EAF745
:1053A000209582812823228308958091170380FF0E
:1053B0000CC01F926F9386EB99E09F938F930E948E
:1053C000D2060F900F900F900F90089520912B010F
:1053D000222329F02091980327FD0C949B290C94FB
:1053E000742920912B01222329F02091980327FD75
:1053F0000C94C0290C948E2920912B01FC0132962B
:10540000222331F08091980387FF02C08EE101C012
:1054100086E0DF011D928A95E9F7089508950C94BE
:105420000E2A0C940E2ACF930E94112A0E94AA0AD7
:105430000E940F2AC0E08C2F0E94020A892B29F4B7
:10544000CF5FC530C1F780E001C081E0CF91089502
:105450000C940E2A0C94282A80919E03843009F41F
:105460002EC00E942A2A80E00E946E1980E00E94CD
:10547000E9070E94B3161092180320E488E190E037
:105480000FB6F894A895809360000FBE209360003B
:1054900083B7817F846083BF83B7816083BF789443
:1054A000889583B78E7F83BF0FB6F894A8958091B7
:1054B0006000886180936000109260000FBE0895C4
:1054C0000C940E2A0E94F4210E94F3170E94391CAA
:1054D0000E94E9070E943E160C94602A1F920F92C8
:1054E0000FB60F9211248F939F93AF93BF93809128
:1054F0001803811113C08091940390919503A0919A
:105500009603B09197034196A11DB11D809394031A
:1055100090939503A0939603B0939703BF91AF9197
:105520009F918F910F900FBE0F901F90189582E062
:1055300084BD93E095BD9AEF97BD80936E0008956A
:105540002FB7F8948091940390919503A0919603BE
:10555000B09197032FBF08952FB7F89460919403EB
:105560007091950380919603909197032FBF0895B2
:105570009C014FB7F8948091940390919503A0916A
:105580009603B09197034FBF821B930B08957894B5
:105590001F920F920FB60F9211248F939F93AF9388
:1055A000BF938091940390919503A0919603B0913D
:1055B00097030196A11DB11D8093940390939503C9
:1055C000A0939603B0939703BF91AF919F918F9152
:1055D0000F900FBE0F901F90189581E08093E00010
:1055E00080E28093D8001092C9008FE19EE4019779
:1055F000F1F700C0000087E090EBDC018093A70387
:105600009093A803A093A903B093AA039CE088E118
:105610000FB6F894A895809360000FBE9093600039
:10562000FFCF9093DF018093DE0108950C947128E1
:105630000E94AA0A8FE39CE90197F1F700C00000DD
:105640000E94AA0A80E00E94020A80FF04C00E9411
:10565000162B0C94ED2A08950E947728811102C020
:105660000E9427290E948228809317030E948A287B
:1056700090939903809398030E948628682F70E086
:1056800080E090E00E94EA256091EA027091EB02CE
:105690008091EC029091ED020C94222680913C03C3
:1056A0000895CF93DF9300D01F92CDB7DEB79091CE
:1056B0009E03943019F589837B836A8382E080930B
:1056C000E9008FEF9091E800815095FD06C095EDBF
:1056D0009A95F1F700008111F5CF8091E80085FFE0
:1056E0000DC040E050E063E070E0CE0101960E9402
:1056F000422E8091E8008E778093E8000F900F9003
:105700000F90DF91CF910895BC0184E00C94512B50
:10571000BC0183E00C94512B22E02093E9002FEF91
:105720003091E800215035FD06C035ED3A95F1F78E
:1057300000002111F5CF2091E80025FF0BC040E0CB
:1057400050E066E070E00E94422E8091E8008E7783
:105750008093E8000895CF93DF9320912B012223BB
:1057600039F02091980327FF03C060E222E002C0D5
:1057700068E021E02093E9002FEF3091E80021500C
:1057800035FD06C035ED3A95F1F700002111F5CF52
:105790002091E80025FF1DC0EC0180912B018111B3
:1057A00005C040E050E068E070E003C070E040E019
:1057B00050E0CE010E94422E8091E8008E778093C7
:1057C000E80080E2FE01ACE1B3E001900D928A9521
:1057D000E1F7DF91CF91089587E19AE00E943906C1
:1057E00080919D03811109C00E94D32F0E94303007
:1057F0008091E20084608093E200089583E19AE062
:105800000E94390610929D0308958FE09AE00C944F
:1058100039068BE09AE00C94390687E09AE00C9404
:10582000390620911A032F5F822F62E30E94EF3224
:10583000992319F020931A03089510921A03809166
:105840001B03882371F180919E03843041F5809180
:10585000E9008F702091EC00922F917020FD90E86C
:10586000892B93E09093E9009091EB0090FF14C096
:105870009091EE0097FF10C09091E80095FF03C053
:105880001092F100F9CF9091E80090FF05C090913F
:10589000E8009E779093E8008F708093E900109263
:1058A0001B03089542E061EC81E00E944C2F42E22C
:1058B00061EC82E00E944C2F42E261EC83E00C94A8
:1058C0004C2F8091A003833009F460C030F4813004
:1058D00071F0823009F499C008958A3009F485C0C6
:1058E0008B3009F46BC0893009F0A7C020C08091CB
:1058F0009F03813A09F0A1C08091E800877F8093DF
:10590000E8008091A3039091A403892B21F460E225
:105910008CE193E003C060E080E090E070E00E94E2
:105920008D2E8091E8008B778093E8000895809118
:105930009F03813209F081C08091A3039091A40359
:10594000029708F07AC08091E800877F8093E80092
:105950008091E80082FD05C080919E038111F8CFFF
:105960006CC02091F3008091F20090E0922B02979E
:1059700029F48091F1008B7F813021F48091F10036
:1059800080933C038091E8008B7753C080919F0304
:10599000813A09F052C08091A3039091A403892B0E
:1059A00009F04BC08091E800877F8093E8008091E8
:1059B000E80080FFFCCF80912B0136C080919F03CF
:1059C0008132D9F58091A3039091A403892BA9F585
:1059D0008091E800877F8093E8000E94812F80916A
:1059E000A10380932B010C94F42180919F038132B9
:1059F00021F58091E800877F8093E8000E94812F45
:105A00008091A20380933D03089580919F03813A82
:105A1000A1F48091E800877F8093E8008091E800FE
:105A200080FFFCCF80913D038093F1008091E800DE
:105A30008E778093E8000C94812F08959FB7F89497
:105A400010921B039FBF90919E03943009F057C0A2
:105A50009091E9009F703091EC00232F217030FD70
:105A600020E8922B23E02093E9002091EB0020FF17
:105A700043C02091EE0027FF3FC02091190322234D
:105A800021F02091E80025FF37C01092190326E08D
:105A90003091E80035FD15C030919E03343061F53A
:105AA0003091EB0035FD28C0215021F481E0809336
:105AB000190322C0EFE9FFE03197F1F700C00000C1
:105AC000E7CF8093F1008091E80085FD0AC08091C6
:105AD000E80080FFFCCF8091E8008E778093E8009B
