:100000000C94E9050C9430060C9430060C943006E0
:100010000C9430060C9430060C9430060C94300688
:100020000C9430060C9430060C94232E0C94F52E70
:100030000C9481250C9430060C9430060C943006F8
:100040000C9430060C9430060C9430060C94300658
:100050000C9430060C94E9250C9430060C94300670
:100060000C9430060C9430060C9430060C94300638
:100070000C9430060C9430060C9430060C94300628
:100080000C9430060C9430060C9430060C94300618
:100090000C9430060C9430060C9430060C94300608
:1000A0000C9430060C9430060C943006F012F312C7
:1000B000FB12001305130A130F13141319131E1345
:1000C000231328132A132D13301333133613391324
:1000D0003B1340139D1A9D1ACF1ACF1A1C1B3C1BB1
:1000E0009C1C9C1C7E1B1B1C2C1C2C1C8C1C9C1CE0
:1000F0009C1C951C1E1D1E1D301D301D271D301DF6
:10010000301D301D1E1D1E1D2C1D301D301D2C1DB3
:10011000622F892F7B30892F7B30D52FF82F7B30B2
:100120004E305D3029001E001F00200021002200FB
:10013000230024002500260027002D002E000000AB
:100140002A0035002B00000014001A0008001500DA
:1001500017001C0018000C00120013002F003000C4
:1001600031004C0001510000040016000700090096
:100170000A000B000D000E000F00330034002800B1
:1001800000004A00E10000001D001B0006001900ED
:100190000500110010003600370038000000E500AF
:1001A00052004D00E000E3000000E200000000000B
:1001B0002C00000000000000E6000151E4005000A7
:1001C00051004F0035003A003B003C003D003E002E
:1001D0003F00400041004200430044004500000051
:1001E0002A000100025300004A0052004D004B005B
:1001F00001000100010046004700480052000100D4
:100200000100490001000000500051004F004E0065
:100210000100010001004A004B0050004F000100A6
:1002200000004B000100000001000100010001007E
:100230000100010001004D004E00510000000100CE
:1002400001004E000100010000000100000000005C
:100250000100000000000000010001000100010099
:10026000010001001050000000000000000000002C
:10027000000000000000000000000000000000007E
:10028000C25C000000530000C65CC95CC55CC75C72
:10029000C45CC35C0000000000000000000000001F
:1002A0000000000000000000CC5CCA5CCB5CC85CB5
:1002B0000000000000000000000000000000BF5C23
:1002C000000000000000000000000000000000002E
:1002D0000000095C125C000000000000000000004B
:1002E000BE5C0000000000000000000000000000F4
:1002F0000000000000000000010001000100C15CDE
:10030000BD5CC05C44454255473A206469736162F4
:100310006C65642E0A0044454255473A20656E617B
:10032000626C65642E0A000A002530313662003A9C
:10033000200025303258000A722F632030313233CA
:100340003435363738394142434445460A007267EE
:10035000626C696768742074696D65722064697382
:1003600061626C652E0A007267626C69676874204E
:1003700074696D657220656E61626C65642E0A0039
:100380007267626C6967687420736574206873763D
:10039000205B4E4F454550524F4D5D3A2025752C00
:1003A00025752C25750A007267626C696768742070
:1003B00073657420687376205B454550524F4D5DE0
:1003C0003A2025752C25752C25750A007267626CFC
:1003D00069676874207261696E626F7720736574F3
:1003E000206873763A2025642C25642C25642C25FE
:1003F000750A007267626C6967687420646973616A
:10040000626C65205B4E4F454550524F4D5D3A2022
:100410007267626C696768745F636F6E6669672E86
:10042000656E61626C65203D2025750A0072676209
:100430006C696768742064697361626C65205B45F0
:100440004550524F4D5D3A207267626C696768741F
:100450005F636F6E6669672E656E61626C65203DD5
:100460002025750A007267626C6967687420656E82
:1004700061626C65205B4E4F454550524F4D5D3A71
:10048000207267626C696768745F636F6E66696724
:100490002E656E61626C65203D2025750A007267CD
:1004A000626C6967687420656E61626C65205B458B
:1004B0004550524F4D5D3A207267626C69676874AF
:1004C0005F636F6E6669672E656E61626C65203D65
:1004D0002025750A007267626C6967687420746F02
:1004E00067676C65205B454550524F4D5D3A207201
:1004F00067626C696768745F636F6E6669672E65B3
:100500006E61626C65203D2025750A007267626C21
:1005100069676874206D6F6465205B4E4F45455078
:10052000524F4D5D3A2025750A007267626C69670B
:100530006874206D6F6465205B454550524F4D5D7A
:100540003A2025750A007267626C696768745F6992
:100550006E6974207267626C696768745F636F6E3E
:100560006669672E6D6F6465203D20302E205772BE
:100570006974652064656661756C742076616C755C
:10058000657320746F20454550524F4D2E0A0072FE
:1005900067626C696768745F696E6974206565631A
:1005A0006F6E666967206973206E6F7420656E6177
:1005B000626C65642E0A007267626C696768745FBA
:1005C000696E6974207374617274210A00726762C3
:1005D0006C696768745F696E69742063616C6C65CF
:1005E000642E0A007267626C696768745F636F6E7D
:1005F0006669672E7370656564203D2025640A0076
:100600007267626C696768745F636F6E6669672E94
:1006100076616C203D2025640A007267626C696710
:1006200068745F636F6E6669672E736174203D2026
:1006300025640A007267626C696768745F636F6E35
:100640006669672E687565203D2025640A0072671B
:10065000686C696768745F636F6E6669672E6D6F3B
:100660006465203D2025640A007267626C696768D2
:10067000745F636F6E6669672E656E61626C65207C
:100680003D2025640A007267626C696768745F6365
:100690006F6E66696720454550524F4D3A0A00001B
:1006A000047F3F1F643214643214783C1E1E140A07
:1006B000052223252628292A2C2D2F3032333536A2
:1006C000383A3B3D3E4042434547494A4C4E5051E3
:1006D000535557595A5C5E6062646668696B6D6F0A
:1006E00071737577797B7D7F81838587898A8C8E0D
:1006F00090929496989A9C9E9FA1A3A5A7A8AAAC15
:10070000AEAFB1B3B4B6B8B9BBBCBEBFC1C2C3C54E
:10071000C6C7C9CACBCCCDCED0D1D2D2D3D4D5D6F0
:10072000D7D7D8D9D9DADADBDBDBDCDCDCDCDCDD23
:10073000DDDDDDDCDCDCDCDCDBDBDBDADAD9D9D807
:10074000D7D7D6D5D4D3D2D2D1D0CECDCCCBCAC99F
:10075000C7C6C5C3C2C1BFBEBCBBB9B8B6B4B3B1CE
:10076000AFAEACAAA8A7A5A3A19F9E9C9A98969469
:1007700092908E8C8A89878583817F7D7B7977753E
:1007800073716F6D6B6968666462605E5C5A59571D
:10079000555351504E4C4A4947454342403E3D3BDC
:1007A0003A3836353332302F2D2C2A292826252366
:1007B00022FFAA7F55406261636B6C696768742091
:1007C000737465703A2025750A006261636B6C6909
:1007D0006768742064697361626C650A00626163B2
:1007E0006B6C6967687420656E61626C650A006293
:1007F00061636B6C6967687420746F67676C653AD6
:100800002025750A006261636B6C696768742064F7
:10081000656372656173653A2025750A00626163DC
:100820006B6C6967687420696E6372656173653AA1
:100830002025750A000001010101010101010102E9
:100840000202020202020202030303030303030380
:10085000040404040404040505050505060606064B
:1008600006070707070708080808090909090A0A07
:100870000A0B0B0B0C0C0C0D0D0D0E0E0E0F0F0FAB
:100880001010111111121213131414151516161736
:1008900017181819191A1A1B1B1C1D1D1E1E1F20A4
:1008A00020212222232424252626272829292A2BF1
:1008B0002C2D2D2E2F303132323334353637383916
:1008C0003A3B3C3D3E3F4041424344454647484910
:1008D0004A4C4D4E4F50515354555658595A5B5DE2
:1008E0005E5F616264656668696B6C6D6F70727380
:1008F0007577787A7B7D7E8082838587888A8C8EE7
:100900008F91939596989A9C9EA0A2A3A5A7A9AB18
:10091000ADAFB1B3B5B7BABCBEC0C2C4C6C9CBCD0A
:10092000CFD1D4D6D8DBDDDFE2E4E7E9EBEEF0F3BC
:10093000F5F8FAFDFF0A002530325820006B657982
:10094000626F6172645F7265706F72743A20000A40
:100950000025303258006B6579626F6172645F7395
:1009600065745F6C65643A200064656C5F6B6579E3
:100970005F6269743A2063616E27742064656C3A23
:1009800020253032580A006164645F6B65795F62CC
:1009900069743A2063616E2774206164643A20258B
:1009A0003032580A00290A002575002F00257500ED
:1009B0005D280025640020002564002000256400D7
:1009C00020002564007C0025303258006D6F75735F
:1009D000656B6579205B62746E7C78207920762067
:1009E000685D287265702F61636C293A205B005B3B
:1009F000735D004B6579626F61726420737461721C
:100A0000742E0A005B575D005B535D005B525D0016
:100A10005B445D005B435D00040330000000100395
:100A20004B004200440036003700760032000000E0
:100A300010034B0042004400460061006E0073004A
:100A400000000403090409025B00030100A0FA0985
:100A500004000001030101000921110100012240ED
:100A6000000705810308000A0904010001030000D2
:100A70000009211101000122BC00070582032000AA
:100A80000A0904020002030000000921110100010B
:100A9000222200070583032000010705030320002D
:100AA000011201100100000008EDFE60600100016C
:100AB0000203010631FF0974A1010975150026FF23
:100AC000009520750881020976150026FF00952003
:100AD00075089102C005010902A10185020901A161
:100AE00000050919012905150025019505750181E4
:100AF0000295017503810105010930093115812530
:100B00007F95027508810609381581257F95017545
:100B1000088106050C0A38021581257F95017508A4
:100B20008106C0C005010980A101850319012AB70A
:100B300000150126B700950175108100C0050C094C
:100B400001A101850419012AA002150126A0029520
:100B50000175108100C005010906A1018505050781
:100B600019E029E71500250195087501810205079F
:100B7000190029EF1500250195F07501810205087E
:100B800019012905950575019102950175039101DA
:100B9000C005010906A101050719E029E71500258F
:100BA00001950875018102950175088101050719F4
:100BB0000029FF150026FF0095067508810005082D
:100BC000190129059505750191029501750391019A
:100BD000C00011241FBECFEFDAE0DEBFCDBF04B6E8
:100BE00003FE27C080912D0390912E03A0912F0327
:100BF000B09130038730904BA740B04BD1F41092A6
:100C00002D0310922E0310922F031092300314BE66
:100C100084B7877F84BF0FB6F894A8958091600051
:100C2000886180936000109260000FBEE0E0F8E3FE
:100C3000099511E0A0E0B1E0E2E3F3E602C005901F
:100C40000D92AE3CB107D9F723E0AEECB1E001C0A4
:100C50001D92AD32B207E1F70E94432B0C949731FD
:100C60000C940000FF93EF93E091CE01F091CF013F
:100C7000309709F00995EF91FF910895FC01859156
:100C8000803011F0EFDFFBCF0895FF27E0E230E284
:100C900047FF0CC0419597FF09C0EDE26095709544
:100CA00080959095611D711D811D911D27FF02C0CA
:100CB000219530E350E2AA27660F771F881F991FFE
:100CC000AA1FA41710F0A41B63955A95A9F7AA3080
:100CD00008F0A95FA05DAF93F395611571058105DB
:100CE000910541F7ED3211F4EF93F395F21718F4F3
:100CF0003F93F395FBCF8F91B5DFFA95E1F7089518
:100D0000E991F9918591803021F0853219F0AADFBF
:100D1000F9CF089520E0E89455915532C1F350334E
:100D200011F4689455915A3348F4505390F3220FBC
:100D3000022E220F220F200D250FF4CF0EF4219545
:100D400089919991533619F3533729F1533559F154
:100D5000BC0188279927E8945C3621F48991999100
:100D600068945591543639F446EF7EF077FF0DC004
:100D70008FEF9FEF0AC055374AE039F0583540E110
:100D800021F0523642E009F00895FF93EF937DDFA2
:100D9000EF91FF91B7CFFF93EF93FC0181918030EA
:100DA000B9F360DFFBCFFF93EF9368DFF1CFDF9301
:100DB000CF93CDB7DEB72596A3DFCF91DF9108950E
:100DC0000C94D4090C94D5090C94EA060C944607AB
:100DD00081E0089581E008951F93CF93DF9300D0C1
:100DE00000D01F92CDB7DEB749835A832091F60118
:100DF00089819A81211112C0662349F00E94432201
:100E0000182F682F89819A810E94E82103C00E94CF
:100E10001722182F69817A81812F04C00E944322F2
:100E200069817A810F900F900F900F900F90DF9152
:100E3000CF911F910C94CD07FC01408151816281BB
:100E4000738184810C94EC060E94750A8FE39CE9FF
:100E50000197F1F700C000000E94750A80E00E942F
:100E6000D60980FF04C00E94A8230C940F26089581
:100E70000E9424070E94AE23811102C00E945724C1
:100E80000E9430150C94E0060C94E206089581E06F
:100E900008950C944707CF93C82F0E94E6068C2F25
:100EA0000E944907CF91089508950E940E1D0E9447
:100EB00054072FEF84E39CE0215080409040E1F7FD
:100EC00000C000000C940F260F931F93CF93DF9365
:100ED000EC010E941C078C01BE010E94E4068823DD
:100EE00009F450C0BE01C8010E949014882309F47F
:100EF00049C0BE01C8010E94E215882309F442C01E
:100F0000BE01C8010E9423168823E1F1BE01C80179
:100F10000E944E178823B1F1BE01C8010E94D91268
:100F2000882381F18A81882331F101308CE518070B
:100F300051F00E3D8CE51807D9F001151C45D9F488
:100F40000E9455071FC080918E02C82FC095C170A6
:100F5000C0FB80F980938E02CC2329F086E193E0D8
:100F60000E943E060FC084E093E00E943E060BC044
:100F70000E94572407C0CE01DF91CF911F910F919E
:100F80000C94E806C0E08C2FDF91CF911F910F9158
:100F9000089580E090E008950895E72FF0E095E04F
:100FA000899FE00DF11D112484E0EE0FFF1F8A954B
:100FB000E1F7E60FF11DEE0FFF1FEC5DFE4F85918F
:100FC00094910895880F991FFC01E95DFC4F85916C
:100FD00094910895CF93DF930E94CD070E94FD085E
:100FE000EC01811520E59207F0F5811530E49307B7
:100FF00008F0CDC0883E910500F5803E910508F0CF
:10100000F8C0883A910570F4853A910508F09FC0C0
:101010008130910509F4EDC008F4E9C0049708F0A7
:10102000E8C0E5C08F3B910508F499C0803C91056C
:1010300008F4DDC0805C91099DC0811540E29407F1
:1010400058F4C11581E0D80708F0D3C0C03FD105DE
:1010500008F4CDC0D065CDC0811520E3920708F01B
:101060008DC09F7087C0811535E5930708F044C097
:10107000811544E5940708F0A1C0C11582E5D807A1
:1010800008F5C11521E5D20708F084C08C2F8370C4
:1010900021E030E002C0220F331F8A95E2F73C685E
:1010A000CE0174E0969587957A95E1F78370382B99
:1010B000CF70C695C69580E2C89FE0011124C22B6F
:1010C000D32B97C02C2F26952695CE018370992778
:1010D000C115D34508F063C040E2249F900111245C
:1010E000C1E0D0E002C0CC0FDD1F8A95E2F72C2BC7
:1010F0003D2BE901DC687DC0811549E59407A0F42A
:10110000C11588E5D80708F05EC0C11526E5D207ED
:1011100008F06DC08C2F0E9491098F71C82FD0E00C
:10112000DC2FCC27D06265C081153AE5930708F41F
:101130004FC090568115904208F059C08D2F8F7185
:101140000E949109DD27D0628F71D82B52C0C55AF9
:10115000D0E0CF5ADE4FC881D0E0D0644AC0C85A30
:10116000D0E0CC0FDD1FCD5DDE4F0990D881C02DC2
:10117000D4643FC00E94E207EC013BC09927D3FF33
:1011800003C0EC01D86C35C0EC01D06C32C0DF700C
:10119000D06A2FC0DC2FCC27C16FD06A2AC040E2B2
:1011A000249F90011124C1E0D0E002C0CC0FDD1FCC
:1011B0008A95E2F7C22BD32BDA681BC0D82FCC2735
:1011C000C46FD06A16C0DC2FCC27C06FD06A11C0A4
:1011D0008F700E94910994E0D695C7959A95E1F792
:1011E000CF70D0E0DC2FCC27D069C82B02C0C0E084
:1011F000D0E0CE01DF91CF9108958238910569F159
:10120000B0F48133910509F46DC048F48932910539
:1012100009F463C08A32910509F469C008958533E1
:10122000910509F455C089339105B9F00895833EBD
:10123000910569F138F4803E9105B1F0823E910547
:1012400009F10895863E9105A9F1873E9105B9F10E
:10125000843E910509F064C023C020911E0320FD47
:101260004FC021FD4DC0089580911E0380FD44C0F4
:1012700080911F0380FF44C080911E0384FD42C003
:1012800083EE4DC080911E0382FF38C0F5CF809160
:101290001E0382FD33C080911F0380FD31C0ECCF5F
:1012A00080911F0381FF32C080911E0384FD2AC0FC
:1012B00087EE35C080911E0383FF26C0F5CF809155
:1012C0001E0383FD21C080911F0381FD1FC0ECCF51
:1012D00080911E0385FD1CC01DC080911E0385FDED
:1012E00019C016C080911E0386FD16C017C08091DC
:1012F0001E0386FD13C010C089E311C082EE0FC02B
:1013000080EE0DC080E00BC086EE09C084EE07C001
:1013100089E205C085E303C08AE201C081E390E071
:10132000089590911E0392FF0DC0282F2871283038
:1013300019F4877F846006C0282F2471243011F4AB
:101340008B7F886093FF0DC0282F2871283119F4F6
:10135000877E846106C0282F2471243111F48B7E8E
:10136000886120911F0320FF0DC0382F387138305D
:1013700019F4877F816006C0382F3171313011F444
:101380008E7F886021FF0DC0282F2871283119F425
:10139000877E816106C0282F2171213111F48E7E54
:1013A000886194FD877E089508950895E82FF0E000
:1013B000EE0FFF1FE453FD4F808191810895CF927E
:1013C000DF92EF92FF920F931F93CF93DF9387E308
:1013D00093E00E943E068CECE82E82E0F82EC0E0FE
:1013E000D0E092E3C92E93E0D92E09E213E0DF9317
:1013F000CF93DF92CF920E94D7068FE293E00E94B4
:101400003E06F701819191917F010E948E239F9367
:101410008F931F930F930E94D70687E293E00E9459
:101420003E0621968DB79EB708960FB6F8949EBFDC
:101430000FBE8DBFC530D105D1F6DF91CF911F9181
:101440000F91FF90EF90DF90CF90089580EA8A95FA
:10145000F1F70895A4E6B1E041E050E025E02A0F5D
:101460008D91E82FE295EF70F0E031A18F70BA0115
:1014700002C0660F771F8A95E2F7CB01962F9095F1
:10148000932391A392A1892B82A32A13E9CFA4E5E8
:10149000B1E041E050E020E12A0F8D91E82FE29584
:1014A000EF70F0E031A18F70BA0102C0660F771FB4
:1014B0008A95E2F7CB01962F9095932391A392A161
:1014C000892B82A32A13E9CFE2ECF2E0ACECB2E084
:1014D000119211921D921D9272E0EC3CF707C1F738
:1014E00085E00E940A0B0C9438074F925F926F922E
:1014F0007F928F929F92AF92BF92CF92DF92EF92A4
:10150000FF920F931F93CF93DF9384E6A82E81E081
:10151000B82E02EC12E0D12C88248394912C38014F
:10152000D8014D905C9011971D921C92F50181910C
:101530005F01C82FC295CF70D0E099A18F70740160
:1015400001C0EE0C8A95EAF7892F8E2989A38AA11A
:10155000CE2CC0948C218AA30E94260AE4E5F1E0F7
:1015600080E090E06191A62FA295AF70B0E09096D8
:101570004C91D8012D913C9150E06F7002C055956F
:1015800047956A95E2F740FD08C0A401082E02C005
:10159000440F551F0A94E2F702C040E050E0242BAC
:1015A000352BD8012D933C93019680319105D1F6CE
:1015B00089A1C822C9A28AA1E82AEAA20E5F1F4F08
:1015C00081E0F301208131814216530609F480E065
:1015D000D82AF2E00C3C1F0709F0A1CF2D2D45E0E1
:1015E0006CEC72E082EC92E00E940B0B0E944407CC
:1015F0008D2DDF91CF911F910F91FF90EF90DF9094
:10160000CF90BF90AF909F908F907F906F905F90A2
:101610004F9008950895FF920F931F93CF93DF93F8
:10162000F82E092F162FD72FC42F222349F081E03F
:101630008093D2010E94B3259093D1018093D00171
:101640008091D2018823D9F08091D0019091D1016D
:101650000E94BF25069798F0EF2DF02FA12FBD2FE8
:1016600080E090E04C2F50E08417950734F42191EE
:1016700031912D933D930196F7CF1092D201DF91D6
:10168000CF911F910F91FF900895AF92BF92CF928B
:10169000DF92FF920F931F93CF93DF93D62E372FB6
:1016A000E82FF0E0711106C0EB5CF74F6491762FE4
:1016B000862F75C0C72FD0E0EB5CF74F2491F22E38
:1016C000022F10E046E0649FC0011124EFEFF0E02C
:1016D000BF010E94D830AB016BEA6403C001659F73
:1016E000900D11248D0D911D8D0D911D982F990F29
:1016F000890FDF01AC1BBD0B0A9FB0010B9F700D62
:101700001A9F700D1124972F839FD0011124AB2FA6
:10171000BB276F01CA1ADB0A0C9DD0010D9DB00DCD
:101720001C9DB00D11245F01A81AB108AC9E600188
:10173000AD9ED00CBC9ED00C1124CD2DDD27EC1B12
:10174000FD0B0E9FE0010F9FD00D1E9FD00D1124A9
:10175000ED2F4230510591F04CF441155105E1F067
:1017600041305105B9F4E22F2B2F16C044305105FA
:1017700069F044F04630510579F00CC0E22F272F74
:101780009D2F0AC0272F9F2DEB2F06C0E72F922FEA
:101790002D2F02C0E72F9B2F6E2F722F892FDF91E5
:1017A000CF911F910F91FF90DF90CF90BF90AF909E
:1017B00008950895CF93DF93762FE901682F842F42
:1017C0000E94450B798368838A83DF91CF910895C6
:1017D000413F08F040EF0C94DA0B8091D602282F9D
:1017E000269530E02115310519F48170826005C01D
:1017F0002532310524F0817088648093D60280916F
:10180000D902813F18F080EF8093D902089588E0D3
:1018100090E00C945731CF93DF9300D000D0CDB738
:10182000DEB7AB01BC0149835A836B837C830E9482
:10183000ED0B49815A816B817C8188E090E00F90AB
:101840000F900F900F90DF91CF910C947531E6EDD2
:10185000F2E083E0808311828FEF828380EF8383C5
:10186000148260817181828193810C940B0C809130
:101870008E0280FF08C086E896E09F938F930E94B7
:10188000D7060F900F9080918E0280FF0FC080913D
:10189000D60281701F928F9389E696E09F938F9373
:1018A0000E94D7060F900F900F900F9080918E029C
:1018B00080FF0FC08091D60286951F928F938EE491
:1018C00096E09F938F930E94D7060F900F900F90F2
:1018D0000F9080918E0280FF0EC08091D7021F92E0
:1018E0008F9384E396E09F938F930E94D7060F9087
:1018F0000F900F900F9080918E0280FF0EC080910C
:10190000D8021F928F938AE196E09F938F930E9453
:10191000D7060F900F900F900F9080918E0280FF4E
:101920000EC08091D9021F928F9380E096E09F9322
:101930008F930E94D7060F900F900F900F90809179
:101940008E0280FF0EC08091DA021F928F9384EE88
:1019500095E09F938F930E94D7060F900F900F9062
:101960000F9008958091D60280FF02C08695089559
:1019700080E008958091DA02833018F48F5F8093BD
:10198000DA026091D6027091D7028091D8029091CC
:10199000D9020C940B0C8091DA02882319F0815043
:1019A0008093DA026091D6027091D7028091D802BA
:1019B0009091D9020C940B0C6091040170E080911D
:1019C000D60280FF0AC08091D70123E0829FC00128
:1019D000112485529D4F0C9472158091D6019091DF
:1019E0000301891780F7E82FF0E09F01220F331FD2
:1019F000E20FF31FE552FD4F1182108212828F5FBA
:101A0000F0CF9091D60290FF16C09091D601209110
:101A10000301921770F4E92FF0E0DF01AA0FBB1F5A
:101A2000EA0FFB1FE552FD4F8183608342839F5F76
:101A3000F0CF0C94DC0C0895CF93DF9300D01F926D
:101A4000CDB7DEB79091D60290FF0AC09E012F5FFE
:101A50003F4F0E94E80B4B8169818A810E94010DF2
:101A60000F900F900F90DF91CF910895CF93DF9358
:101A7000EC01EC81F0E0EF54F94F4491E6EDF2E037
:101A8000628181810E941C0D8C818F5F8C83DF912C
:101A9000CF910895CF93DF93EC01E6EDF2E043811F
:101AA00062818C810E941C0D8C818F5F8C83DF9101
:101AB000CF9108950F931F93CF93DF9300D01F9280
:101AC000CDB7DEB78C018091D30181110AC09E0190
:101AD0002F5F3F4F40EF6FEF0E94E80B8A818093AA
:101AE000D301F8018481813051F028F0823061F413
:101AF0004091D3010AC08091D30140E007C06091BA
:101B0000D30140E080E003C040E080E060E00E945C
:101B1000010DF801248130E0C901019663E070E015
:101B20000E94EC3084830F900F900F90DF91CF9143
:101B30001F910F9108956F927F928F929F92AF9213
:101B4000BF92CF92DF92EF92FF920F931F93CF93AA
:101B5000DF9300D000D0CDB7DEB7182FD62E042FDC
:101B6000B22E9091D60290FFB2C0E92FE695AE2F2B
:101B7000B0E0A759BE4F8C918093DF019E7F9230D9
:101B800061F49E012F5F3F4F812F0E94E80B4B8134
:101B900069818A810E94010D60C0823019F4009130
:101BA000D9025BC0863019F41091D70256C0893033
:101BB000D9F3893109F051C0E9518E2F8095817098
:101BC000C82EE695F0E0EF54F84FE590F490A12C84
:101BD000FF242CEC822E23E0922E60910201A616A7
:101BE000D0F56A2C712C6E9CC0016F9C900D7E9C70
:101BF000900D112470E00E94D830812FCC2011F07C
:101C0000860F01C0861B90918E0290FF13C0FF9239
:101C1000EF921F92CF921F928F931F92AF929F923B
:101C20008F928C830E94D7060FB6F894DEBF0FBE4A
:101C3000CDBF8C819091D601690E711C9301220F4A
:101C4000331F260D371D25523D4F402F6D2D0E940D
:101C5000E80BA394C2CF0E94DC0C1093D702D09261
:101C6000D8020093D902BB20E9F06091D6027091AE
:101C7000D7028091D8029091D9020E940B0C8091DA
:101C80008E0280FF24C08091D9021F928F93809191
:101C9000D8021F928F938091D7021F928F9387EA69
:101CA00093E00CC080918E0280FF11C01F920F93B1
:101CB0001F92DF921F921F9380E893E09F938F9370
:101CC0000E94D7060FB6F894DEBF0FBECDBF0F90AF
:101CD0000F900F900F90DF91CF911F910F91FF9078
:101CE000EF90DF90CF90BF90AF909F908F907F90BC
:101CF0006F900895E6EDF2E09181282F4381628193
:101D000088E0890F0C949B0D81E00C947A0EE6ED2F
:101D1000F2E09181282F4381628188EF890F0C9432
:101D20009B0D81E00C94870EE6EDF2E0628128E0E5
:101D3000620F08F46FEF282F438181810C949B0D73
:101D400081E00C94940EE6EDF2E0628128E0621BE3
:101D500008F460E0282F438181810C949B0D81E081
:101D60000C94A30EE6EDF2E0438128E0420F08F464
:101D70004FEF282F628181810C949B0D81E00C94A0
:101D8000B20EE6EDF2E0438128E0421B08F440E0A9
:101D9000282F628181810C949B0D81E00C94C10EEF
:101DA00020E00C949B0DFF920F931F93CF93DF9332
:101DB000EC01F12C0FEF10E060910201F616E8F44F
:101DC0002091D60130E02F0D311DC901880F991FD8
:101DD000280F391F25523D4F70E0C8010E94EC309A
:101DE000962F8C814091D9026091D802F99E800D86
:101DF00011240E94E80BF394DFCF0E94DC0C9A813F
:101E00008C8190FF02C08F5F01C081508C83DF9175
:101E1000CF911F910F91FF900895AF92BF92CF92F3
:101E2000DF92EF92FF920F931F93CF93DF93FC010A
:101E3000828180FF02C00FEF01C001E010E044E1A9
:101E4000A42E80910201181708F043C0C12ED12C96
:101E50008091D601E601C80FD11DCE01880F991FD0
:101E6000C80FD91FC552DD4F198218821A8234E07B
:101E7000E32EF12CB12C8091D5018B0D85312CF006
:101E80006A2D0E94CA30892F05C087FF03C0909138
:101E90000201890F082E000C990BC816D90691F47F
:101EA0008091D9028E9DA0018F9D500D11245595D2
:101EB0004795559547959E016091D8028091D7022C
:101EC0000E94E80BB00EF1E0EF1AF108A1F61F5FD7
:101ED000B8CF0E94DC0C8091D501013031F4811122
:101EE00002C080910201815007C090E0019660918C
:101EF000020170E00E94EC308093D501DF91CF9118
:101F00001F910F91FF90EF90DF90CF90BF90AF9017
:101F10000895CF938091D60190910301891770F4B1
:101F2000E82FF0E09F01220F331FE20FF31FE5526D
:101F3000FD4F1182108212828F5FF0CFC0E060915E
:101F40000201C617B8F5EC2FF0E070E0CF010E9457
:101F5000EC304091D601480F8091D401082E000C3E
:101F6000990B50E0E817F907C4F020910101022E07
:101F7000000C330B2E173F0784F09A01220F331FFA
:101F8000240F351F25523D4F4091D9026091D80250
:101F90008091D7020E94E80B0BC0FA01EE0FFF1FE1
:101FA0004E0F5F1FFA01E552FD4F1182108212821F
:101FB000CF5FC5CF0E94DC0C209100018091D4013D
:101FC000820F8093D40190910101920F90930101AF
:101FD00019165CF4082E000C990B4091020150E098
:101FE00041505109841795071CF021952093000159
:101FF000CF9108950F931F93CF93DF938C01FC0132
:102000008481958101968170992795838483C0E0AE
:10201000D5E580910201C817F8F42091D60130E08F
:102020002C0F311DC901880F991F280F391F255208
:102030003D4F4C2F4695F80184819581840F911D69
:1020400081704091D9026091D8028D9F802D11241A
:102050000E94E80BCF5FDDCFDF91CF911F910F91F1
:102060000C94DC0C0F931F93CF93DF93EC0100E0F3
:1020700010E080910201282F30E00217130724F5A9
:102080009091D6019801290F311DA901440F551FC8
:10209000240F351F25523D4F869590E04C8108173F
:1020A00019071CF4442331F002C0411103C04091D0
:1020B000D90201C040E06091D8028091D7020E940D
:1020C000E80B0F5F1F4FD5CF0E94DC0C2C8130E056
:1020D0002F5F3F4F217033272C83DF91CF911F91CA
:1020E0000F9108956091D602669570E04BE050E044
:1020F00085E091E00E944231892B19F481E08093C0
:10210000E0010E94B3259093D9018093D80180917A
:102110008E0280FF08C087E693E09F938F930E9412
:10212000D7060F900F9008951092E00180918E02D3
:1021300080FF08C08EE493E09F938F930E94D706A0
:102140000F900F9008959091D60290FF54C0917017
:10215000811102C0926006C0853210F0986402C0FE
:10216000880F982B9093D6026623B1F06091D60227
:102170007091D7028091D8029091D9020E940B0CE5
:1021800080918E0280FF1BC08091D60286951F929F
:102190008F938AE295E00BC080918E0280FF0FC082
:1021A0008091D60286951F928F938CE095E09F9345
:1021B0008F930E94D7060F900F900F900F90609111
:1021C000D602669570E04BE050E085E091E00E9419
:1021D0004231892B19F00E94941002C00E947210A3
:1021E00081E08093DB014091D9026091D802809117
:1021F000D7020C94D00E0895682F9091D602969530
:1022000081E0890F853208F081E00C94A31081E011
:102210000C94FC10682F9091D60296958FEF890F41
:1022200009F484E20C94A31081E00C940A1161E09B
:102230000C94A3108091D60281608093D602809185
:102240008E0280FF0DC01F9281E08F938EE994E093
:102250009F938F930E94D7060F900F900F900F902F
:102260008091D60286950C94171160E00C94A3100F
:102270008091DE01811160C080918E0280FF08C0D4
:102280008DEC95E09F938F930E94D7060F900F904F
:1022900080918E0280FF08C087EB95E09F938F931B
:1022A0000E94D7060F900F900E94AE23811110C09C
:1022B00080918E0280FF08C08FE895E09F938F93F6
:1022C0000E94D7060F900F900E9457240E94270C5F
:1022D0000E94070C6093D6027093D7028093D802B5
:1022E0009093D9026E7FC1F480918E0280FF08C066
:1022F00086E495E09F938F930E94D7060F900F90EE
:102300000E94270C0E94070C6093D6027093D7029C
:102310008093D8029093D9020E94ED0B0E94370C53
:102320001092E0018091D60280FF03C086950E9442
:10233000351181E08093DE0108958091D60281609D
:102340008093D60280918E0280FF0DC01F9281E0A3
:102350008F9385E694E09F938F930E94D7060F900A
:102360000F900F900F908091D60286950C943511A6
:102370008091D6028E7F8093D6026091D6027091B2
:10238000D7028091D8029091D9020E940B0C8091C3
:102390008E0280FF0FC08091D60281701F928F93B2
:1023A0008DE294E09F938F930E94D7060F900F9039
:1023B0000F900F900E9494102FEF80E792E0215031
:1023C00080409040E1F700C000000C94DC0C80914C
:1023D0008E0280FF10C08091D602809581701F927E
:1023E0008F9385ED94E09F938F930E94D7060F9073
:1023F0000F900F900F908091D60280FD0C94B81131
:102400000C941A118091D6028E7F8093D60280910F
:102410008E0280FF0CC01F921F9283EF93E09F9368
:102420008F930E94D7060F900F900F900F900E94ED
:1024300094102FEF80E792E0215080409040E1F728
:1024400000C000000C94DC0C0F931F93CF93DF931C
:102450008091E001882309F48CC08091DF01E09134
:10246000D602E695E81BE093DA01823049F4F0E009
:10247000E355F94FE491CE2FD0E006E31DE049C0CB
:10248000863049F4F0E0E655F94FE491CE2FD0E0E4
:102490000AE41DE03EC0893051F4E695F0E0E955CC
:1024A000F94FE491CE2FD0E003ED1EE032C08F3023
:1024B00051F4E695F0E0EC55F94FE491CE2FD0E0E1
:1024C0000DE01FE026C0853149F4F0E0EF55F94FEB
:1024D000E491CE2FD0E009E81FE01BC0883181F0E5
:1024E000833239F4EFE9F6E0C591D4910AE51DE0B5
:1024F00010C0843251F4C4EFD1E002E310E109C00E
:10250000C8EED3E00AEF1FE004C0C0EDD7E009ED4C
:102510001BE08091DB01882389F01092DB010E948F
:10252000B3259E0120953095820F931F9093D9017A
:102530008093D8011092DD011092DC018091D801C6
:102540009091D9010E94BF258C179D0790F0E091D2
:10255000D801F091D901CE0FDF1FD093D901C093DC
:10256000D80188ED91E0F801DF91CF911F910F9193
:102570000994DF91CF911F910F910895882311F055
:10258000FA0101C0FB010994CF93DF93C82FD62F26
:102590000E94B20C8C1740F00E94B20C8D1720F4F0
:1025A000DF91CF910C9407118C2FDF91CF910C9478
:1025B00017110F931F93CF93FB01C281CC2309F412
:1025C00063C08C010E94C3228272F801E25CFC4568
:1025D000E431F10508F059C0EA5AFF4F0C9422315A
:1025E0000E94E71106C044E151E167E071E10E94F9
:1025F000BE12C0E04AC047E051E164E171E1F7CFAB
:1026000041E95EE064E87EE0F2CF44E85EE061E943
:102610007EE0EDCF4FEA5EE060EA7EE0E8CF40EAA0
:102620005EE06FEA7EE0E3CF4DEC5EE06EEB7EE0D5
:10263000DECF4EEB5EE06DEC7EE0D9CF4BEC5CE0A4
:102640006AEB7CE0D4CF4AEB5CE06BEC7CE0CFCF74
:1026500081E017C065E082E010C068E086E00DC050
:102660006EE089E00AC064E18FE007C067E185E1C0
:1026700004C088E106C062E289E10E94C412B9CFB9
:1026800083E20E941711B5CFC1E08C2FCF911F912B
:102690000F9108950E94AE23811102C00E94572419
:1026A0000E94DF2380931703282F269526952695D1
:1026B00030E02430310524F087708861809317035F
:1026C0008091170380FF04C086958695869501C08A
:1026D00080E00C94C51420911703822F869586956F
:1026E0008695482F50E04330510554F48F5F982F62
:1026F000990F990F990F822F8770892B8093170359
:10270000809117038160809317030E94E3238091D7
:102710008E0280FF11C0809117038695869586955D
:102720001F928F938DE198E09F938F930E94D7061D
:102730000F900F900F900F908091170386958695BC
:1027400086950C94C51480911703982F96959695AD
:102750009695A1F0915E990F990F990F8770892B2B
:1027600080931703887F91E009F490E0809117032C
:1027700090FB80F9809317030E94E32380918E02DF
:1027800080FF11C0809117038695869586951F92CC
:102790008F9385E098E09F938F930E94D7060F90C8
:1027A0000F900F900F9080911703869586958695D0
:1027B0000C94C5148091170380FD1FC08160809325
:1027C0001703813019F489E0809317038091170370
:1027D0000E94E32380918E0280FF08C08DED97E078
:1027E0009F938F930E94D7060F900F9080911703AD
:1027F0008695869586950C94C51408958091170347
:1028000080FF14C08E7F809317030E94E323809182
:102810008E0280FF08C08AEC97E09F938F930E94FE
:10282000D7060F900F9080E00C94C5140895CF93B5
:10283000C0911703C17080918E0280FF0CC01F925F
:10284000CF938FEE97E09F938F930E94D7060F90C0
:102850000F900F900F90CC2319F0CF910C94FE1392
:10286000CF910C94DA1390911703892F8695869552
:1028700086958F5F8F719770843038F4880F880F3A
:10288000880F892B8093170302C0909317038091C0
:102890001703887F91E009F490E08091170390FB83
:1028A00080F9809317030E94E32380918E0280FFBA
:1028B00011C0809117038695869586951F928F93F8
:1028C00086EB97E09F938F930E94D7060F900F900F
:1028D0000F900F90809117038695869586950C949E
:1028E000C514843008F083E0909117039770282F67
:1028F000220F220F220F922B90931703987F21E033
:1029000009F420E09091170320FB90F990931703AE
:102910000C94C5140E947114809117030C94E32346
:102920009C01FB018281882349F12D3BFCE53F0797
:10293000C9F040F42B3BECE53E0769F02C3B3C45ED
:1029400061F008952F3B9CE5390791F070F0203C31
:102950003C4589F0089583E001C080E00E948A141C
:1029600080E008950E94A313FBCF0E946B13F8CF61
:102970000E941714F5CF0E943314F2CF81E008951E
:10298000259A2D9808952D980895CF92DF92EF9271
:10299000FF92CF93DF931F92CDB7DEB7843060F400
:1029A00081110BC0909180009F7790938000898364
:1029B0000E94C314898106C083E0909180009068D2
:1029C00090938000282F30E0AFEFBFEF0E942831B6
:1029D00023E030E040E050E00E9400312C3784E1F9
:1029E00038074105510530F4C90169E070E00E94E3
:1029F000D83029C0DA01C9018A50974DAF4FBF4F77
:102A00006627782F892F9A2F25EF38E241E050E092
:102A10000E94003169017A01CA01B9010E94AE30F9
:102A20009B01AC01C701B6010E94AE30BB27A92FA4
:102A3000982F872F009721E0A207B10511F0BC0164
:102A400002C06FEF7FEF70938900609388000F9052
:102A5000DF91CF91FF90EF90DF90CF900895089590
:102A60000E94C01482E88093800089E180938100F5
:102A70008FEF9FEF90938700809386000C944A130A
:102A80002EB1342F309523233EB1432B3FB7F8941A
:102A9000FC01680F791FE617F70789F0819198E02C
:102AA0004EB9000000C087FF2EB9880F000000C09B
:102AB00000C000C02EB900C09A9591F7ECCF3FBF7F
:102AC00008952DB1242B2DB99B01220F331F620FC6
:102AD000731F0E94401587EC90E00197F1F700C04A
:102AE0000000089544E00C9461150F931F93CF9359
:102AF000DF93C62FD42F022FFC0182818823C9F0D7
:102B00006093E3010E94B3259093E2018093E10179
:102B100080E28C0F883008F050C0C77081E001C09F
:102B2000880FCA95EAF7DF91CF911F910F910C940E
:102B30005D1A1091E301161330C08091E10190916C
:102B4000E2010E94BF25883C910538F5C0E2CD0F17
:102B50001D17B9F080E2810F883040F4177081E0D2
:102B600001C0880F1A95EAF70E94641AC83048F429
:102B700081E09D2F977001C0880F9A95EAF70E9417
:102B80005D1A802F0E944A1AC830B8F4D77081E0CD
:102B900001C0880FDA95EAF70AC080E28C0F88300E
:102BA00060F4C77081E001C0880FCA95EAF7DF9131
:102BB000CF911F910F910C94641ADF91CF911F91C7
:102BC0000F9108959C01CB01233F4CE53407F9F0A8
:102BD00078F4283DFCE53F07B9F0293D4CE5340782
:102BE00011F1273D3C4531F526E241EE61EE1EC074
:102BF000253FFCE53F0799F070F0263F3C45D1F4B6
:102C000027E245EE66EE12C027E245EE0EC026E250
:102C100041EE60EE0BC027E245EE64EE07C026E20F
:102C200041EE62EE03C028E241E065EE0E947515B8
:102C300080E00895FC018281882319F01092E3015D
:102C4000089581E00895CF93DF93EC01FB01828129
:102C5000882309F41FC1C230FCE5DF0708F41BC15B
:102C6000C6319CE5D90738F09E012A5F3C452930E2
:102C7000310508F010C10E94C12390931F03809377
:102C80001E03C031ECE5DE0709F4C3C008F041C003
:102C9000C8308CE5D80709F49AC0F0F4C430ECE5EC
:102CA000DE0709F487C068F4C2308CE5D80709F460
:102CB00077C0C330DC4509F0E3C080911E03826019
:102CC00076C0C630ECE5DE0709F46EC008F07BC0C4
:102CD00080911E0388606BC0CC308CE5D80709F466
:102CE00085C068F4CA30ECE5DE0709F474C008F06A
:102CF00079C00E940E1D80911E03806858C0CE309E
:102D00008CE5D80709F476C008F07FC080911E03D7
:102D10008BC0CB3FECE5DE0709F44FC018F5C3319B
:102D20008CE5D80709F47DC078F4C131ECE5DE0705
:102D300009F473C0C231DC4509F0A2C00E940E1D27
:102D400080911E038F7733C0C5318CE5D80709F415
:102D500072C008F486C0CA3FDC4509F091C080917A
:102D60001F033EC0CF3FFCE5DF0709F45FC058F406
:102D7000CD3F9CE5D90709F444C008F43FC08091D9
:102D80001F0382602DC0C130FDE5DF0709F475C067
:102D900008F45DC0C230DD4509F072C080E06EC04D
:102DA00080911E03816003C080911E038061809327
:102DB0001E0366C080911E0311C080911F038260B4
:102DC00080931F035DC080911E038062F0CF8091CD
:102DD0001E038064ECCF80911E0388608460E7CF7F
:102DE0008160EECF80911E038E7FE1CF80911E0324
:102DF0008D7FDDCF80911E03877FD9CF80911F0308
:102E000018C080911F038D7FDBCF80911E038F7EC2
:102E1000CECF80911E038F7DCACF80911E038F7B02
:102E2000C6CF80911E03877F8B7FC1CF80911F0308
:102E30008D7F8E7FC5CF80911E0382FB222720F9D4
:102E400091E0922790FB82F990FB83F9B0CF8091BB
:102E50001F03982F909591708E7F892B90FB81F99D
:102E6000AFCF0E940E1D80911E0387FB222720F901
:102E700091E0922790FB87F99ACF81E00E94592434
:102E800080911E0390911F030E94D2230E940E1D69
:102E900080E001C081E0DF91CF910895CF93DF936F
:102EA00086319C4541F5EB010E94C322282F8A817F
:102EB0004091100150911101882379F02A7A91E014
:102EC00009F490E09093E401911102C069E201C01D
:102ED00065E3CA010E94E5240AC08091E4018111E2
:102EE00002C069E201C065E3CA010E94F0240E94A9
:102EF0000F2380E001C081E0DF91CF91089590938E
:102F0000EA018093E9010895E091E901F091EA0175
:102F1000309721F00190F081E02D099480E0089530
:102F2000EF92FF921F93CF93DF93FC01A091E901F1
:102F3000B091EA01109709F442C0809122018823E0
:102F400041F080911E0387FF04C08081818385E06A
:102F50008083EF011296ED91FC911397CE010995B4
:102F600080918E0282FF2BC080FF04C08DE399E028
:102F70000E943E0618E087E3E82E89E0F82E809153
:102F80008E0280FF0BC088811F928F93FF92EF9279
:102F90000E94D7060F900F900F900F90115021961E
:102FA0001111EDCF80918E0280FF09C085E399E079
:102FB000DF91CF911F91FF90EF900C943E06DF912F
:102FC000CF911F91FF90EF900895E091E901F0916A
:102FD000EA01309739F022E0DC012C930480F5817E
:102FE000E02D099408952091E7013091E8018217BE
:102FF000930771F09093E8018093E701E091E90174
:10300000F091EA01309721F00680F781E02D0994D4
:1030100008952091E5013091E6018217930771F040
:103020009093E6018093E501E091E901F091EA01D6
:10303000309721F00084F185E02D0994089585B73B
:10304000806885BF85B7806885BF08950895089515
:103050000C94271808950C942A180E941F180E9497
:1030600026180C94281881E008950E94AA250E9431
:103070002A0A0E9433260E944A130E9438110C9497
:103080002B18CF93C82F80918E0282FF1EC080FF25
:1030900004C086E599E00E943E0680918E0280FF82
:1030A0000CC01F92CF9381E599E09F938F930E946C
:1030B000D7060F900F900F900F9080918E0280FF97
:1030C00004C08FE499E00E943E068C2FCF910C94AF
:1030D0004B077F928F929F92AF92BF92CF92DF92D7
:1030E000EF92FF920F931F93CF93DF93CDB7DEB78D
:1030F0002A970FB6F894DEBF0FBECDBF0E94750AA7
:103100000E943318811111C08FEF89838A831B823B
:103110000E94B3258160782F9D838C8349815A81D9
:103120006B818D810E941D194FC03CEE832E31E0D2
:10313000932E00E010E0702E802F0E94D6096C01C3
:10314000F401A190B1904F01A826B926A114B104B1
:1031500031F40F5F1F4F0530110569F7D5CF80910E
:103160008E0281FD0E94DF0990E0EE24E394F12CB1
:1031700097012A213B21232B09F19E837F82CE20B8
:10318000DF2091E0CD2809F490E098870E94B325D4
:103190008160782F9A8789874E815F8168858A85CB
:1031A0000E941D19000F111FF801E451FE4F80818C
:1031B0009181E826F926F182E08206C09F5FEE0C3D
:1031C000FF1C9031A9F6C5CF0E9424120E942F1532
:1031D0000E9447281091EB010E9484171817C9F02C
:1031E0000E9484178093EB012A960FB6F894DEBFF5
:1031F0000FBECDBFDF91CF911F910F91FF90EF9048
:10320000DF90CF90BF90AF909F908F907F900C9465
:1032100041182A960FB6F894DEBF0FBECDBFDF91DE
:10322000CF911F910F91FF90EF90DF90CF90BF90C3
:10323000AF909F908F907F900895CF93DF93CDB7FD
:10324000DEB72B970FB6F894DEBF0FBECDBF4F830E
:10325000588769877A878B87DE01119686E0FD01A2
:1032600011928A95E9F785E0FE01379601900D925B
:103270008A95E1F749815A816B817C818D819E819C
:103280000E94B81F2B960FB6F894DEBF0FBECDBFBD
:10329000DF91CF910895FC01808191810E94842269
:1032A0000895882309F48DC08238C1F40E948417E0
:1032B00081FD87C069E380911001909111010E9406
:1032C000E5240E940F232FEF81EE94E021508040EF
:1032D0009040E1F700C0000069E319C08338F9F4B9
:1032E0000E94841780FD6DC063E58091100190916C
:1032F00011010E94E5240E940F232FEF81EE94E03C
:10330000215080409040E1F700C0000063E58091CB
:103310001001909111010E94F0240C940F23843825
:10332000C1F40E94841782FD4CC067E480911001B3
:10333000909111010E94E5240E940F232FEF81EE4E
:1033400094E0215080409040E1F700C0000067E425
:10335000DECF9CEF980F913A40F4682F80911001D6
:10336000909111010E94E524D8CF90E2980F9830F7
:1033700050F4877091E001C0990F8A95EAF7892F80
:103380000E94C622CACFEBE5E80FE33038F4F0E044
:10339000E454FE4F808190E00C94F317E8E5E80FC9
:1033A000E73148F4F0E0EE0FFF1FE257FE4F808157
:1033B00091810C940918803F20F00E94CD260C9436
:1033C000BA270895882309F464C0823879F40E94EA
:1033D000841781FF5EC069E3809110019091110113
:1033E0000E94E5240E940F2369E310C08338B1F4E2
:1033F0000E94841780FF4DC063E580911001909179
:1034000011010E94E5240E940F2363E580911001C1
:10341000909111010E94F0240C940F23843879F4C8
:103420000E94841782FF35C067E48091100190915B
:1034300011010E94E5240E940F2367E4E7CF9CEF6F
:10344000980F913A10F4682FE1CF90E2980F9830DE
:1034500050F4877091E001C0990F8A95EAF7892F9F
:103460000E94CC22D9CF9BE5980F933020F480E0C6
:1034700090E00C94F31798E5980F973120F480E0D2
:1034800090E00C940918803F20F00E9435270C949E
:10349000BA270895CF93C82F0E945119C93349F410
:1034A0002FEF87EE93E0215080409040E1F700C07D
:1034B00000008C2FCF910C94E219882321F00E94F8
:1034C000C6220C940F230895882321F00E94CC2259
:1034D0000C940F230895BF92CF92DF92EF92FF9248
:1034E0000F931F93CF93DF937C01062FC72FFC010F
:1034F000158112951F70D281D1110E94E3220E9482
:10350000BC22882379F0DD2369F080E2800F8830C7
:1035100048F082E00E945A230E94BC2291E0B82E1B
:10352000B92601C0B12CCC2EC2948FE0C822D12C78
:10353000F601E659FF4F0C9422318C2F807FCF701B
:10354000882311F0C295C07FDD2399F0CC2309F4C4
:10355000CEC180E2800F883010F0011104C08C2FA2
:103560000E94C62203C08C2F0E94D6220E940F23E5
:10357000BEC1802F0E94E219CC2309F4DDC180E294
:10358000800F883010F0011104C08C2F0E94CC22D3
:1035900003C08C2F0E94DC220E940F23CDC18C2FF0
:1035A000807FCF70803211F0C295C07F002319F068
:1035B0000130C9F022C0DD2371F0112341F0113038
:1035C00031F40E94F6228C2B0E94FC22B5C10E948D
:1035D000F6228C2B1DC0112319F0113009F4ACC157
:1035E0000E94052325C0DD2321F0163008F0A4C178
:1035F0000EC0153008F0A0C11BC0DD2361F01123FF
:1036000031F0F701858180FF72C18F7085838C2F27
:103610000E945D1A91C1112359F0093309F078C154
:10362000FFEF27EE83E0F15020408040E1F76EC1CC
:103630008C2F0E94641A80C18C2F8695869583708A
:1036400090E0009719F0019761F076C1DD2321F039
:10365000802F9C2F937002C080E090E00E94F317AF
:1036600076C1DD2321F0802F9C2F937002C080E073
:1036700090E00E9409186BC1DD23F9F0053F51F07D
:10368000063F71F0043FA9F480911803909119034B
:1036900081600BC08091180390911903826005C06E
:1036A000809118039091190384609093190380937B
:1036B0001803802F0E94CD261EC0053F51F0063F03
:1036C00071F0043FA9F480911803909119038E7F43
:1036D0000BC080911803909119038D7F05C08091D4
:1036E0001803909119038B7F90931903809318030B
:1036F000802F0E9435270E94BA2729C18C2F837002
:1037000009F049C0D1111FC1402F4295469547701D
:10371000440F440F602F6F70862F90E0A0E0B0E060
:10372000042E04C0880F991FAA1FBB1F0A94D2F74A
:1037300004FF10C00FE010E020E030E004C0000FF4
:10374000111F221F331F4A95D2F70095109520951F
:10375000309503C000E010E09801C695C695C3708F
:10376000D0E0BC01CD01602B712B822B932BC2309A
:10377000D10559F0C330D10559F0219719F00E94B5
:10378000FD20E1C00E94EB20DEC00E940F21DBC0C3
:103790000E94E920D8C0DD2319F08C2F817001C070
:1037A0008695882309F4CFC0402F429546954770EF
:1037B000440F440F602F6F70862F90E0A0E0B0E0C0
:1037C000042E04C0880F991FAA1FBB1F0A94D2F7AA
:1037D00004FF10C00FE010E020E030E004C0000F54
:1037E000111F221F331F4A95D2F70095109520957F
:1037F000309503C000E010E09801C695C695C370EF
:10380000D0E0BC01CD01602B712B822B932BC230F9
:10381000D10559F0C330D10559F0219719F00E9414
:10382000C32191C00E94B1218EC00E94D5218BC0BE
:103830000E94242188C0CF70DD2339F08C2F0E9494
:103840004A21802F0E945D1A7EC0802F0E94641A38
:103850008C2F0E946B2177C0023F01F128F4003FBA
:1038600041F0013FA1F03FC0033FF9F0043F39F1BF
:103870003AC0DD2341F0153008F05EC08C2F8F7107
:103880000E94902159C0163008F056C0F7CFDD23B2
:1038900039F08C2F8F710E944A214EC0DD23C9F36D
:1038A0008C2F8F710E946B2147C0DD2329F08C2F54
:1038B0008F710E94352140C00E9430213DC0DD2320
:1038C00049F0CF718C2F0E944A2163E08C2F0E9417
:1038D000452332C081E00E945A23123068F182E011
:1038E0000E945A2329C0DD2331F0112391F2802F49
:1038F0000E94511921C0112399F2093349F49FEF15
:10390000E7EEF3E09150E040F040E1F700C0000046
:10391000802F0E94E21910C04C2F4F70602FC701FA
:103920000E94C9070E945C2012C04C2F4F70602F6C
:10393000C7010E94CC070BC028E0C21AD10884E05E
:10394000C816D10420F40E9484170E944B07BB20A4
:10395000D1F00E94B82280FD16C0F70112820E94A9
:10396000B2220E944A21C7010E94CD1C0E94B222AD
:10397000DF91CF911F910F91FF90EF90DF90CF904B
:10398000BF900C946B21DF91CF911F910F91FF900D
:10399000EF90DF90CF90BF9008950F931F93CF9338
:1039A000DF93EC01888199812B813C81232BB9F035
:1039B0009F3F11F48F3F99F0CE010E946407882346
:1039C00071F0688179818A810E948F228C010E9426
:1039D000E7210E94E820B801CE010E946B1ADF9116
:1039E000CF911F910F9108950E94E3220E94F3222C
:1039F0000E940F230E94E2280E94BA2780E090E0F4
:103A00000E94F31780E090E00C9409188091100157
:103A1000909111010E94FB240C94F41C0E94D3226B
:103A20000C94061DE92FE295EF70F0E03297EE302E
:103A3000F105B0F4E658FF4F0C942231803F91F02D
:103A400018F4883E68F40EC0843F51F40BC0883EE1
:103A500048F0813F29F406C093FB882780F9089538
:103A600080E0089581E008950E9484220E94121D42
:103A70000895CF93DF9300D000D01F92CDB7DEB76B
:103A80000F900F900F900F900F90DF91CF910895AE
:103A9000CF93DF9300D000D000D0CDB7DEB726960D
:103AA0000FB6F894DEBF0FBECDBFDF91CF91089562
:103AB0001F93CF93DF93C091F70116E08091F80137
:103AC000C81799F0D0E01C9FF0011D9FF00D112444
:103AD000E750FE4F408151816281738184819581DD
:103AE0000E94481D2196C770E9CFDF91CF911F91A9
:103AF00008954091290250912A0260912B02709101
:103B00002C0280912D0290912E020C94481D8091E0
:103B10002E0282958F7009F054C080912B02882369
:103B200009F44FC08091F701A091F801609129023A
:103B300070912A0240912C0250912D02B6E08A1712
:103B400009F43FC090E041155105C1F17F3F11F4E8
:103B50006F3FA1F1B89FF001B99FF00D1124E7501C
:103B6000FE4F218172132AC02081621327C0228157
:103B7000211124C0238134812417350710F42150EA
:103B80003109241B350B283C3105C0F420912E024D
:103B90002F70206120932E0226E0289FF001299F9C
:103BA000F00D1124E250FE4F80818F708061808380
:103BB00089E292E00E94CD1C0C94581D01968770FA
:103BC000BECF0895CF92DF92EF92FF920F931F9393
:103BD000CF93DF93CDB7DEB762970FB6F894DEBF11
:103BE0000FBECDBF8C0185E0F801DE011D9601906E
:103BF0000D928A95E1F7D8014C9111965C9111973D
:103C000012966C9112971396CD90DC901497309188
:103C1000290270912A0280912C0290912D02009726
:103C200009F46BC17F3F19F43F3F09F466C1E0908E
:103C30002B02EE2009F4C0C020912E02C816D9062E
:103C400028F0F601E81BF90BCF0104C08095909590
:103C50008C0D9D1DFF24F394883C910578F0F12C88
:103C6000207F09F0C6C07C2DD98AC88A89890E9424
:103C7000391D89E292E00E94CD1CB1C0822F807F65
:103C800009F046C0751314C0341312C0611110C07E
:103C90002F70206120932E020E94791D89E292E00C
:103CA0000E94CD1C80912E02D80115968C932EC0B7
:103CB000CD2819F15F3F11F44F3FF9F0F62E611155
:103CC0001CC08091F7012091F80136E0821709F4B9
:103CD0005AC090E0389FF001399FF00D1124E75051
:103CE000FE4F7181571306C07081471303C0728164
:103CF000711103C001968770E9CFF62E662309F48F
:103D000027C180912E02816080932E02F12C20C168
:103D1000751308C0341306C0611104C080912E02CF
:103D2000D801C3C04D875E878D859E856A8B0E94B2
:103D3000341D6A898823E1F16623D1F120912E0296
:103D4000822F82958F7090E0029774F08091290203
:103D500090912A0298878F831986DB86CA862C87E2
:103D6000CE0107960E94CD1C86E0F801A9E2B2E0E0
:103D700001900D928A95E1F70E94871D0E94791D9E
:103D8000FF24F394E5C04D875E878D859E850E9454
:103D90008422292F22952F7030E0223031050CF03B
:103DA000CBC09F7009F0C5C0805E883008F4D0C0D9
:103DB000C8010E94CD1CE4CFC816D90608F453C030
:103DC000F601E81BF90BCF01883C910508F450C0BF
:103DD000F12C7C2DD98AC88A89890E94391DE9E293
:103DE000F2E086E0DF011D928A95E9F70E94791DD5
:103DF000AFC0751314C0341312C0611110C080918C
:103E00002E02F8018583C8010E94CD1C86E0E9E2FC
:103E1000F2E0DF011D928A95E9F7FE2C99C04D87EB
:103E20005E878D859E856A8B0E94341D6A898823F2
:103E300009F4BECF662309F4BBCF20912E02822F56
:103E400082958F7090E002970CF48ECF80912902BA
:103E500090912A029A8389831B82DD82CC822E83F1
:103E6000CE0101967FCF809590958C0D9D1DACCF96
:103E7000F62E662309F49CCF75132EC034132CC084
:103E800020912E0220FD1FC0822F82958F70D9F0C5
:103E9000D80115962C9315978F3049F08F5F982F86
:103EA0009295907F822F8F70892B15968C93C801E5
:103EB0000E94CD1C86E0F801A9E2B2E001900D92CB
:103EC0008A95E1F793CF86E0F801A9E2B2E001908C
:103ED0000D928A95E1F73CC04D875E878D859E8562
:103EE0000E94341D811140CF80912E028160809309
:103EF0002E02C8010E94CD1C2BC0662309F458CFA6
:103F00004D875E878D859E850E94341DF82E8823FF
:103F100009F44ECF86E0F801A9E2B2E001900D92DB
:103F20008A95E1F789E292E00E944B190E94871D71
:103F30005DCF811139CF0CC0243031050CF038CF62
:103F40009F7009F431CFF8019581907F09F02CCF53
:103F50008F2D62960FB6F894DEBF0FBECDBFDF91F6
:103F6000CF911F910F91FF90EF90DF90CF90089528
:103F70001F93CF93DF93CDB7DEB72C970FB6F8948E
:103F8000DEBF0FBECDBF4F83588769877A878B8787
:103F90009C87CE0107960E94E21D882369F08F81DD
:103FA00098852A853B85232BF1F19F3F09F063C05B
:103FB0008F3F09F060C037C086E0FE013796DE0112
:103FC000119601900D928A95E1F76F817885EA85C7
:103FD000FB85309741F17F3F11F46F3F21F1209134
:103FE000F80130E0C9010196877099274091F701E7
:103FF00050E08417950709F447C069837A83FD83ED
:10400000EC8396E0929FD001939FB00D1124A750AE
:10401000BE4FFE01319601900D929A95E1F7809383
:10402000F8010E94581D16E08091F7019091F80167
:104030008917C1F1189FC001112487509E4F0E941B
:10404000E21D882379F1E091F7011E9FF001112410
:10405000E750FE4F40815181628173818481958157
:104060000E94481D8091F70190E001968770992782
:104070008093F701D9CF4F81588569857A858B85E3
:104080009C850E94481DCFCF0E940E1D1092F80102
:104090001092F701E9E2F2E086E0DF011D928A95D5
:1040A000E9F7C1CF2C960FB6F894DEBF0FBECDBF97
:1040B000DF91CF911F910895EF92FF920F931F937D
:1040C000CF93DF938C01892B09F46CC0F12CEE2483
:1040D000E394E8012196F8018491843740F4843018
:1040E00008F051C0813081F0823019F15BC0853712
:1040F00009F444C0A8F19CE7980F903708F052C02B
:104100008F770E94E21941C00E5F1F4FFE01C491DC
:1041100080E28C0F883048F4C7708E2D01C0880F64
:10412000CA95EAF70E94E62214C08C2F0E9451190A
:104130002DC00E5F1F4FFE01C49180E28C0F8830AE
:1041400058F4C7708E2D01C0880FCA95EAF70E94F7
:10415000EC220E940F231AC08C2F0E94E21916C075
:104160000E5F1F4FFE01C491CC2381F08FE99FE0C9
:104170000197F1F700C00000C150F6CF0E5F1F4F4E
:10418000FE01F49003C00E9451198E018F2D8823E7
:1041900009F49FCFEFE9FFE03197F1F700C000008D
:1041A0008150F5CFDF91CF911F910F91FF90EF904C
:1041B000089508950C94D9200E94DA206093650236
:1041C0007093660280936702909368020C94F41CCB
:1041D00008950C94DC200F931F93009165021091B9
:1041E00066022091670230916802602B712B822B4E
:1041F000932B1F910F910C94DC200F931F93009130
:104200006502109166022091670230916802602376
:104210007123822393231F910F910C94DC200F9321
:104220001F93009165021091660220916702309100
:10423000680260277127822793271F910F910C94A2
:10424000DC2008950C9421210E94222160936102B8
:104250007093620280936302909364020C94F41C46
:1042600060E070E0CB010C9424210F931F9341E098
:1042700050E060E070E08A019B0104C0000F111F54
:10428000221F331F8A95D2F7C901B8011F910F91E0
:104290000C9424210F931F9341E050E060E070E004
:1042A00004C0440F551F661F771F8A95D2F780916F
:1042B000610290916202A0916302B09164028A014E
:1042C0009B01082B192B2A2B3B2BC901B8011F91ED
:1042D0000F910C9424210F931F9341E050E060E074
:1042E00070E004C0440F551F661F771F8A95D2F7F0
:1042F0004095509560957095809161029091620211
:10430000A0916302B09164028A019B0108231923E2
:104310002A233B23C901B8011F910F910C9424213A
:104320000F931F9341E050E060E070E004C0440F41
:10433000551F661F771F8A95D2F780916102909171
:104340006202A0916302B09164028A019B01082776
:1043500019272A273B27C901B8011F910F910C94F7
:1043600024210F931F93009161021091620220910A
:10437000630230916402602B712B822B932B1F916F
:104380000F910C9424210F931F93009161021091BF
:1043900062022091630230916402602371238223C0
:1043A00093231F910F910C9424210F931F9300913D
:1043B00061021091620220916302309164026027D1
:1043C0007127822793271F910F910C942421089520
:1043D00020E1929F800D1124A82FA695A695A69561
:1043E000877051E001C0550F8A95EAF785E0A89FD4
:1043F000D001112420E030E070E0F901EA0FFB1F4A
:10440000E15DFD4F4081CB01022E02C0969587955C
:104410000A94E2F781709927819584278523842760
:1044200080832F5F3F4F2530310539F7089520E114
:10443000929F800D1124682F669566956695982F3A
:10444000977085E0689FB001112440E050E080E063
:10445000FA01E60FF71FE15DFD4F208130E0092EE4
:1044600002C0369527950A94E2F721703327042E6F
:1044700001C0220F0A94EAF7822B4F5F5F4F45304D
:10448000510531F70895BF92CF92DF92EF92FF92DC
:104490000F931F93CF93DF938C01C0906502D09050
:1044A0006602E0906702F09068028091610290914C
:1044B0006202A0916302B0916402C82AD92AEA2A52
:1044C000FB2ACFE1D0E0D701C6010C2E04C0B6957F
:1044D000A795979587950A94D2F780FF07C0BC2EC1
:1044E000B8018C2F0E94EA07019719F4219758F719
:1044F000B12C8B2DDF91CF911F910F91FF90EF90F9
:10450000DF90CF90BF900895CF93DF93EC010E948E
:104510004322BE010E94EA07DF91CF9108951F93C5
:10452000CF93DF93EB019091F601992321F0CB011A
:104530000E94842213C0882349F0CB010E944322A9
:10454000182F682FCE010E94E82104C0CB010E94E1
:104550001722182FBE01812F0E94EA07DF91CF9109
:104560001F91089580916902859585958595089597
:10457000809169028770089590916902977081E037
:1045800009F480E0089580918D02089590918D0244
:10459000892B80938D020895809590918D028923B7
:1045A00080938D02089510928D02089590918C024F
:1045B000892B80938C020895809590918C02892399
:1045C00080938C02089510928C02089590918B0232
:1045D000892B80938B020895809590918B0289237B
:1045E00080938B02089510928B02089580916A0245
:1045F000089508950C94F92290916A02981721F079
:1046000080936A020C94FA22089580916A028823AA
:1046100029F010926A0280E00C94FA220895E09149
:104620001001F091110180918D028083E0911001C1
:10463000F0911101908180918C02892B8083E0910F
:104640001001F0911101908180918B02892B808360
:1046500080916A02882381F0E0911001F0911101AC
:104660009081892B808380911001909111010E948B
:104670005E2481110E940523809110019091110107
:104680000C94901708950C94422398E0899F900110
:104690001124262B209369020E944A2180916902ED
:1046A0008595859585950C9443231092690280E049
:1046B0000C944323209169028095822380936902A0
:1046C000982F977079F430E0482F082E000C550B86
:1046D0002417350739F08595859585950E946B21BE
:1046E0000C94552308959093CF018093CE010895A3
:1046F0008295982F9C7C392F36953695282F2373D9
:1047000044E0249FC0011124932F982B292F2A7A4B
:104710002695892F8575880F822B08951F93CF9337
:10472000DF931F92CDB7DEB799830E947823182FAD
:104730009981892F0E947823212F30E0322F222760
:10474000A901482BCA010F90DF91CF911F910895C5
:104750006FEF7FEF80E090E00C94813180E090E09B
:104760000E945D3121E08C3E9E4F09F020E0822FB7
:10477000089582E090E00C944F3183E090E00C9437
:104780004F31CF9384E090E00E944F31C82F81E2F7
:1047900090E00E944F312C2F30E0A901582BCA0124
:1047A000CF910895CF93C92F682F84E090E00E94A5
:1047B00063316C2F81E290E0CF910C94633186E0FD
:1047C00090E00C944F31682F86E090E00C946331B8
:1047D000AB01BC018FE090E00C947531AB01BC01E2
:1047E00083E190E00C94753160E070E0CB010C94B3
:1047F000EE2360E070E0CB010E94E8230C94F423E8
:104800006CEE7EEF80E090E00E94813160E082E01B
:1048100090E00E94633160E083E090E00E946331A9
:10482000109265021092660210926702109268025E
:1048300060E084E090E00E94633160E081E290E01B
:104840000E94633160E085E090E00E94633160E0A7
:1048500086E090E00E9463316FEF87E090E00E9475
:10486000633140E050E0BA0188E090E00E94753189
:1048700060E08DE090E00E94633140E050E0BA01DA
:1048800088E190E00E94753160E087E190E00E944D
:10489000633140E050E0BA018CE190E00E94753154
:1048A00060E080E290E00E9463310C94F9230C9464
:1048B0000024682F8EE090E00C946331FC01329666
:1048C00080912201882331F080911E0387FF02C06E
:1048D0009EE101C096E080E0915028F021912223D2
:1048E000D9F38F5FF9CF08959C01FC0132969FEFB9
:1048F00080E04191461789F09F3F19F4411101C0B2
:10490000982F8F5F8630A9F79F3F39F0F901E90FA3
:10491000F11D97FDFA95628308950895FC01329682
:1049200008962081261301C010823196E817F907F6
:10493000C1F70895262F2695269526952E3170F4D9
:10494000FC01E20FF11D677021E030E001C0220F91
:104950006A95EAF78281282B2283089580918E023E
:1049600080FF0CC01F926F9387E899E09F938F930D
:104970000E94D7060F900F900F900F900895262F4A
:104980002695269526952E3178F4FC01E20FF11D2F
:10499000677021E030E001C0220F6A95EAF72095A8
:1049A000828128232283089580918E0280FF0CC08B
:1049B0001F926F9389E699E09F938F930E94D70689
:1049C0000F900F900F900F900895209122012223B5
:1049D00029F020911E0327FD0C949A240C94742432
:1049E00020912201222329F020911E0327FD0C94FF
:1049F000BF240C948E2420912201FC0132962223A4
:104A000031F080911E0387FF02C08EE101C086E075
:104A1000DF011D928A95E9F7089508950C940D25FC
:104A20000E940E2580912403843009F43CC010922A
:104A30008F0220E488E190E00FB6F894A895809367
:104A400060000FBE2093600080E00E94C51480E0EB
:104A50000E944B070E9494108091900281110AC01D
:104A600081E0809390028091D602817080939102C0
:104A70000E9402120E940E2583B7817F846083BF4B
:104A800083B7816083BF7894889583B78E7F83BF17
:104A90000FB6F894A89580916000886180936000BB
:104AA000109260000FBE089508950895CF930E945C
:104AB00054250E94750A0E945525C0E08C2F0E9443
:104AC000D609892B29F4CF5FC530C1F780E001C03A
:104AD00081E0CF91089508950C946B250E940E1DDE
:104AE0000E944A130E9484170E944B071092900262
:104AF0008091910281110E949D110E9472100C946C
:104B00006C251F920F920FB60F9211248F939F93D3
:104B1000AF93BF9380918F02811113C080911A03CC
:104B200090911B03A0911C03B0911D034196A11D00
:104B3000B11D80931A0390931B03A0931C03B093A1
:104B40001D03BF91AF919F918F910F900FBE0F905A
:104B50001F90189582E084BD93E095BD9AEF97BDB4
:104B600080936E0008952FB7F89480911A03909166
:104B70001B03A0911C03B0911D032FBF0895CF927A
:104B8000DF92EF92FF920F931F932FB7F89440910B
:104B90001A0350911B0360911C0370911D032FBFDA
:104BA0006A017B01EE24FF248C0120E030E0C01676
:104BB000D106E206F30610F4415051099A01281B70
:104BC000390BC9011F910F91FF90EF90DF90CF90AB
:104BD000089578941F920F920FB60F9211248F931D
:104BE0009F93AF93BF9380911A0390911B03A09161
:104BF0001C03B0911D030196A11DB11D80931A03E2
:104C000090931B03A0931C03B0931D03BF91AF911E
:104C10009F918F910F900FBE0F901F90189581E07C
:104C20008093E00080E28093D8001092C9008FE169
:104C30009EE40197F1F700C0000087E090EBDC01F3
:104C400080932D0390932E03A0932F03B0933003F2
:104C50009CE088E10FB6F894A895809360000FBEA1
:104C600090936000FFCF0E94AE23811102C00E948A
:104C700057240E94B92380938E020E94C1239093EF
:104C80001F0380931E030E94BD23682F70E080E005
:104C900090E00C94E9208091950280FF0BC0609118
:104CA000150185E0689FB00111247595679575958C
:104CB00067952BC081FF09C06091150185E0689F51
:104CC000B00111247595679520C082FF07C06091DF
:104CD000150185E0689FB001112417C090919402DE
:104CE0009923D1F060911401961788F7209115014E
:104CF00085E0289F90011124929FA001939F500D61
:104D0000112470E0CA010E94EC306038710540F453
:104D10006115710539F002C065E070E0862F0895D5
:104D20008FE7089581E008958091950280FF08C083
:104D30006091130170E0759567957595679521C031
:104D400081FF06C06091130170E07595679519C0E9
:104D500082FF04C06091130170E010C09091940232
:104D60009923C1F0609112019617A0F78091130169
:104D7000899FC001112470E00E94EC3060387105F9
:104D800028F46115710521F0862F08958FE70895A5
:104D900081E0089561E070E0F4CF803F21F40E944B
:104DA0004B26819504C0813F29F40E944B268093B5
:104DB00099020895823F21F40E944B26819504C0F8
:104DC000833F29F40E944B26809398020895893FDF
:104DD00019F40E94942605C08A3F31F40E9494265B
:104DE000819580939A0208958B3F21F40E94942626
:104DF000819504C08C3F29F40E94942680939B02E5
:104E00000895843F21F480919702816017C0853F07
:104E100021F480919702826011C0863F21F4809135
:104E2000970284600BC0873F21F4809197028860CD
:104E300005C0883F31F4809197028061809397028A
:104E400008958D3F21F48091950281600BC08E3FC3
:104E500021F480919502826005C08F3F29F48091F2
:104E600095028460809395020895803F39F4809183
:104E7000990287FF6CC01092990269C0813F29F4A2
:104E8000809199021816BCF362C090919802823FFB
:104E900029F497FF5CC01092980259C0833F19F41F
:104EA0001916CCF354C0893F41F480919A02181628
:104EB0000CF04DC010929A024AC08A3F29F48091AA
:104EC0009A0287FF44C0F6CF8B3F39F480919B0252
:104ED00087FF3DC010929B023AC08C3F29F480911D
:104EE0009B021816BCF333C0843F21F480919702D3
:104EF0008E7F17C0853F21F4809197028D7F11C06E
:104F0000863F21F4809197028B7F0BC0873F21F46D
:104F100080919702877F05C0883F31F48091970286
:104F20008F7E8093970213C08D3F21F4809195026C
:104F30008E7F0BC08E3F21F4809195028D7F05C03E
:104F40008F3F29F4809195028B7F80939502809109
:104F5000980281110EC08091990281110AC080913E
:104F60009A02811106C080919B02811102C01092A9
:104F70009402089580918E0283FF7EC08CEC99E0AC
:104F80000E943E06809197021F928F9387EC99E0D2
:104F90009F938F930E94D70685EC99E00E943E066E
:104FA00080919802282F082E000C330B3F938F938B
:104FB00082EC99E09F938F930E94D70680EC99E052
:104FC0000E943E0680919902282F082E000C330B78
:104FD0003F938F938DEB99E09F938F930E94D70619
:104FE0008BEB99E00E943E0680919A02282F082EB2
:104FF000000C330B3F938F9388EB99E09F938F9333
:105000000E94D70686EB99E00E943E0680919B02A3
:10501000282F082E000C330B3F938F9383EB99E0DE
:105020009F938F930E94D70680EB99E00E943E06E3
:10503000809194021F928F938DEA99E09F938F93B2
:105040000E94D7068BEA99E00E943E068091950265
:105050001F928F9388EA99E09F938F930E94D706BF
:1050600085EA99E00E943E068DB79EB74C960FB632
:10507000F8949EBF0FBE8DBF86E992E00E94E517AF
:105080000E94B325909393028093920208951F93F8
:10509000CF93DF9380919202909193020E94BF255B
:1050A000AC0190919402992321F02091160130E0F7
:1050B00006C0209117018AE0289F90011124421711
:1050C000530708F47BC080919802C0919902D09157
:1050D0009A0210919B02811107C0C1116BC0D111BE
:1050E00069C0111167C06AC09F3F19F09F5F90931C
:1050F0009402181624F40E944B2680939802809103
:10510000980287FF05C00E944B26819580939802E4
:105110001C1624F40E944B268093990280919902D8
:1051200087FF05C00E944B2681958093990230919C
:1051300098023323E1F0209199022223C1F045EB3C
:105140003403C0011124892F990F990B009709F49A
:1051500081E08093980235EB2303C0011124892F4D
:10516000990F990B009709F481E0809399021D161D
:1051700024F40E94942680939A0280919A0287FFD9
:1051800005C00E949426819580939A02111624F4FA
:105190000E94942680939B0280919B0287FF05C00A
:1051A0000E949426819580939B02DF91CF911F915D
:1051B0000C94BA279F3F09F099CFA1CFDF91CF91EF
:1051C0001F910895E6E9F2E086E0DF011D928A95DD
:1051D000E9F7109294021092950208958091BF020F
:1051E00008959FB7F89410929E029FBF9091240358
:1051F000943009F057C09091E9009F703091EC0015
:10520000232F217030FD20E8922B23E02093E9002A
:105210002091EB0020FF43C02091EE0027FF3FC00C
:1052200020919C02222321F02091E80025FF37C025
:1052300010929C0226E03091E80035FD15C03091B7
:105240002403343061F53091EB0035FD28C0215046
:1052500021F481E080939C0222C0EFE9FFE03197C6
:10526000F1F700C00000E7CF8093F1008091E800E3
:1052700085FD0AC08091E80080FFFCCF8091E800A6
:105280008E778093E80006C08FB7F89421E02093D2
:105290009E028FBF9F709093E90080E008959F70F9
:1052A0009093E9008FEF0895CF93DF9300D01F9282
:1052B000CDB7DEB790912403943019F589837B83B1
:1052C0006A8382E08093E9008FEF9091E80081503B
:1052D00095FD06C095ED9A95F1F700008111F5CF87
:1052E0008091E80085FF0DC040E050E063E070E091
:1052F000CE0101960E94132C8091E8008E77809356
:10530000E8000F900F900F90DF91CF910895CF9309
:10531000DF93EC010E94F62B823011F0843031F4DF
:10532000BE0184E0DF91CF910C945429DF91CF919D
:105330000895BC0183E00C945429CF93DF93EC01D2
:105340000E94F62B823011F08430F9F482E08093D1
:10535000E9009FEF8091E800915085FD06C085ED42
:105360008A95F1F700009111F5CF8091E80085FF53
:105370000CC040E050E066E070E0CE010E94132CCB
:105380008091E8008E778093E800DF91CF910895B7
:10539000CF93DF93EC010E94F62B823011F0843022
:1053A000D9F580912201882339F080911E0387FF6F
:1053B00003C060E282E002C068E081E08093E9001F
:1053C0008FEF9091E800815095FD06C095ED9A957C
:1053D000F1F700008111F5CF8091E80085FF1CC036
:1053E00080912201811105C040E050E068E070E04A
:1053F00003C070E040E050E0CE010E94132C809189
:10540000E8008E778093E80080E2FE01AFE9B2E029
:1054100001900D928A95E1F7DF91CF91089584E193
:105420009AE00E943E0680912303811109C00E94E8
:10543000A82D0E94052E8091E20084608093E200F6
:10544000089580E19AE00E943E0610922303089599
:105450008CE09AE00C943E0688E09AE00C943E06BC
:1054600084E09AE00E943E060C946E2520919D02F5
:105470002F5F822F62E30E94BE30992319F02093A0
:105480009D02089510929D0280919E02882371F1E1
:1054900080912403843041F58091E9008F70209140
:1054A000EC00922F917020FD90E8892B93E090936F
:1054B000E9009091EB0090FF14C09091EE0097FFEF
:1054C00010C09091E80095FF03C01092F100F9CF51
:1054D0009091E80090FF05C09091E8009E7790932E
:1054E000E8008F708093E90010929E02089542E0D8
:1054F00061EC81E00E94222D42E261EC82E00E9498
:10550000222D42E261EC83E00C94222D809126034F
:10551000833009F460C030F4813071F0823009F4D6
:1055200099C008958A3009F485C08B3009F46BC0A6
:10553000893009F0A7C020C080912503813A09F085
:10554000A1C08091E800877F8093E80080912903C3
:1055500090912A03892B21F460E28FE992E003C045
:1055600060E080E090E070E00E945E2C8091E800B6
:105570008B778093E800089580912503813209F0AC
:1055800081C08091290390912A03029708F07AC084
:105590008091E800877F8093E8008091E80082FD99
:1055A00005C0809124038111F8CF6CC02091F300D5
:1055B0008091F20090E0922B029729F48091F10003
:1055C0008B7F813021F48091F1008093BF02809124
:1055D000E8008B7753C080912503813A09F052C0CF
:1055E0008091290390912A03892B09F04BC0809167
:1055F000E800877F8093E8008091E80080FFFCCF7F
:105600008091220136C0809125038132D9F58091A5
:10561000290390912A03892BA9F58091E800877FBF
:105620008093E8000E94572D8091270380932201E8
:105630000C940E1D80912503813221F58091E800A4
:10564000877F8093E8000E94572D809128038093E4
:10565000C002089580912503813AA1F48091E80069
:10566000877F8093E8008091E80080FFFCCF8091E5
:10567000C0028093F1008091E8008E778093E8006B
:105680000C94572D089584B7877F84BF0FB6F89484
:10569000A8958091600088618093600010926000FE
:1056A0000FBE90E080E80FB6F8948093610090936D
:1056B00061000FBE0E942D180E94A82D0E94052E89
:1056C0008091E20084608093E20081EF98E20E9482
:1056D000732378940E9493300E94351888E191E0FA
:1056E0000E947F1783EF99E00E943E068091240379
:1056F000853089F48FEE99E00E943E060E941025C5
:1057000080912203882391F30E945625882371F308
:105710000E94FD2BEBCF0E946918E8CF0C94902BD0
:10572000292F332723303105C9F064F421303105A6
:1057300081F02230310509F049C08BE590E026E484
:105740003AE048C02132310521F12232310571F1B0
:105750003DC082E190E021EA3AE03CC099278130E7
:10576000910571F02CF4892B89F5E2E4FAE00DC083
:105770008230910541F0039749F5E8E1FAE005C070
:10578000E0E3FAE002C0EEE1FAE0849190E09F01EC
:1057900021C063307105D0F4660F771FFB01E85319
:1057A000FE4F2081318189E090E014C063307105A3
:1057B00068F4FB01EE0FFF1FEE53FE4F2081318195
:1057C000FB01E154FE4F808190E004C080E090E056
:1057D00020E030E0FA013183208308958091240392
:1057E000843011F081E0089582E008958091C10233
:1057F000811102C00C94EE2B089580E189BD82E1F5
:1058000089BD09B400FEFDCF8091D8008F7D8093C3
:10581000D8008091E00082608093E0008091E000F9
:1058200081FDFCCF0895CF92DF92EF92FF920F930C
:105830001F93CF93DF93EC018B016A010E94762DB9
:10584000811133C0C114D10439F0F60180819181F6
:10585000081B190BC80FD91FE12CF12C01151105DC
:1058600019F18091E80085FD16C08091E8008E77DF
:105870008093E800C114D10449F0F6018081918140
:10588000E80EF91EF182E08285E00FC00E94762DBD
:10589000882321F30AC089918093F10001501109F6
:1058A000FFEFEF1AFF0ADACF80E0DF91CF911F916F
:1058B0000F91FF90EF90DF90CF90089520912B03F0
:1058C00030912C032617370748F06115710539F41C
:1058D0002091E8002E772093E80001C0B90140E054
:1058E00061157105A9F120912403222309F443C015
:1058F000253009F442C02091E80023FD40C02091EA
:10590000E80022FD32C02091E80020FFE9CF40915D
:10591000F3002091F20030E0342BFC01CF0161153F
:10592000710559F02830310540F481918093F100E0
:10593000615071092F5F3F4FF1CF41E028303105B1
:1059400009F040E02091E8002E772093E800C8CFCE
:105950004111C9CF0AC080912403882361F08530AA
:1059600061F08091E80083FD0AC08091E80082FF29
:10597000F2CF80E0089582E0089583E0089581E009
:10598000089520912B0330912C032617370748F0F8
:105990006115710539F42091E8002E772093E80015
:1059A00001C0B901FC0120E06115710591F1809100
:1059B0002403882309F440C0853009F43FC0809156
:1059C000E80083FD3DC08091E80082FD2FC08091FA
:1059D000E80080FFE9CF2091F3008091F20090E091
:1059E000922B6115710559F08830910540F424918E
:1059F0002093F1003196615071090196F2CF21E0B8
:105A0000089709F020E08091E8008E778093E80005
:105A1000CBCF2111CCCF0AC080912403882361F021
:105A2000853061F08091E80083FD0AC08091E80034
:105A300082FFF2CF80E0089582E0089583E0089528
:105A400081E00895982F973058F59093E9009817C2
:105A500039F07091EC002091ED005091F00003C0FE
:105A6000242F762F50E021FF19C03091EB003E7FAC
:105A70003093EB003091ED003D7F3093ED0030919D
:105A8000EB0031603093EB007093EC002093ED005D
:105A90005093F0002091EE0027FF07C09F5FD3CF07
:105AA0008F708093E90081E0089580E008958091EF
:105AB000250387FF11C08091E80082FD05C0809119
:105AC00024038111F8CF11C08091E8008B770BC0BF
:105AD00080912403882349F08091E80080FFF8CF6B
